:020000040802F0
:100000002009002441030208515F0208E95902084F
:10001000495F0208910802086167020800000000B9
:1000200000000000000000000000000081630208E2
:10003000A90E020800000000995F0208B9630208D7
:100040005B0302085B0302085B0302085B03020810
:100050005B0302085B0302085B0302085B03020800
:100060005B0302085B0302085B03020899080208AD
:100070005B0302085B0302085B0302085B030208E0
:100080005B0302085B030208810802085B030208A5
:100090005B0302085B0302085B0302085B030208C0
:1000A0005B0302085B0302085B0302085B030208B0
:1000B0005B0302085B0302085B0302085B030208A0
:1000C0005B0302085B0302085B0302085B03020890
:1000D000E16102085B0302085B0302085B0302089C
:1000E0005B0302085B030208000000005B030208D8
:1000F0005B0302085B0302085B0302085B03020860
:100100005B0302085B0302085B0302085B0302084F
:100110005B0302085B0302085B0302085B0302083F
:100120005B0302085B0302085B0302085B0302082F
:100130005B0302085B0302085B0302085B0302081F
:1001400000000000000000000000000000000000AF
:100150005B0302085B0302085B0302085B030208FF
:100160005B0302085B0302085B0302085B030208EF
:100170005B0302085B0302085B0302080000000047
:100180005B0302085B0302085B0302085B030208CF
:100190005B0302085B0302085B0302085B030208BF
:1001A0005B0302085B0302085B0302085B030208AF
:1001B0005B0302085B0302085B0302085B0302089F
:1001C0005B0302085B0302085B0302085B0302088F
:1001D0005B0302085B0302085B0302085B0302087F
:1001E0005B0302085B0302085B0302085B0302086F
:1001F0005B0302085B0302085B0302085B0302085F
:100200005B0302085B0302085B0302085B0302084E
:100210005B0302085B030208916502085B030208A6
:100220005B0302085B0302085B0302080000000096
:100230005B0302085B030208000000005B03020886
:100240005B0302085B0302085B0302085B0302080E
:100250005B0302085B0302085B0302085B030208FE
:100260005B0302085B0302085B0302085B030208EE
:100270005B0302085B0302085B0302080000000046
:100280005B0302085B0302085B0302080000000036
:10029000000000005B03020800F002F800F040F8E4
:1002A0000AA090E8000C82448344AAF10107DA45D1
:1002B00001D100F035F8AFF2090EBAE80F0013F0E3
:1002C000010F18BFFB1A43F0010318479C77000089
:1002D000BC770000103A24BF78C878C1FAD852071A
:1002E00024BF30C830C144BF04680C6070470000B0
:1002F0000023002400250026103A28BF78C1FBD82F
:10030000520728BF30C148BF0B6070471FB507F0C8
:100310008BF89DE8030000F04DF91FBD10B510BD2E
:1003200000F083F91146FFF7F1FF07F025F800F020
:10033000BBF903B4FFF7F2FF03BC00F019F90000AA
:100340000948804709480047FEE7FEE7FEE7FEE769
:10035000FEE7FEE7FEE7FEE7FEE7FEE704480549A5
:10036000054A064B70470000B16402089902020872
:100370002003002420090024200500242005002457
:10038000032A40F2308010F0030C00F0158011F8C1
:10039000013BBCF1020F624498BF11F801CB00F899
:1003A000013B38BF11F8013BA2F1040298BF00F8ED
:1003B00001CB38BF00F8013B11F0030300F0A5802A
:1003C000083AC0F0088051F8043B083A51F804CBD1
:1003D000A0E80810F5E7121D5CBF51F8043B40F897
:1003E000043BAFF30080D20724BF11F8013B11F8A2
:1003F00001CB48BF11F8012B24BF00F8013B00F8E6
:1004000001CB48BF00F8012B70474FF0000200B548
:10041000134694469646203922BFA0E80C50A0E827
:100420000C50B1F12001BFF4F7AF090728BFA0E8D5
:100430000C5048BF0CC05DF804EB890028BF40F8A1
:10044000042B08BF704748BF20F8022B11F0804FE3
:1004500018BF00F8012B704770477047704770B5A0
:10046000064600F08BF8056806F10B0020F0070443
:10047000B4429CBF002070BD2B466A68BAB11068B8
:10048000A04210D304F1080188423CBF5068586074
:1004900007D35168101941601168091B0160586049
:1004A0001460101D70BD13465268002AE7D1214622
:1004B000284600F06BF80028DED170BD70B5044608
:1004C000051F00F05BF80068002C14BF446870BD85
:1004D000002C18BFAC423CBF20466468F8D30168CA
:1004E0000A18AA4218BF456003D12A68054611447C
:1004F000016028684119A1421CBF6C6070BD616831
:10050000696021680844286070BD10B5203AC0F0C9
:100510000B80B1E81850A0E81850B1E81850A0E8D6
:100520001850203ABFF4F5AF5FEA027C24BFB1E86F
:100530001850A0E8185044BF18C918C0BDE81040B2
:100540005FEA827C24BF51F8043B40F8043B08BFBB
:100550007047D20728BF31F8023B48BF11F8012B82
:1005600028BF20F8023B48BF00F8012B704700006D
:1005700001491820ABBEFEE7260002000048704784
:1005800028000024704770477047704738B504460C
:100590000A4600206946AFF30080002808BF38BD36
:1005A00002460099204600F065F8012038BD012080
:1005B00000F088B8F8B5AFF30080054600200C467F
:1005C000102000BF0646A819A0420DD93246694640
:1005D0000020AFF30080070008BF00F073F8009818
:1005E000A04218BF0546C419FFF7C8FF05600746BB
:1005F000F01D20F007004619284600F00AF8B44222
:1006000008BFF8BDA21B31463868BDE8F84000F0CD
:1006100031B800210160C0E9011070471020704717
:10062000004870472000002470477546FFF7F8FF28
:10063000AE4605006946534620F00700854618B0CF
:1006400020B5FFF78BFEBDE820404FF000064FF0CD
:1006500000074FF000084FF0000BAC46ACE8C009B3
:10066000ACE8C009ACE8C009ACE8C00921F007015A
:100670008D467047034640688C46002818BF884264
:100680003CBF03464068F8D318681844884207D036
:100690000CF1030020F00700001D411A521A014618
:1006A000081D0A60FFF70ABF10B50446AFF30080CB
:1006B0002046BDE81040FFF73CBE002801D0FFF700
:1006C00057BF704710B500F01DF8BDE81040FFF7A8
:1006D000F4BF70B505460C460A2000E06D1C00F022
:1006E00039F835B128780028F8D102E0641C00F010
:1006F00031F814B120780028F8D1BDE870400A2004
:1007000000F028B810B5012805D0002103A0FFF79C
:10071000E0FF012010BD09A1F8E70000534947524E
:10072000544D454D3A204F7574206F6620686561C1
:1007300070206D656D6F7279000000003A20486589
:100740006170206D656D6F727920636F7272757064
:100750007465640008B569468DF800000320ABBEDF
:1007600008BD000000000000B0B50446006842F279
:10077000001140F48070C4F20201884204D142F2B8
:100780000830C4F2020003E046F20830C5F6020069
:10079000006810F4403F10D003F002FF6168054686
:1007A000B1F5803F05D0B1F5403F21D0B1F5003F14
:1007B0001FD1080CB5FBF0F51BE04FF4002002F050
:1007C000DFFF61680546A1F580224FEAB2420A2A9E
:1007D0000FD8DFE802F0060606060606494B4D4F25
:1007E00051006FF0010000EA5140B5FBF0F500E068
:1007F000AD0802F029FD41F2030188420DD82068BE
:1008000042F60151C0F231118D4281682CBF41F492
:10081000807121F480718160B0BD4BF62140C0F23F
:10082000BE00854205D82068816821F4407181604E
:10083000B0BD47F64100C0F27D10854203D8206864
:100840000122816808E020684FF28101C0F2FA219C
:100850008D42816804D8022262F309218160B0BD13
:1008600041F440718160B0BD2D09C2E76D09C0E758
:10087000AD09BEE7ED09BCE72D0ABAE700000000AC
:1008800080B540F2CC00C2F2004000F02DFD80BDEA
:10089000FEE700000000000080B540F23010C2F218
:1008A000004001F031F980BD40F20F420168C4F20E
:1008B0000202914210DC6F22C4F20202914220DC5B
:1008C0003F22C4F20202914236DC1022C4F202023C
:1008D000914254D028224EE040F26F42C4F202020C
:1008E00091421ADC40F23F42C4F2020291422ADCF9
:1008F00040F21042C4F20202914240D040F228423B
:1009000039E09F22C4F20202914225DC7022C4F237
:100910000202914233D088222DE040F29F42C4F27D
:10092000020291421FDC40F27042C4F20202914284
:1009300025D040F288421EE04022C4F202029142D9
:100940001DD0582217E040F24042C4F20202914208
:1009500015D040F258420EE0A022C4F202029142A9
:100960000DD0B82207E040F2B842C4F20202914230
:1009700005D040F2A042C4F2020291421AD1D0F84E
:1009800000C06FF00F024AF6AB2352FA8CF2CAF69F
:10099000AA23A2FB033109A35F2AC1F302115B5C06
:1009A00040F2FF312CEA0101C36588BF0431816543
:1009B00008467047016821F0FF01F8E700061016AD
:1009C000000610160000000010B545F257420168FD
:1009D000C5F6020291420EDC45F22F42C5F6020234
:1009E000914217DC45F20842C5F60202914226D038
:1009F00045F21C421FE045F27F42C5F602029142D9
:100A000011DC45F25842C5F60202914217D045F278
:100A10006C4210E045F23042C5F6020291420ED01F
:100A200045F2444207E045F29442C5F60202914283
:100A300005D045F28042C5F60202914219D10178F3
:100A40004CF6CD42CCF6CC4245F600030839C5F64B
:100A50000203A1FB021203F18001120903EB8203DE
:100A600002F01F0203660123416603FA02F1816668
:100A700010BD02784AF6AB23CAF6AA234FF0080E3F
:100A8000103AA2FB032340F20F42C4F202024FEAE3
:100A9000131C914202F1AA04624688BF0EEB1312A6
:100AA00040F60003A142C4F2020303F1800128BF13
:100AB0006246D3E70000000010B50279511E0729F5
:100AC00088BF10BD45F2574C45F6FC0E0368C5F6CD
:100AD000020CC5F6020E63450EF1440C0EDC45F225
:100AE0002F44C5F60204A34217DC45F20844C5F6BC
:100AF0000204A34226D045F21C441FE045F27F4485
:100B0000C5F60204A34211DC45F25844C5F60204BE
:100B1000A34217D045F26C4410E045F23044C5F6CC
:100B20000204A3420ED045F2444407E045F280445B
:100B3000C5F60204A34205D045F29444C5F602046A
:100B4000A34209D10EEB8202C2660122C0F870C036
:100B500002FA01F1416710BD40F6FC0EC4F2020E2C
:100B60000EF1440CEEE700008169B1F5005F07D09B
:100B700079B9816A022912D0012916D079B112E01F
:100B8000816A03290FD8DFE801F0020A0210012070
:100B90007047816A03293CBF0120704703D1C06AB6
:100BA000C0F30060704700207047C06AA0F1C070B9
:100BB000B0FA80F04009704770B540F26F44D0F849
:100BC00000E0C4F20204D0F858C0A64519DC9F2505
:100BD000C4F20205AE4531DC5725C4F20205AE452C
:100BE00056DC1025C4F20205AE4500F0928028259F
:100BF000C4F20205AE4500F08C804025C4F2020527
:100C000084E045F22F45C5F60205AE452BDC40F2E7
:100C1000B745C4F20205AE4548DC40F27045C4F267
:100C20000205AE4575D040F28845C4F20205AE45D6
:100C30006FD040F2A045C4F2020567E040F22745BC
:100C4000C4F20205AE4540DCA025C4F20205AE4563
:100C50005FD0B825C4F20205AE455AD040F2104527
:100C6000C4F2020552E045F26B45C5F60205AE45F9
:100C70003CDC45F23045C5F60205AE4549D045F2AB
:100C80004445C5F60205AE4543D045F258453BE024
:100C90005825C4F20205AE453BD07025C4F20205CA
:100CA000AE4536D08825C4F202052FE040F2B845A3
:100CB000C4F20205AE452CD045F20845C5F6020542
:100CC000AE4526D045F21C451EE040F22845C4F250
:100CD0000205AE451DD040F24045C4F20205AE45C6
:100CE00017D040F25845C4F202050FE045F26C45BA
:100CF000C5F60205AE450CD045F29445C5F6020591
:100D0000AE4506D045F28045C5F60205AE4540F039
:100D1000C980456EC66E002E866E6E601CBFD0E91F
:100D20001C566E60A64515DC9F24C4F20204A6453D
:100D30002BDC5724C4F20204A6454EDC1024C4F276
:100D40000204A64576D02824C4F20204A64571D038
:100D500040246BE045F22F44C5F60204A64527DC8B
:100D600040F2B744C4F20204A64542DC40F27044AB
:100D7000C4F20204A6455DD040F28844C4F20204E5
:100D8000A64557D040F2A04450E040F22744C4F2B8
:100D90000204A6453CDCA024C4F20204A64549D0C6
:100DA000B824C4F20204A64544D040F210443DE009
:100DB00045F26B44C5F60204A6454FDC45F23044CB
:100DC000C5F60204A6455BD045F24444C5F60204CC
:100DD000A64555D045F258444EE05824C4F20204CA
:100DE000A64527D07024C4F20204A64522D0882448
:100DF0001CE040F2B844C4F20204A6451AD045F201
:100E00000844C5F60204A6453AD045F21C4433E036
:100E100040F22844C4F20204A6450BD040F24044FC
:100E2000C4F20204A64505D040F25844C4F20204BC
:100E3000A64537D104683F258668C06D00F01F00C5
:100E4000402E05FA00F0CCF80800206820F480203D
:100E50002060636021D0A160E26070BD45F26C4407
:100E6000C5F60204A6450BD045F28044C5F602043F
:100E7000A64505D045F29444C5F60204A64511D115
:100E80000468C66D806806F01F060125402805FA33
:100E900006F6CCF80460636002D1A260E16070BD28
:100EA000A160E26070BD000070470000000000001B
:100EB00070470000000000007047000000000000C4
:100EC00070470000000000007047000000000000B4
:100ED00070470000000000007047000000000000A4
:100EE0002DE9F041044690F85000012802D102207B
:100EF000BDE8F08142F200072068C4F20207B84260
:100F00004FF0010084F850000BD107F580780D46B2
:100F1000404604F0C9FD0646206804F0C5FD304394
:100F200009D0606D40F0200060650120002184F848
:100F30005010BDE8F08146F200002168C5F60200BD
:100F40004145064608BF3E46B94208BF0E462A68DC
:100F500041F48071D6F80833002A23F4404215D0BA
:100F600042F2001C6B68C4F2020C614542EA0301C4
:100F7000C6F808131BD1384604F08AFD07464046E0
:100F800004F086FD3843B0B10020CFE742F20013F1
:100F9000C6F80823C4F20203994216D1384604F079
:100FA00077FD0546404604F073FD28430FE004F04A
:100FB0006FFD0028E8D1D6F8080340F61F7188437A
:100FC0002968AA680843104309E004F061FD08B1EC
:100FD0000020ABE7D6F8080340F61F718843C6F837
:100FE00008030020A2E700002DE9F04782B00022AC
:100FF0000192044690F85000012803D1022002B06B
:10100000BDE8F08720680D46012684F8506004F0A2
:1010100047FD28B1606D40F0200060650120CBE005
:101020002A6892FAA2F0B0FA80F3100308BF930E78
:101030002068696803F01F0306FA03F3C7693B439E
:10104000C36104F03DFD206804F02AFD06462068D7
:1010500004F00AFD304368D120682968AA6804F0CA
:1010600047FD41F20000C5F60040006800F0704006
:10107000B0F1805F06D120686A690E21C06801EA7C
:1010800050030CE02068C1686A69C068C9064FEA6D
:10109000500002D400F00E0301E000F008032969BB
:1010A0002068042928D1016E2A6801F0F841B1EBCB
:1010B000826F4FEA826103D1026E22F00042026623
:1010C000426E02F0F8428A4203D1426E22F00042A0
:1010D0004266826E02F0F8428A4203D1826E22F0AA
:1010E00000428266C26E02F0F8428A421DD1C16E91
:1010F00021F00041C16618E002FA03F32A6804F007
:101100003FFD687E0138B0FA80F120684A092969FC
:10111000D20704F041FD287E0138B0FA80F1206842
:101120004A092969D20204F01FFD206804F0ACFCD2
:1011300008B1002040E020682968EA6804F0ECFC6F
:101140000021E868C4F2FF71884230D128684FF668
:10115000FF71C0F20F014FF0806790FAA0F20842D1
:10116000B2FA82F24FF0010608BFC0F38462206831
:10117000511C07EB826701F01F0201F01E03092BCF
:1011800007F0F84106FA02F302EB420203D81943D2
:1011900041EA025108E000271943CFF6206707EB28
:1011A0000252114341F00071AA6804F0A1FC2868C2
:1011B000B0F1FF3F06DD0020002184F8501002B09E
:1011C000BDE8F08746F2000842F20007C5F60208C3
:1011D000C4F2020708F54079216807F5807607F523
:1011E00040724846B14208BF1046B94208BF104697
:1011F00004F02EFC216842F2001241F48071C4F226
:1012000002029142824608D1384604F03DFC07466E
:10121000304604F039FC384302E0404604F034FC28
:1012200000287FF4F7AE5FEA0A20296809D400207D
:10123000CCF68430814204D1206840451DD0002086
:10124000BAE75FEACA1009D40020CCF2527081429A
:1012500004D12068404531D00020ADE75FEA4A2044
:101260004FF00000A8D40022CCF6B8729142A3D16E
:101270002068404527D000209EE74AF400014846F8
:1012800004F06AFC40F2000042F66351C2F20040F2
:10129000C0F23E5100688009A0FB01016FF001001F
:1012A00000EA51100190019858B10198013801905D
:1012B000019800284FF00000F7D17DE74AF08071D7
:1012C00003E0002078E74AF48001484604F044FC3B
:1012D000002071E7000000007047000000000000DF
:1012E00070470000000000002DE9F04F81B046F289
:1012F000003842F200090168C5F60208C4F202098A
:10130000044609F5807B09F5407A40460D68594549
:1013100008BF504649454E6808BF504604F0A0FB40
:1013200035400646A9070CD5606DC00603D4606D34
:1013300040F4006060652046FFF7BEFD2068022192
:101340000160680758BF5FEA057043D5606DC0064D
:1013500003D4606D40F400706065206804F0A8FB61
:1013600090B320680146584508BF4946814218BFDE
:101370000946002E08BF0146052E08BF0146092E6A
:1013800008BF0146C96889041ED4016809071BD536
:1013900004F086FB40B1606D40F010006065A06D08
:1013A00040F00100A0650FE02068416821F00C01C9
:1013B0004160606D20F480706065606DC00403D48E
:1013C000606D40F0010060652046FFF785FF2068F2
:1013D0000C210160A80658BF5FEA45604FD5606DDB
:1013E000C00603D4606D40F400506065206804F0CE
:1013F0003FFB0746206804F05BFB216826F00103F1
:101400000A46594508BF4A468A4218BF1246002E6E
:1014100008BF0A46062B08BF0A46D26837B940B350
:1014200042F20000C0F20020104022D19002086871
:101430001FD410F040001CD0084604F015FB40B14A
:10144000606D40F010006065A06D40F00100A06587
:101450000FE02068416821F060014160606D20F478
:1014600080506065606DC00503D4606D40F0010080
:1014700060652046FFF724FD206860210160280692
:101480000AD4E80514D4A8051FD4E8062AD46805B0
:1014900046D401B0BDE8F08F606D40F480306065E7
:1014A000204600F069F9206880210160E805EAD54E
:1014B000606D40F4003060652046FFF709FD20684C
:1014C0004FF480710160A805DFD5606D40F4802085
:1014D00060652046FFF700FD20684FF40071016051
:1014E000E806D4D5206B58B120685EB3584508BFD4
:1014F000D046484508BFD046404604F0ADFA50B14A
:10150000606D40F480606065A06D40F00200A065F1
:101510002046FFF7E5FE2068102101606805B8D578
:101520002068616D41F480416165A16D41F0080161
:10153000A1654FF4806101602046FFF7C5FC01B052
:10154000BDE8F08FC06800F003000028D8D1E2E7C2
:10155000F0B581B0044600284FF00000009019D08B
:10156000606D30B9204600F00BF90020A06584F8CA
:101570005000206804F084FA10B1206804F054FA96
:10158000206804F089FA38B1206804F085FAD0B1F7
:10159000002521E00125E1E0206804F04DFA40F249
:1015A000000042F66351C2F20040C0F23E510068B2
:1015B0008009A0FB01018809009000980028E3D071
:1015C00000980138F8E7606D012540F01000606573
:1015D000A06D40F00100A065206804F061FA616D23
:1015E00001F010010843606D03D040F010000125A8
:1015F000B3E020F4817002306065206804F044FAA2
:1016000058BB206842F2001140F48070C4F202011D
:1016100042F200068842C4F2020640F0A280304640
:1016200004F032FA074606F5807004F02DFA3843CC
:1016300098B906F5807006F54072216846F20003FD
:10164000C5F602038142104618BF03F54070B1424F
:10165000616808BF104604F077FA01F0F5FD41F229
:10166000040188420CD3A068102809D1607D216B49
:10167000227F41EA403040EA024040F01C0108E08D
:10168000607D216B227F41EA4030A168084340EA37
:101690000241207F012806D1206A0022CFF6FE7287
:1016A00002EB40400143606A28B100F47870A26AFE
:1016B000084340EA020120684CF20303CFF6F073BE
:1016C000C2681A401143C16004F0EAF90646206876
:1016D00004F0CAF9304331D1217D2068E26A44F236
:1016E0000307C36842EA813123EA07021143C1605C
:1016F00094F838100129016914D14FF61E02002711
:10170000CFF60042CFF6FF771140D4E90F231943FB
:10171000636C07EB02421143A26C1943114341F081
:10172000010101E021F0010101610169626B21F019
:101730007041114301612046FFF716F82068E16807
:101740000129026B22F00F0102D1A269013A114373
:1017500001630121606D61F301006065284601B0FD
:10176000F0BD46F20000C5F6020004F08DF9002835
:101770007FF473AF5DE700007047000000000000D9
:10178000F0B587B000260696CDE9046642F2000166
:101790000068C4F2020103968842029601D007B0A5
:1017A000F0BD44F2E0400024C5F60200C5F6020494
:1017B00002AD032750F8081C41F0200140F8081C36
:1017C00050F8081C01F0200101910199016841F0D5
:1017D00001010160016801F00101019101990168B5
:1017E00041F004010160016801F0040101910199D7
:1017F000016841F0020101600068294600F0020022
:1018000001900198402002902046CDE9037601F036
:101810003FFC10202946CDE9020704F5006004963C
:1018200001F036FC02202946CDE9020704F580606C
:10183000049601F02DFC12200121002201F098FDF8
:10184000122001F091FD07B0F0BD00000000000083
:1018500080B5D8B190F83510022919D140F20F4265
:101860000168C4F20202914216DC6F23C4F2020343
:10187000994226DC3F23C4F2020399423CDC102348
:10188000C4F2020399425AD0282354E0012080BDBB
:1018900080214165012080BD40F26F43C4F2020304
:1018A00099421ADC40F23F43C4F2020399422ADC17
:1018B00040F21043C4F20203994240D040F2284360
:1018C00039E09F23C4F20203994225DC7023C4F25D
:1018D0000203994233D088232DE040F29F43C4F2A3
:1018E000020399421FDC40F27043C4F202039942A2
:1018F00025D040F288431EE04023C4F202039942FF
:101900001DD0582317E040F24043C4F2020399422D
:1019100015D040F258430EE0A023C4F202039942CE
:101920000DD0B82307E040F2B843C4F20203994255
:1019300005D040F2A043C4F20203994270D1914213
:101940004FF0040280F8352010DC6F22C4F202024E
:10195000914220DC3F22C4F20202914236DC102286
:10196000C4F20202914254D028224EE040F26F426B
:10197000C4F2020291421ADC40F23F42C4F2020277
:1019800091422ADC40F21042C4F20202914240D05D
:1019900040F2284239E09F22C4F20202914225DC43
:1019A0007022C4F20202914233D088222DE040F22C
:1019B0009F42C4F2020291421FDC40F27042C4F224
:1019C0000202914225D040F288421EE04022C4F239
:1019D000020291421DD0582217E040F24042C4F268
:1019E0000202914215D040F258420EE0A022C4F209
:1019F000020291420DD0B82207E040F2B842C4F290
:101A00000202914205D040F2A042C4F20202914289
:101A100024D10068016821F001010160002080BD2F
:101A20000268136823F00E03136045F25742C5F6AF
:101A3000020291420A6822F001020A6014DC45F2B7
:101A40002F42C5F6020291421DDC45F20842C5F65E
:101A5000020291422CD045F21C4225E0086820F099
:101A600001000860002080BD45F27F42C5F60202F9
:101A7000914211DC45F25842C5F60202914217D05C
:101A800045F26C4210E045F23042C5F60202914246
:101A90000ED045F2444207E045F29442C5F60202F8
:101AA000914205D045F28042C5F6020291421AD118
:101AB000D0E9181CD0E916E30A6822F480720A60A3
:101AC00003F01F01012202FA01F1CEF80410816E29
:101AD000CCF80410C16E31B10A6822F480720A6039
:101AE000D0E91C124A60002180F83410012280F8ED
:101AF0003520026D0AB190470021084680BD0000E4
:101B0000406D7047000000002DE9F04381B00021D6
:101B1000009140F200010446C2F2004140F26F49D8
:101B2000A56DC4F20209086848F2B511C1F64E313C
:101B30002668A0FB01084E452F682A6815DC9F2007
:101B4000C4F2020086422BDC5720C4F20200864217
:101B50004FDC1020C4F20200864278D02820C4F264
:101B60000200864273D040206CE045F22F40C5F65B
:101B70000200864227DC40F2B740C4F202008642EF
:101B800043DC40F27040C4F2020086425FD040F273
:101B90008840C4F20200864259D040F2A04051E091
:101BA00040F22740C4F2020086423DDCA020C4F28D
:101BB000020086424BD0B820C4F20200864246D0D2
:101BC00040F210403EE045F26B40C5F6020086420E
:101BD00074DC45F23040C5F60200864200F0818098
:101BE00045F24440C5F6020086427AD045F258409C
:101BF00072E05820C4F20200864228D07020C4F25D
:101C00000200864223D088201CE040F2B840C4F293
:101C1000020086421BD045F20840C5F6020086420B
:101C20005FD045F21C4057E040F22840C4F2020069
:101C300086420CD040F24040C4F20200864206D0F8
:101C400040F25840C4F20200864240F0ED84E06D5C
:101C500000F01F01082000FA01F23A4200F014815E
:101C600040F20F40C4F20200864213DC6F20C4F23F
:101C70000200864200F38E803F20C4F202008642BA
:101C800000F3CF801020C4F20200864200F0ED8005
:101C90002820E5E04E4500F3898040F23F40C4F241
:101CA0000200864200F3C48040F21040C4F20200F9
:101CB000864200F0DA8040F22840D1E045F26C40E4
:101CC000C5F6020086420CD045F28040C5F60200FF
:101CD000864206D045F29440C5F60200864240F0A6
:101CE000A3842068E16D01F01F010368580727D520
:101CF0000420884010EA020722D01904686000F12D
:101D00008780980600F18C8440F20F40C4F20200F4
:101D1000864200F3AB836F20C4F20200864200F3D8
:101D2000E6833F20C4F20200864200F35084102074
:101D3000C4F20200864200F06D84282000F066BCE8
:101D4000980742D50220884010EA02073DD01904C6
:101D5000686000F10E83980600F1988440F20F400D
:101D6000C4F20200864200F3AF836F20C4F2020087
:101D7000864200F311843F20C4F20200864200F341
:101D800056841020C4F20200864200F0738428209A
:101D900000F06CBC9F20C4F20200864251DC70202F
:101DA000C4F20200864260D0882059E040F29F4091
:101DB000C4F2020086424BDC40F27040C4F20200E2
:101DC000864252D040F288404AE0180740F12C8405
:101DD00008208840104000F0278440F20F40C4F2F1
:101DE0000200864200F32C836F20C4F20200864278
:101DF00000F34F833F20C4F20200864200F3938336
:101E00001020C4F20200864200F0B1832820A9E32A
:101E1000D80300F1B482A16C002940F00C8300F0DB
:101E200003BC4020C4F2020086421ED0582017E0B6
:101E300040F24040C4F20200864216D040F25840C0
:101E40000EE0A020C4F2020086420ED0B82007E0C7
:101E500040F2B840C4F20200864206D040F2A040F0
:101E6000C4F20200864240F08E822068042300689B
:101E7000184209D02068036823F004030360AA60B5
:101E8000606D40F001006065012000FA01F23A4205
:101E900070D040F20F40C4F20200864210DC6F2086
:101EA000C4F2020086421CDC3F20C4F202008642DB
:101EB00032DC1020C4F20200864251D028204AE0D1
:101EC0004E451ADC40F23F40C4F2020086422ADC52
:101ED00040F21040C4F20200864241D040F2284055
:101EE00039E09F20C4F20200864225DC7020C4F253
:101EF0000200864234D088202DE040F29F40C4F298
:101F0000020086421FDC40F27040C4F202008642AA
:101F100026D040F288401EE04020C4F202008642F3
:101F20001ED0582017E040F24040C4F20200864222
:101F300016D040F258400EE0A020C4F202008642C3
:101F40000ED0B82007E040F2B840C4F2020086424A
:101F500006D040F2A040C4F20200864240F0168251
:101F60002068406900F0800020B1AA60606D40F0F8
:101F700002006065042000FA01F23A4270D040F29B
:101F80000F40C4F20200864210DC6F20C4F202004F
:101F900086421CDC3F20C4F20200864232DC102064
:101FA000C4F20200864251D028204AE04E451ADC95
:101FB00040F23F40C4F2020086422ADC40F2104068
:101FC000C4F20200864241D040F2284039E09F200E
:101FD000C4F20200864225DC7020C4F20200864270
:101FE00034D088202DE040F29F40C4F202008642A7
:101FF0001FDC40F27040C4F20200864226D040F25C
:1020000088401EE04020C4F2020086421ED05820C4
:1020100017E040F24040C4F20200864216D040F27F
:1020200058400EE0A020C4F2020086420ED0B82034
:1020300007E040F2B840C4F20200864206D040F207
:10204000A040C4F20200864240F0A68120680068E9
:1020500000F0020020B1AA60606D40F004006065ED
:10206000102000FA01F139427ED040F20F40C4F254
:102070000200864210DC6F20C4F2020086421CDCA3
:102080003F20C4F20200864232DC1020C4F202007B
:10209000864251D028204AE04E451ADC40F23F40AB
:1020A000C4F2020086422ADC40F21040C4F2020070
:1020B000864241D040F2284039E09F20C4F202001D
:1020C000864225DC7020C4F20200864234D088208B
:1020D0002DE040F29F40C4F2020086421FDC40F235
:1020E0007040C4F20200864226D040F288401EE0D2
:1020F0004020C4F2020086421ED0582017E040F271
:102100004040C4F20200864216D040F258400EE031
:10211000A020C4F2020086420ED0B82007E040F2B0
:10212000B840C4F20200864206D040F2A040C4F299
:102130000200864240F0368126680822306810424C
:1021400012D0A960206801684903016806D4C90556
:1021500006D4016821F00801016001E008034FD4B2
:10216000216C09B120468847E06D202100F01F0056
:102170008140394200F0AE8040F20F432268C4F241
:1021800002039A4210DC6F23C4F202039A421CDC61
:102190003F23C4F202039A4236DC1023C4F2020346
:1021A0009A4255D028234EE04A451ADC40F23F437C
:1021B000C4F202039A422EDC40F21043C4F202033E
:1021C0009A4245D040F228433DE09F23C4F20203E7
:1021D0009A4229DC7023C4F202039A4238D0882341
:1021E00031E040F29F43C4F202039A4223DC40F202
:1021F0007043C4F202039A422AD040F2884322E09C
:10220000A16C0029AED1AFE74023C4F202039A4289
:102210001ED0582317E040F24043C4F202039A4212
:1022200016D040F258430EE0A023C4F202039A42B3
:102230000ED0B82307E040F2B843C4F202039A423A
:1022400006D040F2A043C4F202039A4240F0AC80B0
:102250002268102312681A423CD0A96094F83520F5
:102260002168042A0A681DD122F016020A604A6910
:1022700022F080024A61226C0AB9A26C1AB10A6883
:1022800022F008020A603F2101FA00F0A860002055
:1022900084F83400012084F83500216D002940F0D5
:1022A000CA80C1E1500308680CD4C0050ED4086888
:1022B00020F010000860002084F83400012084F829
:1022C000350003E0000301D4616C00E0E16B09B16B
:1022D00020468847606D002800F0A681606DC00729
:1022E00000F0A580042084F8350040F20F412068FA
:1022F000C4F20201884210DC6F21C4F2020188425C
:102300001CDC3F21C4F2020188424FDC1021C4F2E0
:10231000020188426FD0282167E048451ADC40F26C
:102320003F41C4F20201884247DC40F21041C4F24E
:10233000020188425FD040F2284156E09F21C4F25A
:102340000201884242DC7021C4F20201884252D06C
:1023500088214AE040F29F41C4F2020188423CDCFD
:1023600040F27041C4F20201884244D040F28841F8
:102370003BE0D80376D4616C00295CD154E1216C38
:10238000002958D150E10823304670E5306800201C
:1023900000287FF4EAADEDE53068002000287FF4E6
:1023A0005AAE5DE60422C9E6022353E74021C4F297
:1023B000020188421FD0582117E040F24041C4F288
:1023C0000201884217D040F258410EE0A021C4F229
:1023D000020188420FD0B82107E040F2B841C4F2B0
:1023E0000201884207D040F2A041C4F202018842B3
:1023F00008BF206800E020684FEA9821026822F0B8
:1024000001020260009801300090884203D82068E1
:102410000068C007F6D12068002184F834100068F5
:10242000C0074FF0030008BF012084F83500E16CBD
:10243000002900F0F9802046884701B0BDE8F0830C
:102440004E4532DC40F23F40C4F20200864271DC6D
:1024500040F21040C4F20200864200F0888040F250
:1024600028407FE0E16B0029E5D1DDE04E454BDC03
:1024700040F23F40C4F20200864200F3AF8040F2D7
:102480001040C4F20200864200F0C48040F22840AE
:10249000BCE09F20C4F20200864254DC7020C4F2EB
:1024A0000200864263D088205CE040F29F40C4F284
:1024B000020086424EDC40F27040C4F202008642C6
:1024C00055D040F288404DE04E4571DC40F23F402F
:1024D000C4F20200864200F3B18040F21040C4F220
:1024E0000200864200F0C68040F22840BEE09F20F5
:1024F000C4F2020086427ADC7020C4F202008642F6
:1025000000F08880882081E040F29F40C4F2020001
:10251000864273DC40F27040C4F20200864279D0F9
:1025200040F2884072E04020C4F2020086421ED091
:10253000582017E040F24040C4F20200864216D014
:1025400040F258400EE0A020C4F2020086420ED0B5
:10255000B82007E040F2B840C4F20200864206D03C
:1025600040F2A040C4F20200864240F09480266807
:102570006FF01C02306810403060012000FA01F159
:1025800069606065002184F8341084F83500E16CDE
:1025900000297FF450AF47E09F20C4F2020086423A
:1025A00055DC7020C4F20200864263D088205DE0D2
:1025B00040F29F40C4F2020086424FDC40F270407D
:1025C000C4F20200864255D040F288404EE04020DE
:1025D000C4F2020086421DD0582017E040F240406D
:1025E000C4F20200864215D040F258400EE0A0200E
:1025F000C4F2020086420DD0B82007E040F2B84095
:10260000C4F20200864205D040F2A040C4F20200AB
:10261000864243D126686FF0080130680840306078
:10262000216C00297FF407AF01B0BDE8F0834020A2
:10263000C4F2020086421DD0582017E040F240400C
:10264000C4F20200864215D040F258400EE0A020AD
:10265000C4F2020086420DD0B82007E040F2B84034
:10266000C4F20200864205D040F2A040C4F202004B
:10267000864216D126686FF0140130680840306039
:10268000002084F83400012084F83500E16B002933
:102690007FF4D1AEC8E76FF00E026BE76FF0040174
:1026A000BBE76FF00A01E8E72DE9F04381B004468B
:1026B00000F0D2FD002C00F0758140F26F48054615
:1026C0002068C4F20208404515DC9F21C4F20201D3
:1026D00088422BDC5721C4F20201884251DC1021D0
:1026E000C4F2020188427AD02821C4F20201884251
:1026F00075D040216EE045F22F41C5F602018842B7
:1027000027DC40F2B741C4F20201884245DC40F2C6
:102710007041C4F20201884261D040F28841C4F2A3
:10272000020188425BD040F2A04153E040F22741D1
:10273000C4F2020188423FDCA021C4F202018842B7
:102740004DD0B821C4F20201884248D040F2104175
:1027500040E045F26B41C5F60201884200F39080EB
:1027600045F23041C5F60201884200F09C8045F2F6
:102770004441C5F60201884200F0958045F2584177
:102780008CE05821C4F20201884228D07021C4F2A2
:102790000201884223D088211CE040F2B841C4F2F3
:1027A000020188421BD045F20841C5F60201884269
:1027B00079D045F21C4171E040F22841C4F2020197
:1027C00088420CD040F24041C4F20201884206D057
:1027D00040F25841C4F20201884240F0138240F2B4
:1027E0000F420021C4F2020284F8341090424FF0EC
:1027F000020184F8351012DC6F21C4F20201884214
:1028000020DC3F21C4F20201884200F392801021B3
:10281000C4F20201884200F0B1802821A8E04045BE
:102820001EDC40F23F41C4F20201884200F388807E
:1028300040F21041C4F20201884200F09F8040F251
:10284000284195E09F21C4F20201884200F3818073
:102850007021C4F20201884200F09080882187E054
:1028600040F29F41C4F20201884279DC40F270419B
:10287000C4F20201884200F0818040F2884177E092
:1028800045F26C41C5F6020188420CD045F2804108
:10289000C5F60201884206D045F29441C5F6020110
:1028A000884240F0AF8104F1080E002084F8340023
:1028B000022084F835009EE80640A1F180032068DC
:1028C000B3FA83F340294FEA5313D4E90579D4E9E5
:1028D000076C05684FEA83336FF3101508BF1023A8
:1028E00045EAD2014AF6F8321943CAF2FD7241EACA
:1028F000DE014CF6CD4341EAD701024441EAD90159
:10290000CCF6CC4341EAD601A2FB032341EA1C11D9
:1029100001606FF0030000EA9300E0652046FDF7D8
:10292000C3FFE16D012201F01F0102FA01F14160D4
:102930009CE04021C4F2020188421FD0582117E0D8
:1029400040F24041C4F20201884217D040F258419F
:102950000EE0A021C4F2020188420FD0B82107E0A6
:1029600040F2B841C4F20201884207D040F2A041CF
:10297000C4F20201884208BF206800E020680168B4
:1029800021F00101016000BF27683868C0070DD041
:1029900000F062FC401B0628F6D32020606503206F
:1029A00084F83500012001B0BDE8F08348F23F0112
:1029B00004F108053868CFF6106108402ECD0843B1
:1029C000A1691043E2691843236A0543606A2943F9
:1029D000042841EA020141EA030103D1D4E90B23AF
:1029E0001143194341F20002C5F600421268B2F1E8
:1029F000005F17D36268A2F12903202B06D23F257E
:102A0000CCF2C03525FA03F3DB0706D1A2F14F0360
:102A10000022042B38BF012200E00122002A18BF47
:102A200041F4801139600428796921F0070141EAF5
:102A3000000510D1D4E90A1045EA010558B1204635
:102A4000FEF792F838B140206065012084F8350027
:102A500001B0BDE8F08320467D61FDF725FFE16D03
:102A60003F2201F01F0102FA01F181602068404518
:102A700019DC9F21C4F20201884231DC5721C4F2E3
:102A80000201884256DC1021C4F20201884200F0A3
:102A900091802821C4F20201884200F08B804021FD
:102AA000C4F2020184E045F22F41C5F602018842DA
:102AB0002BDC40F2B741C4F20201884248DC40F20C
:102AC0007041C4F20201884274D040F28841C4F2DD
:102AD000020188426ED040F2A041C4F2020167E0D8
:102AE00040F22741C4F20201884240DCA021C4F236
:102AF000020188425ED0B821C4F20201884259D056
:102B000040F21041C4F2020152E045F26B41C5F6B9
:102B1000020188423CDC45F23041C5F602018842A0
:102B200048D045F24441C5F60201884242D045F200
:102B300058413BE05821C4F2020188423AD070214A
:102B4000C4F20201884235D08821C4F202012FE08C
:102B500040F2B841C4F2020188422BD045F208414C
:102B6000C5F60201884225D045F21C411EE040F224
:102B70002841C4F2020188421CD040F24041C4F214
:102B80000201884216D040F25841C4F202010FE01F
:102B900045F26C41C5F6020188420BD045F29441E2
:102BA000C5F60201884205D045F28041C5F6020112
:102BB00088421FD12046FDF707FFA068802801D179
:102BC0000020606004F160036068C7B201380ECB7A
:102BD00007280F60536009D82046FDF76DFF04F108
:102BE0006C02002307CA03604A6003E00020C4E9C6
:102BF0001B00606700206065012184F8351001B07A
:102C0000BDE8F0834020C9E6F0B581B0A8B3044622
:102C100090F83400012802D1022001B0F0BD01205B
:102C200084F8340094F83500012820D1022084F87B
:102C300035000020606540F20F462068C4F20206AD
:102C400040F26F47B042C4F2020719DC6F25C4F2AC
:102C50000205A84225DC3F25C4F20205A8423BDC60
:102C60001025C4F20205A8425BD0282553E00020BD
:102C700084F834004FF400606065012001B0F0BDBD
:102C8000B8421ADC40F23F45C4F20205A8422ADCF1
:102C900040F21045C4F20205A84242D040F2284555
:102CA00039E09F25C4F20205A84225DC7025C4F254
:102CB0000205A84235D088252DE040F29F45C4F298
:102CC0000205A8421FDC40F27045C4F20205A8428A
:102CD00027D040F288451EE04025C4F20205A842F4
:102CE0001FD0582517E040F24045C4F20205A84223
:102CF00017D040F258450EE0A025C4F20205A842C4
:102D00000FD0B82507E040F2B845C4F20205A8424A
:102D100007D040F2A045C4F20205A84208BF2068CF
:102D200000E02068056825F0010505602046FDF7F4
:102D300043FF2068B04210DC6F21C4F202018842D8
:102D40001CDC3F21C4F20201884232DC1021C4F2B3
:102D50000201884251D028214AE0B8421ADC40F2F0
:102D60003F41C4F2020188422ADC40F21041C4F221
:102D70000201884241D040F2284139E09F21C4F24B
:102D80000201884225DC7021C4F20201884234D05D
:102D900088212DE040F29F41C4F2020188421FDCED
:102DA00040F27041C4F20201884226D040F28841CC
:102DB0001EE04021C4F2020188421ED0582117E0D3
:102DC00040F24041C4F20201884216D040F258411C
:102DD0000EE0A021C4F2020188420ED0B82107E023
:102DE00040F2B841C4F20201884206D040F2A0414C
:102DF000C4F20201884240F0298121680B25226C2F
:102E00000B6865F344030B601AB10A6842F00802CC
:102E10000A60B84219DC9F21C4F20201884231DC09
:102E20005721C4F20201884256DC1021C4F202018B
:102E3000884200F091802821C4F20201884200F00B
:102E40008B804021C4F2020184E045F22F41C5F697
:102E5000020188422BDC40F2B741C4F202018842F1
:102E600048DC40F27041C4F20201884274D040F262
:102E70008841C4F2020188426ED040F2A041C4F2FF
:102E8000020167E040F22741C4F20201884240DCBF
:102E9000A021C4F2020188425ED0B821C4F202012E
:102EA000884259D040F21041C4F2020152E045F28A
:102EB0006B41C5F6020188423CDC45F23041C5F663
:102EC0000201884248D045F24441C5F602018842D9
:102ED00042D045F258413BE05821C4F202018842F9
:102EE0003AD07021C4F20201884235D08821C4F260
:102EF00002012FE040F2B841C4F2020188422BD017
:102F000045F20841C5F60201884225D045F21C4130
:102F10001EE040F22841C4F2020188421CD040F277
:102F20004041C4F20201884216D040F25841C4F236
:102F300002010FE045F26C41C5F6020188420BD058
:102F400045F29441C5F60201884205D045F2804120
:102F5000C5F60201884272D1216E0A68D20303D5F8
:102F60000A6842F480720A60E16E19B10A6842F49C
:102F700080720A60B04210DC6F21C4F20201884204
:102F80001CDC3F21C4F20201884232DC1021C4F271
:102F90000201884252D028214AE0B8421ADC40F2AD
:102FA0003F41C4F2020188422ADC40F21041C4F2DF
:102FB0000201884242D040F2284139E09F21C4F208
:102FC0000201884225DC7021C4F20201884235D01A
:102FD00088212DE040F29F41C4F2020188421FDCAB
:102FE00040F27041C4F20201884227D040F2884189
:102FF0001EE04021C4F2020188421FD0582117E090
:1030000040F24041C4F20201884217D040F25841D8
:103010000EE0A021C4F2020188420FD0B82107E0DF
:1030200040F2B841C4F20201884207D040F2A04108
:10303000C4F20201884208BF206800E020680168ED
:1030400041F001010160002001B0F0BD21680525BB
:10305000226C0B68002A65F343030B603FF4D9AE82
:103060000A6842F00402D3E6B0B5044600F0F4F872
:1030700040F214010546C2F20041621C097818BFF3
:103080000C4400BF00F0E8F8401BA042FAD3B0BDEA
:103090002DE9F04F83B00E68002E00F0C98000F1DA
:1030A00026420A2302F1FF7240F2040C4FEAB222D8
:1030B000019242F20042C5F6000CC5F602024FF042
:1030C000010B90424FF0000508BF092300274FF085
:1030D000010800930AE000BF0E68043736FA08F2D0
:1030E00008F1010805F1020500F0A280A8F1010A2B
:1030F0000BFA0AF216EA0209EED04E68122E17D821
:103100000BFA06F414F0061F12D00323D0F808E0DF
:10311000AB40CC682EEA0303AC4023438360C6F384
:103120000014436823EA020204FA0AF31A434260D5
:103130000323C268AB4046F010046FEA030E9A43C3
:103140008B68122C03FA05F342EA0302C26012D123
:103150006FF0030207F01C0402EA5A020F26024431
:10316000A640136AD1F810B0B3430BFA04F44FF041
:10317000010B2343136202684B6803F0030402EA65
:103180000E02AC40DB0042EA04020260A4D544F225
:10319000F443C5F602031A6842F002021A601A6884
:1031A00007F00C0302F002020292029A2AF00302D4
:1031B00040F2084A019C009EC5F6000A092C38BF5F
:1031C00026460F2452F80AE09C402EEA040406FA30
:1031D00003F3234342F80A30DCF87C204B6842EAD0
:1031E0000906DC0358BF22EA09069C034FF0B04EE3
:1031F000CCF87C60DCF8802042EA090658BF22EA5D
:103200000906DC02CCF88060DEF8002042EA0906FC
:1032100058BF22EA09069B02CEF80060DCF80020C5
:1032200042EA090658BF22EA0906CCF8006053E7D3
:1032300003B0BDE8F08F0000002A08BF09048161D7
:10324000704700000000000041F20000C5F6004099
:103250000068000C7047000040F21830C2F20040D5
:10326000006870470000000040F2140040F218317E
:10327000C2F20040C2F2004100780A6810440860BF
:10328000704700000000000080B5032000F080F8C7
:1032900001F0AEF944F2184147F24243C5F602018B
:1032A000C0F602030A68096801F00F01C2F30322A5
:1032B000595C9A5C01F01F0102F01F02D04040F2FD
:1032C0000402C2F2004220FA01F1116040F2000152
:1032D000C2F200410860002000F00AF800281CBF7C
:1032E000012080BD00F030F8002080BD000000000B
:1032F000B0B540F21401C2F20041097801B30446AE
:1033000040F20000C2F200404FF47A72B2FBF1F1D9
:103310000068B0FBF1F002F003F90F2C4FF001054B
:103320000CD858B94FF0FF3000222146002500F09C
:103330001FF840F21800C2F2004004602846B0BDF9
:103340000120B0BD0000000081B044F2F440C5F699
:103350000200016841F002010160006800F0020013
:103360000090009801B0704780B503F0C9FF80BDA0
:1033700070B514460D46064603F0D2FF2946224694
:1033800002F0EAFD0146304603F0D2FF70BD0000B6
:1033900080B503F0E1FF80BDB0B544F60C05C5F67D
:1033A000020529684907296805D401F00701081AB0
:1033B00018BF0120B0BD21F0070108432860FFF7C6
:1033C0004BFF044655F8080C800407D4FFF744FF70
:1033D000001BB0F57A7FF5D90120B0BD0020B0BD4B
:1033E00080B501F0DDF844F2204147F24242C5F6D3
:1033F0000201C0F602020968C1F30211515C01F03A
:103400001F01C84080BD000080B544F2304EC5F6B3
:10341000020E5EF8083C5EF8081CC1F3051C5EF85D
:10342000041CBCF1000FDEF8042014D0C2F3CC025F
:1034300001F00101514300EE101A03F003010229CB
:10344000B8EE400A0CD071B95EF8301C89060DD474
:103450009FED341A18E00021C0E90011816080BDA1
:103460009FED2F1A10E09FED2D1A0DE05EF8301C35
:1034700049F20002C0F2D032C1F3C10122FA01F1D7
:1034800001EE101AB8EE411ADEF800109FED263A50
:103490006FF35F2102EE101ADEF80010C1F346212F
:1034A000B8EE422A00EE032A00EE10CAB7EE003A48
:1034B000B8EE400A81EE000A32EE031A02EE101A4C
:1034C000B8EE422A20EE010A32EE031A80EE011A0B
:1034D000BCEEC11A80ED001ADEF80010C1F30641FF
:1034E00001EE101AB8EE411A31EE031A80EE011AFD
:1034F000BCEEC11A80ED011ADEF80010C1F30661BE
:1035000001EE101AB8EE411A31EE031A80EE010AEC
:10351000BCEEC00A10EE101A816080BD0024744A0F
:1035200020BCBE4B0024744C000000390000000099
:1035300080B544F2384EC5F6020E5EF8103C5EF8D7
:10354000101CC1F3053C5EF80C1CBCF1000FDEF84A
:10355000042014D0C1F30011C2F3CC02514300EE99
:10356000101A03F003010229B8EE400A0CD071B919
:103570005EF8381C89060DD49FED341A18E000213E
:10358000C0E90011816080BD9FED2F1A10E09FED12
:103590002D1A0DE05EF8381C49F20002C0F2D0325C
:1035A000C1F3C10122FA01F101EE101AB8EE411A7D
:1035B000DEF800109FED263A6FF35F2102EE101A3D
:1035C000DEF80010C1F34621B8EE422A00EE032ACD
:1035D00000EE10CAB7EE003AB8EE400A81EE000ADB
:1035E00032EE031A02EE101AB8EE422A20EE010A59
:1035F00032EE031A80EE011ABCEEC11A80ED001AF9
:10360000DEF80010C1F3064101EE101AB8EE411ABF
:1036100031EE031A80EE011ABCEEC11A80ED011AD8
:10362000DEF80010C1F3066101EE101AB8EE411A7F
:1036300031EE031A80EE010ABCEEC00A10EE101A39
:10364000816080BD0024744A20BCBE4B0024744CB1
:10365000000000390000000080B544F2404EC5F67D
:10366000020E5EF8183C5EF8181CC1F3055C5EF8AB
:10367000141CBCF1000FDEF8042014D0C1F30021AB
:10368000C2F3CC02514300EE101A03F003010229E9
:10369000B8EE400A0CD071B95EF8401C89060DD412
:1036A0009FED341A18E00021C0E90011816080BD4F
:1036B0009FED2F1A10E09FED2D1A0DE05EF8401CD3
:1036C00049F20002C0F2D032C1F3C10122FA01F185
:1036D00001EE101AB8EE411ADEF800109FED263AFE
:1036E0006FF35F2102EE101ADEF80010C1F34621DD
:1036F000B8EE422A00EE032A00EE10CAB7EE003AF6
:10370000B8EE400A81EE000A32EE031A02EE101AF9
:10371000B8EE422A20EE010A32EE031A80EE011AB8
:10372000BCEEC11A80ED001ADEF80010C1F30641AC
:1037300001EE101AB8EE411A31EE031A80EE011AAA
:10374000BCEEC11A80ED011ADEF80010C1F306616B
:1037500001EE101AB8EE411A31EE031A80EE010A9A
:10376000BCEEC00A10EE101A816080BD0024744ABD
:1037700020BCBE4B0024744C000000390000000047
:1037800080B584B00146B0F5805F4FF000002DDABF
:10379000B1F5806F4FDAB1F5807F00F08C80B1F524
:1037A000007F40F0238144F24C41C5F60201486895
:1037B000C0F38212042A00F2098148F20000C0F22C
:1037C000BB00DFE812F0D300C800D90013010500E8
:1037D000086810F0405000F00281B0F1005F00F086
:1037E000F880B0F1805F00F0DB80EFE0B1F5803F62
:1037F00048DAB1F5805F00F07F80B1F5804F40F08E
:10380000F58044F24C40C5F60200C068C0F3027176
:10381000052900F2EA8049F20000C0F2D030DFE86A
:1038200011F00600E700EB00E500BF00D800FFF74D
:10383000D7FD04B080BD00F07C80B1F5006F40F092
:10384000D58044F24C41C5F60201C868C0F302625B
:10385000042A00F2BB8048F20000C0F2BB00DFE89F
:1038600002F0857A8BC50300086810F0405000F024
:10387000B680B0F1005F00F0AC80B0F1805F00F086
:103880008F80A3E000F06B80B1F5002F40F0AE8098
:1038900044F24C41C5F60201C86800F44030B0F56E
:1038A000003F00F07380B0F5803F00F07F8000287B
:1038B00040F08C804FE044F24C41C5F6020148686C
:1038C00000F00702042A00F2818048F20000C0F2F2
:1038D000BB00DFE802F04B40518B0300086810F09A
:1038E000405000F07C80B0F1005F00F07280B0F1D9
:1038F000805F40F06B8053E044F24C41C5F602011A
:103900004868C0F30232042A60D848F20000C0F2CE
:10391000BB00DFE802F02B20316B0300086810F0D9
:1039200040505CD0B0F1005F53D0B0F1805F37D031
:103930004CE044F24C41C5F60201C868C0F3425263
:10394000042A43D848F20000C0F2BB00DFE802F0CE
:103950000E03144E340001A8FFF7EAFD0FE044F215
:103960004C40C5F602000068C0030BD401A8FFF765
:103970004BFD029804B080BD01A8FFF76DFE0198D1
:1039800004B080BD01A8FFF7D3FD12E0086810F075
:10399000405024D0B0F1005F1BD0B0F1805F15D152
:1039A00040F60010C0F23D0004B080BD01A8FFF752
:1039B00053FE039804B080BD086810F040500ED04C
:1039C000B0F1005F05D0B0F1805FE9D0002004B015
:1039D00080BD47F64000C0F27D1004B080BD49F2C2
:1039E0000000C0F2D03004B080BD002004B080BD23
:1039F00001A8FFF79DFDBCE701A8FFF72DFEB8E782
:103A00002DE9F04381B00446C07844F22C49000708
:103A1000C5F6020901D400262DE0606E4FEA305051
:103A200003280DD80026DFE800F0020E1613D9F89F
:103A30000000002640F40030C9F800004EB912E042
:103A4000012636B90FE0201D022102F0A9FA064630
:103A50004EB1B04611E004F12400022102F030FB27
:103A60000646002EF5D1D9F82400616E20F44010EE
:103A70000843C9F824004FF000086078C0072FD031
:103A8000606D042807D8DFE800F00A131B03030069
:103A9000F6B1B04624E00126002EFAD118E0D9F89C
:103AA000000040F40030C9F80000002EF1D10FE012
:103AB000201D002102F074FA0646002EE9D107E02D
:103AC00004F12400002102F0FBFA0646002EE0D1AA
:103AD000D9F82400616D20F007000843C9F82400DC
:103AE0006078800731D5A06D4FEAB010042807D860
:103AF000DFE800F00A131B030300F6B1B04624E030
:103B00000126002EFAD118E0D9F8000040F4003068
:103B1000C9F80000002EF1D10FE0201D002102F0B5
:103B20003FFA0646002EE9D107E004F12400002107
:103B300002F0C6FA0646002EE0D1D9F82400A16DA5
:103B400020F4E0700843C9F824006078400733D5BA
:103B5000D4F8A4004FEA7050042807D8DFE800F03A
:103B60000A131B030300F6B1B04625E00126002E20
:103B7000FAD118E0D9F8000040F40030C9F800008C
:103B8000002EF1D10FE0201D002102F009FA0646B7
:103B9000002EE9D107E004F12400002102F090FAA0
:103BA0000646002EE0D1D9F82C00D4F8A41020F459
:103BB00060000843C9F82C006078000733D5D4F8BA
:103BC000A8004FEA3060042807D8DFE800F00A13A5
:103BD0001B030300F6B1B04625E00126002EFAD102
:103BE00018E0D9F8000040F40030C9F80000002EB9
:103BF000F1D10FE0201D002102F0D2F90646002E7F
:103C0000E9D107E004F12400002102F059FA064648
:103C1000002EE0D1D9F82C00D4F8A81020F0E060F4
:103C20000843C9F82C00E078800727D5A06C4FEA3C
:103C30003010032806D8DFE800F002091202AEB106
:103C4000B0461BE00126002EFAD10FE0D9F80000A3
:103C500040F40030C9F80000002EF1D106E0201D2C
:103C6000022102F09DF90646002EE9D1D9F8200084
:103C7000A16C20F030000843C9F820006078C0062D
:103C800031D5E06D4FEA3030042807D8DFE800F086
:103C90000A131B030300F6B1B04624E00126002EF0
:103CA000FAD118E0D9F8000040F40030C9F800005B
:103CB000002EF1D10FE0201D002102F071F906461F
:103CC000002EE9D107E004F12400002102F0F8F908
:103CD0000646002EE0D1D9F82400E16D20F4E04042
:103CE0000843C9F824006078800625D5206E4FEA85
:103CF0003040052807D8DFE800F0030A0F0303036C
:103D000096B1B04618E00126002EFAD10CE0201D35
:103D1000012102F045F904E004F12400012102F040
:103D2000CFF90646002EECD1D9F82400216E20F4FC
:103D3000E0200843C9F824006078400627D5D4F86D
:103D4000AC004FEA3070052807D8DFE800F0030A1E
:103D50000F03030396B1B04619E00126002EFAD1F5
:103D60000CE0201D012102F01BF904E004F1240005
:103D7000012102F0A5F90646002EECD1D9F82C005D
:103D8000D4F8AC1020F0E0400843C9F82C0060786B
:103D900000061FD5E06ED0B1B0F1005F12D0B0F1D7
:103DA000805F24D1D9F8000040F40030C9F8000049
:103DB0007EB9D9F82400E16E20F040500843C9F8DC
:103DC000240007E0201D012102F0EAF80646002E3B
:103DD000EFD0B046E078C00729D0606C03280AD83D
:103DE000DFE800F0020D1602CEB1B0461FE001265A
:103DF000002EEED1DDE70126002EF6D10FE0D9F836
:103E0000000040F40030C9F80000002EEDD106E0BB
:103E1000201D022102F0C4F80646002EE5D1D9F893
:103E20002000616C20F003000843C9F82000A0784E
:103E3000400643D5D9F8D40340F48070C9F8D403C0
:103E4000FFF70AFA074600BFD9F8D403C00505D426
:103E5000FFF702FAC01B6528F6D303266EBBD9F81C
:103E60004410D4F8B000414011F4407F11D0D9F88B
:103E70004410D9F8442042F48032C9F84420D9F8DB
:103E8000442021F4407122F48032C9F84420C9F85A
:103E90004410B0F5807F0FD1FFF7DEF9074641F2FD
:103EA000893500BFD9F84400800705D4FFF7D4F95D
:103EB000C01BA842F6D3032686B1B0462078C007BF
:103EC00041D0A06F4FEAF000052823D8DFE800F0CA
:103ED00003262B03030376B3B04634E04FF6CF73CB
:103EE000D4F8B00059F81C2CC0F2FF0300F4407164
:103EF00022F47C5203EA1013B1F5407F08BF1A4345
:103F00006FF31F3049F81C2CD9F844100843C9F846
:103F10004400D3E70126002EDED10CE0201D012154
:103F200002F03EF804E004F12400012102F0C8F898
:103F30000646002ED0D1D9F82800A16F20F0380015
:103F40000843C9F828002078800723D5606F05282A
:103F500007D8DFE800F0030A0F03030396B1B04669
:103F600018E00126002EFAD10CE0201D012102F0FC
:103F700017F804E004F12400012102F0A1F806463C
:103F8000002EECD1D9F82800616F20F0070008431B
:103F9000C9F828002078400725D5D4F890000528D6
:103FA00007D8DFE800F0030A0F03030396B1B04619
:103FB00019E00126002EFAD10CE0201D012101F0AC
:103FC000EFFF04E004F12400012102F079F8064635
:103FD000002EECD1D9F82C00D4F8901020F0070076
:103FE0000843C9F82C002078800627D5D4F88C0027
:103FF0004FEA3070052807D8DFE800F0030A0F0306
:10400000030396B1B04619E00126002EFAD10CE068
:10401000201D002101F0C4FF04E004F1240002216E
:1040200002F04EF80646002EECD1D9F82800D4F85C
:104030008C1020F0E0400843C9F8280020784006A2
:1040400027D5D4F898004FEAB020052807D8DFE834
:1040500000F0030A0F03030396B1B04619E00126EE
:10406000002EFAD10CE0201D002101F099FF04E0A0
:1040700004F12400022102F023F80646002EECD1C0
:10408000D9F82C00D4F8981020F4E0500843C9F86F
:104090002C002078000627D5D4F89C004FEA703019
:1040A000052807D8DFE800F0030A0F03030396B1E1
:1040B000B04619E00126002EFAD10CE0201D0021A7
:1040C00001F06EFF04E004F12400022101F0F8FF8A
:1040D0000646002EECD1D9F82C00D4F89C1020F420
:1040E00060400843C9F82C002078000716D5D4F8A2
:1040F0008000B0F5805F08D104F12400022101F0B6
:10410000DFFF002818BF4FF00108D9F82800D4F8C5
:10411000801020F440500843C9F828002078C006D9
:1041200016D5D4F89400B0F5807F08D104F12400AE
:10413000022101F0C5FF002818BF4FF00108D9F88F
:104140002C00D4F8941020F440700843C9F82C00D7
:10415000A078000721D5D4F8A000B0F5003F19D011
:10416000B0F5803F10D0C0BB201D002101F018FF2A
:1041700006468EB9D9F82C00D4F8A01020F44030AF
:104180000843C9F82C0008E004F12400022101F0E2
:1041900097FF0646002EEDD0B046A078400729D5FF
:1041A000D4F88400B0F5401F21D0B0F5001F18D01E
:1041B000B0F5801F40F0B480D9F8000040F4003022
:1041C000C9F80000AEB9D9F82800D4F8841020F45A
:1041D00040100843C9F828000CE00126002EDBD16E
:1041E000C8E704F12400012101F06AFF0646002E11
:1041F000E9D0B046A078C0071FD0E06CB0F5803F92
:1042000010D0B0B9D9F8000040F40030C9F800006F
:1042100096B9D9F82000E16C20F480300843C9F841
:1042200020000AE0201D022101F0BAFE06461EB958
:10423000EFE70126002EECD0B046E078800608D5E6
:1042400004F12400022101F03BFF002818BF4FF0C9
:1042500001082068810313D4C10229D4C10031D4DC
:1042600081023AD4410042D4B0F1FF3F4FDDB8F1B2
:10427000000F18BF4FF00108404601B0BDE8F083C1
:10428000E16F6FF0010202EB3122022A0AD34FEAFA
:1042900031223AB1012A48D1D9F8002042F4003243
:1042A000C9F80020002E43D04FF00108C102D5D537
:1042B000D9F82410226F21F000411143C9F82410CD
:1042C000C100CDD559F81C1CD4F8B42021F480418C
:1042D000114349F81C1C8102C4D5D9F82410A26EE0
:1042E00021F080711143C9F824104100BCD559F860
:1042F0001C1C21F4004149F81C1CD4F8B81059F8D2
:104300001C2C114349F81C1CB0F1FF3FAFDCD9F85D
:104310002000216D20F040500843C9F82000A6E796
:104320000126002E7FF465AF4DE70126002EBBD19C
:10433000D9F8282022F440721143C9F82810C1028C
:104340007FF58CAFB4E700002DE9F04381B0002881
:1043500000F0F48042F200080446C5F200288946C5
:10436000D8F8000000F00F0088420ED2D8F8000004
:1043700020F00F0040EA0900C8F80000D8F800005B
:1043800000F00F00484540F0D980206844F21847FB
:104390004107C5F602070AD521693A6802F07002A2
:1043A000914204D93A6822F0700211433960010742
:1043B0000AD561697A6802F07002914204D97A687C
:1043C00022F0700211437960C1060AD5A1697A68AA
:1043D00002F4E062914204D97A6822F4E062114367
:1043E000796081060AD5E169BA6802F070029142EB
:1043F00004D9BA6822F070021143B96081070AD566
:10440000E1683A6802F00F02914204D93A6822F05A
:104410000F0211433960C0077ED1206881070AD599
:10442000E1683A6802F00F02914204D23A6822F041
:104430000F0211433960D8F8001001F00F0149450F
:104440000DD9D8F8001021F00F0141EA0901C8F890
:104450000010D8F8001001F00F0149456ED1410756
:104460000AD521693A6802F07002914204D23A6892
:1044700022F070021143396001070AD561697A6838
:1044800002F07002914204D27A6822F07002114365
:104490007960C1060AD5A1697A6802F4E0629142A6
:1044A00004D27A6822F4E0621143796080060AD56A
:1044B000E069B96801F07001884204D2B96821F05E
:1044C00070010843B86000F093F8396847F242423F
:1044D000C0F602023B68C1F3032103F00F03515CF5
:1044E000D25C01F01F01C84002F01F0140F204023B
:1044F00020FA01F1C2F20042116040F2000140F2E4
:104500001802C2F20041C2F2004208601068FEF7D1
:10451000EFFE01B0BDE8F083386820F47061D4E9A3
:104520000102012841EA020139600BD003282BD097
:1045300002282ED157F8181C890307D4012001B096
:10454000BDE8F08357F8181CC905F7D557F8081CC3
:1045500021F00701084347F8080CFEF77DFE0646E8
:1045600041F2883557F8080C616800F03800B0EB6C
:10457000C10F3FF452AFFEF76FFE801BA842F1D986
:10458000032001B0BDE8F08357F8181C8901D5D588
:10459000DCE757F8181C4907D0D5D7E70000000022
:1045A00080B500F025F844F2184147F24243C5F6C1
:1045B0000201C0F602030A68096801F00F01C2F3A4
:1045C0000322595C9A5C02F01F0220FA02F201F009
:1045D0001F0040F2040122FA00F0C2F2004108601C
:1045E00040F20001C2F200410A6080BD00000000FC
:1045F00044F20041C5F602010869C0F3C200032875
:104600000FD002282AD070BB0868800649F200004B
:10461000C0F2D03058BF70470968C1F3C101C8402B
:1046200070478A6A886AC0F3051CC86ABCF1000F2B
:104630004B6B1DD0C3F3CC0300F00100584302F0D4
:104640000302022A00EE100AB8EE400A12D0A2B904
:104650000868800614D49FED261A1EE047F6400035
:10466000C0F27D10704740F60010C0F23D00704768
:10467000002070479FED1D1A0FE09FED1B1A0CE004
:10468000086849F20002C0F2D032C0F3C10022FA39
:1046900000F001EE100AB8EE411A086B9FED153AD2
:1046A0006FF35F2002EE100A086BC0F34620B8EEED
:1046B000422A013000EE032A00EE10CAB7EE003A9B
:1046C000B8EE400A81EE000A32EE031A20EE010A2B
:1046D00001EE100AB8EE411A80EE010ABCEEC00AE3
:1046E00010EE100A704700BF0024744A20BCBE4B75
:1046F0000024744C000000392DE9F04381B0F8B17A
:104700008046007844F20049C007C5F602095AD035
:10471000D9F8100000F03801D9F82800102905D088
:1047200018290FD100F0030002280BD1D9F800009E
:10473000800344D5D8F80400002840D101272FE099
:1047400001271BE2D8F804402CB1B4F5A02F0DD0FE
:10475000B4F5803F10D0D9F8000020F48030C9F8BB
:104760000000D9F8000020F4802009E0D9F800000A
:1047700040F48020C9F80000D9F8000040F48030EF
:10478000C9F80000FEF768FD0546A4B1D9F800009D
:10479000800314D4FEF760FD401B6428F6D903277C
:1047A0000020002800F0EA810DE000BFFEF754FD74
:1047B000401B6428F3D8D9F800008003F6D4012008
:1047C000002800F0DB8198F8000080076BD5D9F84D
:1047D000100010F03801D9F828001CD0182908BFA3
:1047E0005FEA807017D0D8F80C00D9F8001098B3A1
:1047F00021F019010843C9F80000FEF72DFD054618
:10480000D9F8000040070DD4FEF726FD401B022812
:10481000F6D9032743E0D9F80000400702D5D8F8BD
:104820000C00D8B3FEF710FD41F2030188420AD80C
:10483000D8F81000D9F80410402821F47C3124D194
:1048400041F4003023E0D9F80400D8F8101020F02B
:10485000FE4040EA01601AE021F00100C9F80000C2
:10486000FEF7FAFC05460126D9F8000010F0040016
:1048700086EA90040ED0FEF7EFFC401B0328F3D32A
:104880000327002C00F07A810DE041EA0030C9F8DE
:1048900004000124002C00F0718104E001270024B1
:1048A000002C00F06B8198F80000C00675D5D9F88F
:1048B000100000F03801D9F82800082905D018297F
:1048C0001CD100F00300012818D1D9F80000C00560
:1048D00003D5D8F81C0080285AD1FEF7B5FC41F268
:1048E0000301884223D8D8F82000D9F804102028E2
:1048F00021F0F84143D141F0804042E0D8F81C005B
:104900000028D9F8000021D040F08000C9F800004C
:10491000FEF7A2FC054600BFD9F80000C005DCD4B4
:10492000FEF79AFC401B0228F6D9032731E0D9F89C
:104930000C00D8F8201020F07C50012440EA0160DF
:10494000C9F80C00002C00F0198126E020F080004E
:10495000C9F80000FEF780FC05460126D9F80000E2
:1049600010F4807086EA10240ED0FEF775FC401B10
:104970000328F3D30327002C00F000810DE041EA67
:104980008060C9F804000124002C00F0F78004E0E6
:1049900001270024002C00F0F18098F800000007A7
:1049A0001CD498F80000800631D498F80000400725
:1049B00045D4D8F82440002C00F0DF80D9F810004E
:1049C00000F03800182840F08880012CD9F8281011
:1049D000D9F8300040F0A2800127CFE0D8F81400C9
:1049E0000028D9F874003ED040F00100C9F87400E6
:1049F000FEF732FC054600BFD9F874008007D0D41A
:104A0000FEF72AFC401B0228F6D90327B6E0D8F8A7
:104A100018000028D9F800004BD040F48050C9F8A5
:104A20000000FEF719FC0546D9F800008004BCD44C
:104A3000FEF712FC401B0228F6D903279EE0D9F8A6
:104A4000000440F48070C9F80004FEF705FC054638
:104A5000D9F80004C0051AD4FEF7FEFB401B6428F9
:104A6000F6D903278AE020F00100C9F87400FEF7A8
:104A7000F3FB0546032700BFD9F8740080077FF5D4
:104A800090AFFEF7E9FB401B0228F5D976E0D8F895
:104A900008401CB1052C75D0012C79D0D9F87000D4
:104AA00020F00100C9F87000D9F8700020F004006F
:104AB00072E020F48050C9F80000FEF7CDFB0546F7
:104AC000032700BFD9F8000080047FF56EAFFEF722
:104AD000C3FB401B0228F5D950E0D9F8000020F0B4
:104AE0008070C9F80000FEF7B7FB022C05464FF0B6
:104AF000030709D1D9F8000080016FD5FEF7ACFBA0
:104B0000401B0228F6D939E0D9F80000800134D5DD
:104B1000FEF7A2FB401B0228F6D92FE001F00302AA
:104B2000D8F828309A4240F0D380C1F30511D8F864
:104B30002C20914240F0CE800146D8F830206FF30F
:104B40005F21013A914240F0C780C0F34622D8F875
:104B5000341001398A4240F0C180C0F30642D8F8CF
:104B6000381001398A4240F0BB80C0F30660D8F8A3
:104B70003C100139884240F0B5800027F8B201B0FE
:104B8000BDE8F083D9F8700040F00400C9F8700067
:104B9000D9F8700040F00100C9F87000FEF75CFB26
:104BA000002C054641F288344FF0030711D000BFB6
:104BB000D9F8700080073FF5FCAEFEF74DFB401BB7
:104BC000A042F5D9DAE700BFFEF746FB401BA04242
:104BD000D4D8D9F870008007F6D4EAE608F128079F
:104BE000D9F8280040F2F33188438ECF0843591E8C
:104BF00040EA02104FF47E426FF35F21C9F82800AB
:104C000002EB47204FF4FE0280B2D8F83C30084453
:104C1000D8F8381002EB01414FF0FE4201F4FE01DA
:104C200002EB0362084402F0FE410844C9F8300078
:104C3000D9F82C004FF6F87120F00100C9F82C00CB
:104C4000D9F83400D8F84820884340EAC200C9F8AF
:104C50003400D9F82C00D8F8401020F00C0008439C
:104C6000C9F82C00D9F82C00D8F8441020F0020024
:104C70000843C9F82C00D9F82C0040F48030C9F85A
:104C80002C00D9F82C0040F40030C9F82C00D9F8D9
:104C90002C0040F48020C9F82C00D9F82C0040F0FA
:104CA0000100C9F82C00D9F8000040F08070C9F864
:104CB0000000FEF7D1FA04460327D9F8000080016E
:104CC0003FF55BAFFEF7C8FA001B0228F5D955E7A0
:104CD000012753E7012751E701274FE701274DE758
:104CE00001274BE7012749E770470000000000005B
:104CF0002DE9F047066804463769D6F814A00AEA99
:104D00000705D6F8089005F0640094F8818004281F
:104D100007D1616F20468847216F204688470120D0
:104D200000E0002005F04501012903D1216F204654
:104D30008847012005F02601022903D1616F204632
:104D40008847012008B1BDE8F08728070BD4380751
:104D500063D51AF4006060D02068816941F4006175
:104D60008161BDE8F087206819F4404F816941F006
:104D700008018161816941F010018161816941F41B
:104D800000618161016921F0080101610ED0B8F173
:104D9000040F06D0A16FC96941B1B8F1030F00F04B
:104DA000C080E16FC969002940F0AC80806810F4D0
:104DB000404F1CD0204601F01BFA012084F88100EE
:104DC000D4F88400002800F09D802046FFF78CFF77
:104DD000BDE8F0872068616E006B08600420616E9A
:104DE00008446066B4F86A000138A4F86A00B4F8B0
:104DF0006A000028DED0E0681028EBD2082805D32E
:104E0000308E616E08800220E9E700BF206890F8CC
:104E10003000616E08700120E1E715F4587F92D0F0
:104E200015F040000AD02068D4F8841041F0040145
:104E3000C4F88410816941F040018161A8050AD558
:104E40002068D4F8841041F00101C4F8841081690D
:104E500041F400718161E80505F020000AD5216860
:104E6000D4F8842042F00802C4F884208A6942F40D
:104E700080728A6150B12068D4F8841041F08001BA
:104E8000C4F88410816941F020018161D4F8840064
:104E900000283FF458AF206809F4404240F26B33D9
:104EA000B2F5404F016821F001010160016921EA7A
:104EB000030101613FD1816846F2A92521F44041F7
:104EC0008160E06FC0F6020548B10565FCF7C0FCE3
:104ED00028B1D4F8840040F04000C4F88400A06FEA
:104EE00000283FF430AF0565FCF7B2FC002808BF8E
:104EF000BDE8F087D4F8840040F04000C4F8840096
:104F0000BDE8F087B8F1030F0BD0B8F1040F0DD056
:104F1000B8F1050F7FF417AF204600F0FDFABDE8A9
:104F2000F087204600F0F0FABDE8F087204600F058
:104F30000BF9BDE8F087012084F8810045E7000007
:104F40002DE9F041002800F09880044643F6000661
:104F5000C4F2000643F20007256843F60048B54254
:104F6000C4F20107C4F200084FF00000A06203D0B1
:104F7000454518BFBD427CD1204601F0DDF9B54260
:104F800018BFBD4269D1102877D894F8810028B99C
:104F9000002084F88000204600F072F8022084F897
:104FA00081002068A2690168B2F1806F21F00101DF
:104FB000016009D16168B1F5800F05D1A16B19B904
:104FC000016841F480510160E169A36A1943E36B10
:104FD0000B43D4E90365D4E9011733438360636B62
:104FE000666A42EA0302A36B42EA060242EA03024D
:104FF000636942EA0502266A42EA0302E36C42EA76
:105000000602A66C42EA010242EA0302A36D42EAEA
:10501000070242EA060242EA0302C26049B9826814
:10502000012363F3CC2282608268022363F34A2265
:105030008260026D490222F00101016505D5C16857
:10504000626D21F000411143C1600020C4F884006A
:10505000012184F88110BDE8F081454518BF08287A
:105060000BD8B54218BFBD428DD045453FF48BAF3C
:105070008BE7E0680F287FF67FAF0120BDE8F08165
:1050800070B586B0002643F60001CDE904660446FB
:105090000068C4F20001039688420296019601D08E
:1050A00006B070BD44F2E040C5F60200816841F4EC
:1050B00080418160816801F480410091009901681C
:1050C00041F002010160006801A900F002000090B7
:1050D00000984FF4144001900220CDE9020603200D
:1050E00004900520059040F20040C5F60200FDF74F
:1050F000CFFF40F230151020C2F20045C4F202008A
:105100002860282068604020C5E902064FF48060CE
:10511000C5E90406C5E906664FF44030C5E908064E
:105120002846FDF7C1FA08B1FBF7C2FE2420002192
:105130000022A567AC63FEF71BF92420FEF714F9E3
:1051400006B070BD000000007047000000000000C5
:105150002DE9F047044690F88000012802D1022092
:10516000BDE8F0871D4617460E46D4F80090012092
:1051700084F88000FEF770F894F88110012909D1B5
:10518000002E18BF002F0BD1002084F880000120D2
:10519000BDE8F087002084F880000220BDE8F08799
:1051A0008046032084F881000020C4F88400E6656E
:1051B000A4F86070A4F862706066A4F86800A4F8AF
:1051C0006A00A1682067B1F5C02F606704D120682C
:1051D000016841F400610160D4E900014FF6FF73FA
:1051E000B1F5800F426822EA03023A444260026845
:1051F00042F00101016003D1016841F400710160D6
:10520000E168102932D3B4F86200002800F0A980C8
:105210006E1C0EE0E16D51F8042B0262E165B4F8FA
:1052200062000138A4F86200B4F86200002800F0BF
:105230009880206841698907ECD4FEF70DF8002EAC
:10524000F2D0A0EB0800A842EED3204600F0D0FF39
:10525000002084F88000D4F8840040F48070C4F802
:105260008400012084F88100BDE8F087B4F8620072
:10527000072933D9002874D04FF6FE706E1C471CE6
:1052800011E0E06D39460088A9F820000220E26DA7
:105290001044E065B4F862000844A4F86200B4F871
:1052A000620000285DD020684169890708D4FDF7B5
:1052B000D3FF002EF3D0A0EB0800A842EFD3C4E741
:1052C000B4F862100229DCD3E16B0029D9D0E16D7A
:1052D0000968016204204FF6FE71D8E7002840D02B
:1052E0004FF6FE706E1CA0F1020A471C10E0E16D43
:1052F000097880F8201001203946E26D1044E065FD
:10530000B4F862000844A4F86200B4F8620040B344
:1053100020684169890708D4FDF79EFF002EF4D06C
:10532000A0EB0800A842F0D38FE7B4F8621004297C
:1053300008D3E16B412905D3E16D096801620420BE
:105340005146DAE7B4F862100229D0D3E16B0029A4
:10535000CDD0E06D4FF6FE710088A9F82000022044
:10536000CBE7204641462A4600F0F2FF28B1D4F8A8
:10537000840040F02000C4F88400204600F038FF8C
:10538000002084F88000012084F88100D4F8840093
:10539000002818BF0120BDE8F087000000000000D1
:1053A000B0B5044690F88000012801D10220B0BDBC
:1053B000012084F8800094F8810001283BD1002965
:1053C0003ED01546E2B3032084F881000020C4F8E3
:1053D0008400E165A4F86050A4F862506066C4E9F6
:1053E0001C00A4F86800A4F86A00A068B0F5C02FFB
:1053F00004D12068016841F400610160E068102870
:1054000004D3A16F8969B1F5804F19D1082807D35A
:10541000A16F8969B1F5005F18BFB1F5804F0FD159
:10542000072812D8A06F8069B0F5804F19D0B0F569
:10543000005F11D01BE0002084F880000220B0BD86
:10544000002084F880000120B0BD0F280FD8A06F85
:105450008069B0F5804F0AD1B4F86200013040088D
:1054600003E0B4F8620003308008A4F86200A06F83
:1054700046F2093146F2F922C0F60201C0F60202F4
:10548000C0E90F1246F2C9212268C0F60201C164C8
:1054900000210165E16D936823F400439360B4F843
:1054A00062302032FDF7B0FB48B1D4F8840040F000
:1054B0001000C4F88400012084F88100B0BDA16F01
:1054C0004FF6FF72D4E9000CC9694368B1F5807FDB
:1054D00023EA020218BF2A44BCF5800F42608168AB
:1054E00041F400418160016941F448710161016842
:1054F00041F00101016003D1016841F400710160D4
:10550000002084F88000B0BD70470000000000005B
:10551000704700000000000070470000000000001D
:1055200080B500F031FF80BD704700000000000032
:1055300070470000000000007047000000000000FD
:10554000B0B590F83C20012A4FF0020251D001235F
:1055500080F83C3080F83D2040F2004C0268C4F2F4
:10556000010C42F4806363455368D2F808E002BF3F
:1055700023F470034C68234340F6FF340D68C4F2F3
:10558000000423F07003A24243EA050353600EDDDA
:105590004FF6FF73C4F200039A4218DC40F6004352
:1055A000C4F200039A4219D041F600030AE0B2F1B6
:1055B000804F13D040F20043C4F200039A420DD052
:1055C00040F60003C4F200039A4207D00BE06245A4
:1055D00004D00023C4F201039A4204D12EF08003C8
:1055E0008968194391600022012180F83D1080F8FC
:1055F0003C201046B0BD000060B310B5044690F8E2
:105600003D0028B9002084F83C00204600F024F832
:10561000022084F83D002068211D00F0C1FF012018
:1056200084F8480084F83E0084F83F0084F8400085
:1056300084F8410084F8420084F8430084F8440070
:1056400084F8450084F8460084F8470084F83D005B
:10565000002010BD0120704780B584B040F20041A9
:105660000068C4F20001884219D044F60001C4F277
:105670000101884225D00021C4F20101884235D1C0
:1056800044F2F040C5F60200016841F001010160FA
:10569000006800F001000390039804B080BD44F25C
:1056A000F040C5F6020050F8081C41F0020140F835
:1056B000081C50F8080C00F002000290029804B098
:1056C00080BD44F2F0400022C5F60200016841F4BA
:1056D000802101600068022100F48020019001987F
:1056E0007620FDF745FE7620FDF73EFE04B080BD36
:1056F00090F83D10012913D1022180F83D10016876
:105700000722C0F20102C86840F00100C860886842
:1057100002400020062A18BFB2F5803F02D1704730
:1057200001207047086840F00100086000207047C1
:1057300010B5044690F83C0001284FF0020008BF65
:1057400010BD0B46012184F83C10882284F83D00EE
:10575000CFF6CE72206881681140816019686F2988
:105760000EDC2F2919DD4F2927DC302959D040299B
:1057700059D15968DA6800F0CBFF2068402150E029
:10578000B1F1101F10DB2F22C0F2100291421FDC7A
:10579000B1F1101F45D0202220E0002918BF1029A8
:1057A0003FD020293DD03EE070291ED0B1F5005FEA
:1057B00026D0B1F5801F34D035E050292BD0602998
:1057C00031D15968DA6800F0B7FF2068602128E01D
:1057D0003022C0F21002914223D04022C0F21002C7
:1057E000914208BF00F088FF1DE0D3E90121DB688A
:1057F00000F076FF2068816841F07701816012E057
:10580000D3E90121DB6800F06BFF2068816841F477
:105810008041816007E05968DA6800F079FF20680C
:10582000502100F069FF012084F83D00002084F839
:105830003C0010BD000000007047000000000000A8
:1058400010B5044600680169890744BFC1685FEA72
:10585000817140D420680169490744BFC1685FEA8B
:10586000417144D420680169090744BFC1685FEAF7
:10587000017149D420680169C90644BFC1685FEA63
:10588000C1614DD420680169C9071CBFC1685FEAC6
:10589000C17152D120680169090644BFC1685FEA3D
:1058A000016151D420680169C90544BFC1685FEA3C
:1058B000016150D420680169490644BFC1685FEAAC
:1058C00041614FD420680169890644BFC1685FEA1D
:1058D00081614ED410BD6FF0020101610121217779
:1058E000806980074CD02046FFF7A6FF4EE06FF09E
:1058F0000401016102212177806910F4407F48D0C2
:105900002046FFF799FF4AE06FF00801016104218A
:105910002177C069800745D02046FFF78DFF47E01B
:105920006FF01001016108212177C06910F4407FF8
:1059300041D02046FFF780FF43E06FF00101016195
:10594000204600F049F8A5E76FF08001016120468C
:10595000FFF7EEFDA6E76FF4807101612046FFF7C7
:10596000E3FDA7E76FF040010161204600F038F841
:10597000A8E76FF0200101612046FFF7DDFD10BDB3
:10598000204600F021F8204600F022F80020207781
:1059900060E7204600F018F8204600F019F80020D3
:1059A00020775FE7204600F00FF8204600F010F85F
:1059B000002020775EE7204600F006F8204600F041
:1059C00007F8002020775DE7704700000000000026
:1059D0007047000000000000704700000000000059
:1059E0007047000000000000FEE70000000000001B
:1059F00080B500F0D1FE80BD80B501F039FA80BDE0
:105A000080B501F051FC80BD80B501F0DDF980BDAD
:105A100080B501F08DFB80BD80B501F079FA80BDC5
:105A200080B501F09DFB80BD4FF6C0728168C5F660
:105A3000FF721140816070474FF6C0728168C6F6F0
:105A4000FF72114001F18051816070470000000039
:105A5000806800F0E0707047806800F44040704754
:105A6000806800F01F0070478068C0F3C000704776
:105A7000C06C00F4C070B0FA80F0400970470000BC
:105A80008068C0F340707047806800F00100704784
:105A9000806800F0010070478068C0F300707047B4
:105AA0008068C0F3800070478068C0F38000704752
:105AB000C06800F44060B0FA80F040097047000010
:105AC00080B5C1F3012301F01F01C2F384624FF0DE
:105AD0001F0C00EB83000CFA01F3D0F830E002FA5F
