:020000040800F2
:100000001808002441030008614600083144000834
:100010005946000879060008194E00080000000043
:10002000000000000000000000000000614A00081D
:10003000B90C000800000000A9460008994A000811
:100040005B0300085B0300085B0300085B03000818
:100050005B0300085B0300085B0300085B03000808
:100060005B0300085B0300085B03000881060008CF
:100070005B0300085B0300085B0300085B030008E8
:100080005B0300085B0300085B0300085B030008D8
:100090005B0300085B0300085B0300085B030008C8
:1000A0005B0300085B0300085B0300085B030008B8
:1000B0005B0300085B0300085B0300085B030008A8
:1000C0005B0300085B0300085B0300085B03000898
:1000D000F14800085B0300085B0300085B030008AD
:1000E0005B0300085B030008000000005B030008DE
:1000F0005B0300085B0300085B0300085B03000868
:100100005B0300085B0300085B0300085B03000857
:100110005B0300085B0300085B0300085B03000847
:100120005B0300085B0300085B0300085B03000837
:100130005B0300085B0300085B0300085B03000827
:1001400000000000000000000000000000000000AF
:100150005B0300085B0300085B0300085B03000807
:100160005B0300085B0300085B0300085B030008F7
:100170005B0300085B0300085B030008000000004D
:100180005B0300085B0300085B0300085B030008D7
:100190005B0300085B0300085B0300085B030008C7
:1001A0005B0300085B0300085B0300085B030008B7
:1001B0005B0300085B0300085B0300085B030008A7
:1001C0005B0300085B0300085B0300085B03000897
:1001D0005B0300085B0300085B0300085B03000887
:1001E0005B0300085B0300085B0300085B03000877
:1001F0005B0300085B0300085B0300085B03000867
:100200005B0300085B0300085B0300085B03000856
:100210005B0300085B030008494C00085B0300080F
:100220005B0300085B0300085B030008000000009C
:100230005B0300085B030008000000005B0300088C
:100240005B0300085B0300085B0300085B03000816
:100250005B0300085B0300085B0300085B03000806
:100260005B0300085B0300085B0300085B030008F6
:100270005B0300085B0300085B030008000000004C
:100280005B0300085B0300085B030008000000003C
:10029000000000005B03000800F002F800F040F8E6
:1002A0000AA090E8000C82448344AAF10107DA45D1
:1002B00001D100F035F8AFF2090EBAE80F0013F0E3
:1002C000010F18BFFB1A43F00103184780510000CB
:1002D000A0510000103A24BF78C878C1FAD852075C
:1002E00024BF30C830C144BF04680C6070470000B0
:1002F0000023002400250026103A28BF78C1FBD82F
:10030000520728BF30C148BF0B6070471FB505F0CA
:1003100088F89DE8030000F0D5F81FBD10B510BDAA
:1003200000F00BF91146FFF7F1FF05F05DF800F062
:1003300043F903B4FFF7F2FF03BC00F0A1F800009B
:100340000948804709480047FEE7FEE7FEE7FEE769
:10035000FEE7FEE7FEE7FEE7FEE7FEE704480549A5
:10036000054A064B70470000694B000899020008D7
:10037000180200241808002418040024180400247B
:100380004FF0000200B5134694469646203922BF2E
:10039000A0E80C50A0E80C50B1F12001BFF4F7AF79
:1003A000090728BFA0E80C5048BF0CC05DF804EB5B
:1003B000890028BF40F8042B08BF704748BF20F8C9
:1003C000022B11F0804F18BF00F8012B70477047C7
:1003D0007047704770B5064600F058F8056806F19A
:1003E0000B0020F00704B4429CBF002070BD2B46D8
:1003F0006A68BAB11068A04210D304F108018842BB
:100400003CBF5068586007D35168101941601168AB
:10041000091B016058601460101D70BD13465268BE
:10042000002AE7D12146284600F038F80028DED11E
:1004300070BD70B50446051F00F028F80068002C58
:1004400014BF446870BD002C18BFAC423CBF2046AE
:100450006468F8D301680A18AA4218BF456003D13E
:100460002A6805461144016028684119A1421CBF51
:100470006C6070BD6168696021680844286070BD67
:1004800001491820ABBEFEE7260002000048704775
:1004900018000024704770477047704738B504460D
:1004A0000A4600206946AFF30080002808BF38BD27
:1004B00002460099204600F065F8012038BD012071
:1004C00000F088B8F8B5AFF30080054600200C4670
:1004D000102000BF0646A819A0420DD93246694631
:1004E0000020AFF30080070008BF00F073F8009809
:1004F000A04218BF0546C419FFF7C8FF05600746AC
:10050000F01D20F007004619284600F00AF8B44212
:1005100008BFF8BDA21B31463868BDE8F84000F0BE
:1005200031B800210160C0E9011070471020704708
:10053000004870471000002470477546FFF7F8FF29
:10054000AE4605006946534620F00700854618B0C0
:1005500020B5FFF703FFBDE820404FF000064FF045
:1005600000074FF000084FF0000BAC46ACE8C009A4
:10057000ACE8C009ACE8C009ACE8C00921F007014B
:100580008D467047034640688C46002818BF884255
:100590003CBF03464068F8D318681844884207D027
:1005A0000CF1030020F00700001D411A521A014609
:1005B000081D0A60FFF73DBF10B50446AFF3008089
:1005C0002046BDE81040FFF7B4BE002801D0FFF779
:1005D00057BF704710B500F01DF8BDE81040FFF799
:1005E000F4BF70B505460C460A2000E06D1C00F013
:1005F00039F835B128780028F8D102E0641C00F001
:1006000031F814B120780028F8D1BDE870400A20F4
:1006100000F028B810B5012805D0002103A0FFF78D
:10062000E0FF012010BD09A1F8E70000534947523F
:10063000544D454D3A204F7574206F6620686561B2
:1006400070206D656D6F7279000000003A2048657A
:100650006170206D656D6F727920636F7272757055
:100660007465640008B569468DF800000320ABBED0
:1006700008BD000000000000FEE7000000000000D0
:1006800080B540F27800C2F2004000F079FC80BDF5
:10069000B7210268C4F202018A424FF0010113DD62
:1006A00040F25743C4F202039A421EDC40F2274351
:1006B000C4F202039A4233DCB823C4F202039A4222
:1006C0004AD040F2104343E05723C4F202039A4257
:1006D0001ADD8723C4F202039A422ADC5823C4F2AB
:1006E00002039A4238D0702332E040F28743C4F2CA
:1006F00002039A4224DC40F25843C4F202039A42B5
:100700002AD040F2704323E01023C4F202039A423D
:1007100022D02823C4F202039A421DD0402317E0BE
:1007200040F22843C4F202039A4215D040F24043FB
:100730000EE08823C4F202039A420DD0A02307E002
:1007400040F28843C4F202039A4205D040F2A0432B
:10075000C4F202039A421FD10029016817D06FF03A
:100760000F024AF6AB2352FA81FCCAF6AA23ACFB6D
:1007700003320EA3BCF15F0FC2F302129A5C40F287
:10078000FF3321EA0301C26588BF043101E021F093
:10079000FF018165084670474FF64831CBF6FD7181
:1007A0001144B1FA81F14909D6E700BF00061016DD
:1007B000000610160000000010B545F24342016823
:1007C000C5F6020291424FF001020EDD45F26B4385
:1007D000C5F60203994217DC45F24443C5F602030D
:1007E000994225D045F2584316E045F20843C5F634
:1007F000020399421CD045F21C43C5F602039942FC
:1008000016D045F2304307E045F26C43C5F60203CB
:1008100099420DD045F28043C5F60203994207D0B4
:1008200045F29442C5F602028A1AB2FA82F25209DD
:1008300003788AB14CF6CD42A3F10801CCF6CC4244
:10084000A1FB021245F29441C5F60201120901F51D
:100850005B7301F57B711FE0A3F110024AF6AB2335
:10086000CAF6AA234FF0080EA2FB032340F20F4260
:10087000C4F202024FEA131C914202F1AA0462463A
:1008800088BF0EEB131240F60003A142C4F202032C
:1008900003F1800128BF624603EB820302F01F02CE
:1008A00003660123416603FA02F1816610BD000070
:1008B00080B50179A1F1010EBEF1070F88BF80BD9F
:1008C00045F243420368C5F602024FF0010C934221
:1008D0000EDD45F26B42C5F60202934217DC45F28B
:1008E0004442C5F60202934226D045F2584216E031
:1008F00045F20842C5F6020293421DD045F21C4261
:10090000C5F60202934217D045F2304207E045F2A5
:100910006C42C5F6020293420ED045F28042C5F603
:100920000202934208D04AF66C32CAF2FD721A44AF
:10093000B2FA82F24FEA521C40F60012BCF1000FEC
:10094000C4F2020245F6001102F14003C5F60201AD
:100950001CBF45F60012C5F6020218BF01F14003A4
:1009600002EB8E01C1660121036701FA0EF14167B6
:1009700080BD000000000000816959B1B1F5005F41
:10098000816A0FD103290BD8DFE801F002110215AB
:1009900001207047816A022909D001290BD031B1A9
:1009A0000020704703293CBF01207047F8D1C06A7E
:1009B000C0F300607047C06AA0F1C070B0FA80F068
:1009C000400970470000000070B540F26F44D0F855
:1009D00000E0C4F20204D0F858C0A64519DC9F25F7
:1009E000C4F20205AE4531DC5725C4F20205AE451E
:1009F00056DC1025C4F20205AE4500F09280282591
:100A0000C4F20205AE4500F08C804025C4F2020518
:100A100084E045F22F45C5F60205AE452BDC40F2D9
:100A2000B745C4F20205AE4548DC40F27045C4F259
:100A30000205AE4575D040F28845C4F20205AE45C8
:100A40006FD040F2A045C4F2020567E040F22745AE
:100A5000C4F20205AE4540DCA025C4F20205AE4555
:100A60005FD0B825C4F20205AE455AD040F2104519
:100A7000C4F2020552E045F26B45C5F60205AE45EB
:100A80003CDC45F23045C5F60205AE4549D045F29D
:100A90004445C5F60205AE4543D045F258453BE016
:100AA0005825C4F20205AE453BD07025C4F20205BC
:100AB000AE4536D08825C4F202052FE040F2B84595
:100AC000C4F20205AE452CD045F20845C5F6020534
:100AD000AE4526D045F21C451EE040F22845C4F242
:100AE0000205AE451DD040F24045C4F20205AE45B8
:100AF00017D040F25845C4F202050FE045F26C45AC
:100B0000C5F60205AE450CD045F29445C5F6020582
:100B1000AE4506D045F28045C5F60205AE4540F02B
:100B2000C980456EC66E002E866E6E601CBFD0E911
:100B30001C566E60A64515DC9F24C4F20204A6452F
:100B40002BDC5724C4F20204A6454EDC1024C4F268
:100B50000204A64576D02824C4F20204A64571D02A
:100B600040246BE045F22F44C5F60204A64527DC7D
:100B700040F2B744C4F20204A64542DC40F270449D
:100B8000C4F20204A6455DD040F28844C4F20204D7
:100B9000A64557D040F2A04450E040F22744C4F2AA
:100BA0000204A6453CDCA024C4F20204A64549D0B8
:100BB000B824C4F20204A64544D040F210443DE0FB
:100BC00045F26B44C5F60204A6454FDC45F23044BD
:100BD000C5F60204A6455BD045F24444C5F60204BE
:100BE000A64555D045F258444EE05824C4F20204BC
:100BF000A64527D07024C4F20204A64522D088243A
:100C00001CE040F2B844C4F20204A6451AD045F2F2
:100C10000844C5F60204A6453AD045F21C4433E028
:100C200040F22844C4F20204A6450BD040F24044EE
:100C3000C4F20204A64505D040F25844C4F20204AE
:100C4000A64537D104683F258668C06D00F01F00B7
:100C5000402E05FA00F0CCF80800206820F480202F
:100C60002060636021D0A160E26070BD45F26C44F9
:100C7000C5F60204A6450BD045F28044C5F6020431
:100C8000A64505D045F29444C5F60204A64511D107
:100C90000468C66D806806F01F060125402805FA25
:100CA00006F6CCF80460636002D1A260E16070BD1A
:100CB000A160E26070BD000070470000000000000D
:100CC000704700000000000080B5D8B190F83510E2
:100CD000022919D140F20F420168C4F20202914286
:100CE00016DC6F23C4F20203994226DC3F23C4F2D0
:100CF000020399423CDC1023C4F2020399425AD009
:100D0000282354E0012080BD80214165012080BD61
:100D100040F26F43C4F2020399421ADC40F23F43AF
:100D2000C4F2020399422ADC40F21043C4F20203E7
:100D3000994240D040F2284339E09F23C4F2020395
:100D4000994225DC7023C4F20203994233D08823F0
:100D50002DE040F29F43C4F2020399421FDC40F2AF
:100D60007043C4F20203994225D040F288431EE04A
:100D70004023C4F2020399421DD0582317E040F2E9
:100D80004043C4F20203994215D040F258430EE0AA
:100D9000A023C4F2020399420DD0B82307E040F229
:100DA000B843C4F20203994205D040F2A043C4F212
:100DB0000203994270D191424FF0040280F835202D
:100DC00010DC6F22C4F20202914220DC3F22C4F206
:100DD0000202914236DC1022C4F20202914254D047
:100DE00028224EE040F26F42C4F2020291421ADC25
:100DF00040F23F42C4F2020291422ADC40F2104229
:100E0000C4F20202914240D040F2284239E09F22CF
:100E1000C4F20202914225DC7022C4F20202914225
:100E200033D088222DE040F29F42C4F20202914268
:100E30001FDC40F27042C4F20202914225D040F21F
:100E400088421EE04022C4F2020291421DD0582284
:100E500017E040F24042C4F20202914215D040F243
:100E600058420EE0A022C4F2020291420DD0B822F4
:100E700007E040F2B842C4F20202914205D040F2CB
:100E8000A042C4F20202914224D10068016821F01C
:100E900001010160002080BD0268136823F00E0389
:100EA000136045F25742C5F6020291420A6822F0E9
:100EB00001020A6014DC45F22F42C5F6020291429B
:100EC0001DDC45F20842C5F6020291422CD045F2E3
:100ED0001C4225E0086820F001000860002080BD69
:100EE00045F27F42C5F60202914211DC45F25842BA
:100EF000C5F60202914217D045F26C4210E045F26D
:100F00003042C5F6020291420ED045F2444207E05B
:100F100045F29442C5F60202914205D045F2804264
:100F2000C5F6020291421AD1D0E9181CD0E916E3A5
:100F30000A6822F480720A6003F01F01012202FA9B
:100F400001F1CEF80410816ECCF80410C16E31B1FD
:100F50000A6822F480720A60D0E91C124A600021FB
:100F600080F83410012280F83520026D0AB19047D4
:100F70000021084680BD0000406D70470000000061
:100F80002DE9F04381B00021009140F200010446B8
:100F9000C2F2004140F26F49A56DC4F2020908682F
:100FA00048F2B511C1F64E312668A0FB01084E4546
:100FB0002F682A6815DC9F20C4F2020086422BDCD1
:100FC0005720C4F2020086424FDC1020C4F2020017
:100FD000864278D02820C4F20200864273D0402096
:100FE0006CE045F22F40C5F60200864227DC40F255
:100FF000B740C4F20200864243DC40F27040C4F2C3
:10100000020086425FD040F28840C4F2020086426D
:1010100059D040F2A04051E040F22740C4F2020013
:1010200086423DDCA020C4F2020086424BD0B820AC
:10103000C4F20200864246D040F210403EE045F243
:101040006B40C5F60200864274DC45F23040C5F6BE
:101050000200864200F0818045F24440C5F602005D
:1010600086427AD045F2584072E05820C4F202001D
:10107000864228D07020C4F20200864223D0882005
:101080001CE040F2B840C4F2020086421BD045F298
:101090000840C5F6020086425FD045F21C4057E08A
:1010A00040F22840C4F2020086420CD040F2404098
:1010B000C4F20200864206D040F25840C4F2020058
:1010C000864240F0ED84E06D00F01F01082000FA38
:1010D00001F23A4200F0148140F20F40C4F20200E3
:1010E000864213DC6F20C4F20200864200F38E8039
:1010F0003F20C4F20200864200F3CF801020C4F2E9
:101100000200864200F0ED802820E5E04E4500F325
:10111000898040F23F40C4F20200864200F3C4805E
:1011200040F21040C4F20200864200F0DA8040F241
:101130002840D1E045F26C40C5F6020086420CD052
:1011400045F28040C5F60200864206D045F2944042
:10115000C5F60200864240F0A3842068E16D01F0EC
:101160001F010368580727D50420884010EA0207AA
:1011700022D01904686000F18780980600F18C8401
:1011800040F20F40C4F20200864200F3AB836F20AE
:10119000C4F20200864200F3E6833F20C4F202005C
:1011A000864200F350841020C4F20200864200F010
:1011B0006D84282000F066BC980742D50220884044
:1011C00010EA02073DD01904686000F10E8398060A
:1011D00000F1988440F20F40C4F20200864200F30E
:1011E000AF836F20C4F20200864200F311843F20D7
:1011F000C4F20200864200F356841020C4F20200BA
:10120000864200F07384282000F06CBC9F20C4F25A
:101210000200864251DC7020C4F20200864260D097
:10122000882059E040F29F40C4F2020086424BDC25
:1012300040F27040C4F20200864252D040F2884030
:101240004AE0180740F12C8408208840104000F044
:10125000278440F20F40C4F20200864200F32C8340
:101260006F20C4F20200864200F34F833F20C4F295
:101270000200864200F393831020C4F202008642EB
:1012800000F0B1832820A9E3D80300F1B482A16C57
:10129000002940F00C8300F003BC4020C4F202009F
:1012A00086421ED0582017E040F24040C4F20200AF
:1012B000864216D040F258400EE0A020C4F2020050
:1012C00086420ED0B82007E040F2B840C4F20200D7
:1012D000864206D040F2A040C4F20200864240F0AE
:1012E0008E82206804230068184209D020680368B1
:1012F00023F004030360AA60606D40F001006065A4
:10130000012000FA01F23A4270D040F20F40C4F2DC
:101310000200864210DC6F20C4F2020086421CDC10
:101320003F20C4F20200864232DC1020C4F20200E8
:10133000864251D028204AE04E451ADC40F23F4018
:10134000C4F2020086422ADC40F21040C4F20200DD
:10135000864241D040F2284039E09F20C4F202008A
:10136000864225DC7020C4F20200864234D08820F8
:101370002DE040F29F40C4F2020086421FDC40F2A2
:101380007040C4F20200864226D040F288401EE03F
:101390004020C4F2020086421ED0582017E040F2DE
:1013A0004040C4F20200864216D040F258400EE09F
:1013B000A020C4F2020086420ED0B82007E040F21E
:1013C000B840C4F20200864206D040F2A040C4F207
:1013D0000200864240F016822068406900F08000DA
:1013E00020B1AA60606D40F002006065042000FA40
:1013F00001F23A4270D040F20F40C4F2020086423D
:1014000010DC6F20C4F2020086421CDC3F20C4F2D4
:101410000200864232DC1020C4F20200864251D023
:1014200028204AE04E451ADC40F23F40C4F2020058
:1014300086422ADC40F21040C4F20200864241D0CB
:1014400040F2284039E09F20C4F20200864225DCA9
:101450007020C4F20200864234D088202DE040F291
:101460009F40C4F2020086421FDC40F27040C4F28A
:101470000200864226D040F288401EE04020C4F29E
:10148000020086421ED0582017E040F24040C4F2CD
:101490000200864216D040F258400EE0A020C4F26E
:1014A000020086420ED0B82007E040F2B840C4F2F5
:1014B0000200864206D040F2A040C4F202008642FA
:1014C00040F0A6812068006800F0020020B1AA6008
:1014D000606D40F004006065102000FA01F13942AF
:1014E0007ED040F20F40C4F20200864210DC6F2032
:1014F000C4F2020086421CDC3F20C4F20200864295
:1015000032DC1020C4F20200864251D028204AE08A
:101510004E451ADC40F23F40C4F2020086422ADC0B
:1015200040F21040C4F20200864241D040F228400E
:1015300039E09F20C4F20200864225DC7020C4F20C
:101540000200864234D088202DE040F29F40C4F251
:10155000020086421FDC40F27040C4F20200864264
:1015600026D040F288401EE04020C4F202008642AD
:101570001ED0582017E040F24040C4F202008642DC
:1015800016D040F258400EE0A020C4F2020086427D
:101590000ED0B82007E040F2B840C4F20200864204
:1015A00006D040F2A040C4F20200864240F03681EC
:1015B000266808223068104212D0A96020680168AD
:1015C0004903016806D4C90506D4016821F0080161
:1015D000016001E008034FD4216C09B1204688471F
:1015E000E06D202100F01F008140394200F0AE8004
:1015F00040F20F432268C4F202039A4210DC6F23C8
:10160000C4F202039A421CDC3F23C4F202039A4252
:1016100036DC1023C4F202039A4255D028234EE050
:101620004A451ADC40F23F43C4F202039A422EDCE0
:1016300040F21043C4F202039A4245D040F22843DC
:101640003DE09F23C4F202039A4229DC7023C4F2D6
:1016500002039A4238D0882331E040F29F43C4F21B
:1016600002039A4223DC40F27043C4F202039A421E
:101670002AD040F2884322E0A16C0029AED1AFE726
:101680004023C4F202039A421ED0582317E040F2CE
:101690004043C4F202039A4216D040F258430EE08F
:1016A000A023C4F202039A420ED0B82307E040F20E
:1016B000B843C4F202039A4206D040F2A043C4F2F7
:1016C00002039A4240F0AC802268102312681A424A
:1016D0003CD0A96094F835202168042A0A681DD1FD
:1016E00022F016020A604A6922F080024A61226CE6
:1016F0000AB9A26C1AB10A6822F008020A603F21F6
:1017000001FA00F0A860002084F83400012084F879
:101710003500216D002940F0CA80C1E150030868FE
:101720000CD4C0050ED4086820F01000086000201A
:1017300084F83400012084F8350003E0000301D46C
:10174000616C00E0E16B09B120468847606D0028BC
:1017500000F0A681606DC00700F0A580042084F829
:10176000350040F20F412068C4F20201884210DCCB
:101770006F21C4F2020188421CDC3F21C4F2020145
:1017800088424FDC1021C4F2020188426FD0282128
:1017900067E048451ADC40F23F41C4F2020188424A
:1017A00047DC40F21041C4F2020188425FD040F2AF
:1017B000284156E09F21C4F20201884242DC702198
:1017C000C4F20201884252D088214AE040F29F418F
:1017D000C4F2020188423CDC40F27041C4F20201D2
:1017E000884244D040F288413BE0D80376D4616C13
:1017F00000295CD154E1216C002958D150E1082323
:10180000304670E53068002000287FF4EAADEDE551
:101810003068002000287FF45AAE5DE60422C9E655
:10182000022353E74021C4F2020188421FD058210D
:1018300017E040F24041C4F20201884217D040F262
:1018400058410EE0A021C4F2020188420FD0B82115
:1018500007E040F2B841C4F20201884207D040F2EA
:10186000A041C4F20201884208BF206800E020685D
:101870004FEA9821026822F00102026000980130CC
:101880000090884203D820680068C007F6D120681D
:10189000002184F834100068C0074FF0030008BF2F
:1018A000012084F83500E16C002900F0F980204621
:1018B000884701B0BDE8F0834E4532DC40F23F403E
:1018C000C4F20200864271DC40F21040C4F2020011
:1018D000864200F0888040F228407FE0E16B0029DA
:1018E000E5D1DDE04E454BDC40F23F40C4F2020062
:1018F000864200F3AF8040F21040C4F202008642FC
:1019000000F0C48040F22840BCE09F20C4F20200F6
:10191000864254DC7020C4F20200864263D08820E4
:101920005CE040F29F40C4F2020086424EDC40F28E
:101930007040C4F20200864255D040F288404DE02B
:101940004E4571DC40F23F40C4F20200864200F393
:10195000B18040F21040C4F20200864200F0C6801E
:1019600040F22840BEE09F20C4F2020086427ADCAA
:101970007020C4F20200864200F08880882081E056
:1019800040F29F40C4F20200864273DC40F2704095
:10199000C4F20200864279D040F2884072E04020D2
:1019A000C4F2020086421ED0582017E040F24040A8
:1019B000C4F20200864216D040F258400EE0A02049
:1019C000C4F2020086420ED0B82007E040F2B840D0
:1019D000C4F20200864206D040F2A040C4F20200E7
:1019E000864240F0948026686FF01C0230681040F8
:1019F0003060012000FA01F169606065002184F81F
:101A0000341084F83500E16C00297FF450AF47E0D2
:101A10009F20C4F20200864255DC7020C4F202000E
:101A2000864263D088205DE040F29F40C4F202000D
:101A300086424FDC40F27040C4F20200864255D02C
:101A400040F288404EE04020C4F2020086421DD0A1
:101A5000582017E040F24040C4F20200864215D000
:101A600040F258400EE0A020C4F2020086420DD0A1
:101A7000B82007E040F2B840C4F20200864205D028
:101A800040F2A040C4F20200864243D126686FF0C3
:101A90000801306808403060216C00297FF407AFEE
:101AA00001B0BDE8F0834020C4F2020086421DD0A0
:101AB000582017E040F24040C4F20200864215D0A0
:101AC00040F258400EE0A020C4F2020086420DD041
:101AD000B82007E040F2B840C4F20200864205D0C8
:101AE00040F2A040C4F20200864216D126686FF090
:101AF0001401306808403060002084F83400012070
:101B000084F83500E16B00297FF4D1AEC8E76FF0AF
:101B10000E026BE76FF00401BBE76FF00A01E8E724
:101B20002DE9F04381B0044600F0DEFD002C00F00A
:101B3000758140F26F4805462068C4F202084045AE
:101B400015DC9F21C4F2020188422BDC5721C4F22C
:101B50000201884251DC1021C4F2020188427AD08D
:101B60002821C4F20201884275D040216EE045F27E
:101B70002F41C5F60201884227DC40F2B741C4F28A
:101B80000201884245DC40F27041C4F20201884201
:101B900061D040F28841C4F2020188425BD040F239
:101BA000A04153E040F22741C4F2020188423FDCE9
:101BB000A021C4F2020188424DD0B821C4F2020132
:101BC000884248D040F2104140E045F26B41C5F6F2
:101BD0000201884200F3908045F23041C5F60201CF
:101BE000884200F09C8045F24441C5F602018842DB
:101BF00000F0958045F258418CE05821C4F2020172
:101C0000884228D07021C4F20201884223D0882162
:101C10001CE040F2B841C4F2020188421BD045F2F8
:101C20000841C5F60201884279D045F21C4171E0B5
:101C300040F22841C4F2020188420CD040F24041F7
:101C4000C4F20201884206D040F25841C4F20201B7
:101C5000884240F0138240F20F420021C4F2020297
:101C600084F8341090424FF0020184F8351012DCF1
:101C70006F21C4F20201884220DC3F21C4F202013C
:101C8000884200F392801021C4F20201884200F0E1
:101C9000B1802821A8E040451EDC40F23F41C4F25B
:101CA0000201884200F3888040F21041C4F2020130
:101CB000884200F09F8040F2284195E09F21C4F2C5
:101CC0000201884200F381807021C4F2020188423F
:101CD00000F09080882187E040F29F41C4F2020129
:101CE000884279DC40F27041C4F20201884200F07F
:101CF000818040F2884177E045F26C41C5F60201EF
:101D000088420CD045F28041C5F60201884206D0D7
:101D100045F29441C5F60201884240F0AF8104F1DA
:101D2000080E002084F83400022084F835009EE874
:101D30000640A1F180032068B3FA83F340294FEAFB
:101D40005313D4E90579D4E9076C05684FEA833366
:101D50006FF3101508BF102345EAD2014AF6F83296
:101D60001943CAF2FD7241EADE014CF6CD4341EA65
:101D7000D701024441EAD901CCF6CC4341EAD6016D
:101D8000A2FB032341EA1C1101606FF0030000EA8B
:101D90009300E0652046FEF77BFCE16D012201F037
:101DA0001F0102FA01F141609CE04021C4F20201EE
:101DB00088421FD0582117E040F24041C4F202018E
:101DC000884217D040F258410EE0A021C4F202012F
:101DD00088420FD0B82107E040F2B841C4F20201B6
:101DE000884207D040F2A041C4F20201884208BFF5
:101DF000206800E02068016821F00101016000BF57
:101E000027683868C0070DD000F06EFC401B06281C
:101E1000F6D320206065032084F83500012001B04E
:101E2000BDE8F08348F23F0104F108053868CFF6B9
:101E3000106108402ECD0843A1691043E2691843A0
:101E4000236A0543606A2943042841EA020141EA02
:101E5000030103D1D4E90B231143194341F20002DA
:101E6000C5F600421268B2F1005F17D36268A2F1B2
:101E70002903202B06D23F25CCF2C03525FA03F3E7
:101E8000DB0706D1A2F14F030022042B38BF012249
:101E900000E00122002A18BF41F4801139600428B3
:101EA000796921F0070141EA000510D1D4E90A104F
:101EB00045EA010558B12046FEF75EFD38B14020E5
:101EC0006065012084F8350001B0BDE8F08320464C
:101ED0007D61FEF7DDFBE16D3F2201F01F0102FA9B
:101EE00001F181602068404519DC9F21C4F20201A4
:101EF000884231DC5721C4F20201884256DC1021AD
:101F0000C4F20201884200F091802821C4F202014B
:101F1000884200F08B804021C4F2020184E045F247
:101F20002F41C5F6020188422BDC40F2B741C4F2D2
:101F30000201884248DC40F27041C4F2020188424A
:101F400074D040F28841C4F2020188426ED040F25F
:101F5000A041C4F2020167E040F22741C4F202014D
:101F6000884240DCA021C4F2020188425ED0B82140
:101F7000C4F20201884259D040F21041C4F2020179
:101F800052E045F26B41C5F6020188423CDC45F265
:101F90003041C5F60201884248D045F24441C5F6B9
:101FA0000201884242D045F258413BE05821C4F238
:101FB000020188423AD07021C4F20201884235D031
:101FC0008821C4F202012FE040F2B841C4F20201BC
:101FD00088422BD045F20841C5F60201884225D03F
:101FE00045F21C411EE040F22841C4F20201884241
:101FF0001CD040F24041C4F20201884216D040F2A7
:102000005841C4F202010FE045F26C41C5F60201ED
:1020100088420BD045F29441C5F60201884205D0B2
:1020200045F28041C5F6020188421FD12046FEF7E5
:10203000C3FBA068802801D10020606004F1600328
:102040006068C7B201380ECB07280F60536009D80B
:102050002046FEF72DFC04F16C02002307CA036042
:102060004A6003E00020C4E91B006067002060654F
:10207000012184F8351001B0BDE8F0834020C9E6A5
:10208000F0B581B0A8B3044690F83400012802D11D
:10209000022001B0F0BD012084F8340094F835002E
:1020A000012820D1022084F835000020606540F22C
:1020B0000F472068C4F2020740F26F45B842C4F2ED
:1020C000020519DC6F26C4F20206B04225DC3F2669
:1020D000C4F20206B0423BDC1026C4F20206B04253
:1020E0005BD0282653E0002084F834004FF40060D1
:1020F0006065012001B0F0BDA8421ADC40F23F4605
:10210000C4F20206B0422ADC40F21046C4F20206D3
:10211000B04242D040F2284639E09F26C4F202067F
:10212000B04225DC7026C4F20206B04235D08826C3
:102130002DE040F29F46C4F20206B0421FDC40F29E
:102140007046C4F20206B04227D040F288461EE034
:102150004026C4F20206B0421FD0582617E040F2D3
:102160004046C4F20206B04217D040F258460EE094
:10217000A026C4F20206B0420FD0B82607E040F213
:10218000B846C4F20206B04207D040F2A046C4F2FC
:102190000206B04208BF206800E02068066826F00A
:1021A000010606602046FEF70FFCB7212068C4F246
:1021B000020188424FF0010113DD40F25742C4F2A0
:1021C000020290421EDC40F22742C4F20202904218
:1021D00033DCB822C4F2020290424BD040F21042EB
:1021E00043E05722C4F2020290421ADD8722C4F271
:1021F000020290422ADC5822C4F20202904239D0F4
:10220000702232E040F28742C4F20202904224DCA3
:1022100040F25842C4F2020290422BD040F2704287
:1022200023E01022C4F20202904223D02822C4F2FA
:10223000020290421ED0402217E040F22842C4F22F
:102240000202904216D040F240420EE08822C4F2D0
:10225000020290420ED0A02207E040F28842C4F26F
:102260000202904206D040F2A042C4F20202904222
:1022700040F03681002901680AD022680B26236CC1
:1022800066F34401116073B1116841F0080109E07F
:1022900022680526236C66F3430111601BB11168A7
:1022A00041F004011160A84219DC9F21C4F202012F
:1022B000884231DC5721C4F20201884256DC1021E9
:1022C000C4F20201884200F091802821C4F2020188
:1022D000884200F08B804021C4F2020184E045F284
:1022E0002F41C5F6020188422BDC40F2B741C4F20F
:1022F0000201884248DC40F27041C4F20201884287
:1023000074D040F28841C4F2020188426ED040F29B
:10231000A041C4F2020167E040F22741C4F2020189
:10232000884240DCA021C4F2020188425ED0B8217C
:10233000C4F20201884259D040F21041C4F20201B5
:1023400052E045F26B41C5F6020188423CDC45F2A1
:102350003041C5F60201884248D045F24441C5F6F5
:102360000201884242D045F258413BE05821C4F274
:10237000020188423AD07021C4F20201884235D06D
:102380008821C4F202012FE040F2B841C4F20201F8
:1023900088422BD045F20841C5F60201884225D07B
:1023A00045F21C411EE040F22841C4F2020188427D
:1023B0001CD040F24041C4F20201884216D040F2E3
:1023C0005841C4F202010FE045F26C41C5F602012A
:1023D00088420BD045F29441C5F60201884205D0EF
:1023E00045F28041C5F60201884272D1216E0A6829
:1023F000D20303D50A6842F480720A60E16E19B113
:102400000A6842F480720A60B84210DC6F21C4F29C
:10241000020188421CDC3F21C4F20201884232DC06
:102420001021C4F20201884252D028214AE0A84279
:102430001ADC40F23F41C4F2020188422ADC40F239
:102440001041C4F20201884242D040F2284139E0F2
:102450009F21C4F20201884225DC7021C4F20201EE
:10246000884235D088212DE040F29F41C4F202011C
:1024700088421FDC40F27041C4F20201884227D03A
:1024800040F288411EE04021C4F2020188421FD080
:10249000582117E040F24041C4F20201884217D0AF
:1024A00040F258410EE0A021C4F2020188420FD050
:1024B000B82107E040F2B841C4F20201884207D0D7
:1024C00040F2A041C4F20201884208BF206800E047
:1024D0002068016841F001010160002001B0F0BDF9
:1024E0004FF64831CBF6FD710144B1FA81F149094B
:1024F000C0E6000000000000B0B5044600F0F4F8AB
:1025000040F208010546C2F20041621C097818BF7A
:102510000C4400BF00F0E8F8401BA042FAD3B0BD65
:102520002DE9F04F83B00E68002E00F0C98000F155
:1025300026420A2302F1FF7240F2040C4FEAB22253
:10254000019242F20042C5F6000CC5F602024FF0BD
:10255000010B90424FF0000508BF092300274FF000
:10256000010800930AE000BF0E68043736FA08F24B
:1025700008F1010805F1020500F0A280A8F1010AA6
:102580000BFA0AF216EA0209EED04E68122E17D89C
:102590000BFA06F414F0061F12D00323D0F808E05B
:1025A000AB40CC682EEA0303AC402343836043680E
:1025B000C6F3001423EA020204FA0AF31A43426043
:1025C0000323C268AB4046F010046FEA030E9A433F
:1025D0008B68122C03FA05F342EA0302C26012D19F
:1025E0006FF0030207F01C0402EA5A020F260244AD
:1025F000A640136AD1F810B0B3430BFA04F44FF0BD
:10260000010B2343136202684B6803F0030402EAE0
:102610000E02AC40DB0042EA04020260A4D544F2A0
:10262000F443C5F602031A6842F002021A601A68FF
:1026300007F00C0302F002020292029A2AF003024F
:1026400040F2084A019C009EC5F6000A092C38BFDA
:1026500026460F2452F80AE09C402EEA040406FAAB
:1026600003F3234342F80A30DCF87C204B6842EA4B
:102670000906DC0358BF22EA09069C034FF0B04E5E
:10268000CCF87C60DCF8802042EA090658BF22EAD8
:102690000906DC02CCF88060DEF8002042EA090678
:1026A00058BF22EA09069B02CEF80060DCF8002041
:1026B00042EA090658BF22EA0906CCF8006053E74F
:1026C00003B0BDE8F08F0000002A08BF0904816153
:1026D000704700000000000041F20000C5F6004015
:1026E0000068000C7047000040F21020C2F2004069
:1026F000006870470000000040F2080040F210211E
:10270000C2F20040C2F2004100780A68104408603A
:10271000704700000000000080B5032000F080F842
:1027200000F072FE44F2184145F23C43C5F6020146
:10273000C0F600030A68C2F30322096801F00F0122
:102740009A5C595C02F01F02D04040F20402C2F2CF
:10275000004201F01F0120FA01F1116040F2000176
:10276000C2F200410860002000F00AF800281CBFF7
:10277000012080BD00F030F8002080BD0000000086
:10278000B0B540F20801C2F20041097801B3044635
:1027900040F20000C2F200404FF47A72B2FBF1F155
:1027A0000068B0FBF1F001F00BFC0F2C4FF00105BD
:1027B0000CD858B94FF0FF3000222146002500F018
:1027C0001FF840F20C00C2F2004004602846B0BD81
:1027D0000120B0BD0000000081B044F2F440C5F615
:1027E0000200016841F002010160006800F002008F
:1027F0000090009801B0704780B502F0B9FD80BD2F
:1028000070B514460D46064602F0C2FD2946224622
:1028100001F02AFF0146304602F0C2FD70BD000003
:1028200080B502F0D1FD80BDB0B544F60C05C5F60B
:10283000020529684907296805D401F00701081A2B
:1028400018BF0120B0BD21F0070108432860FFF741
:102850004BFF044655F8080C800407D4FFF744FFEB
:10286000001BB0F57A7FF5D90120B0BD0020B0BDC6
:102870002DE9F04381B00446C07844F22C490007AA
:10288000C5F6020901D400262DE0606E4FEA3050F3
:1028900003280DD80026DFE800F0020E1613D9F841
:1028A0000000002640F40030C9F800004EB912E0E4
:1028B000012636B90FE0201D022101F0F9FE06467F
:1028C0004EB1B04611E004F12400022101F080FF76
:1028D0000646002EF5D1D9F82400616E20F4401090
:1028E0000843C9F824004FF000086078C0072FD0D3
:1028F000606D042807D8DFE800F00A131B0303000B
:10290000F6B1B04624E00126002EFAD118E0D9F83D
:10291000000040F40030C9F80000002EF1D10FE0B3
:10292000201D002101F0C4FE0646002EE9D107E07B
:1029300004F12400002101F04BFF0646002EE0D1F7
:10294000D9F82400616D20F007000843C9F824007D
:102950006078800731D5A06D4FEAB010042807D801
:10296000DFE800F00A131B030300F6B1B04624E0D1
:102970000126002EFAD118E0D9F8000040F400300A
:10298000C9F80000002EF1D10FE0201D002101F058
:102990008FFE0646002EE9D107E004F12400002155
:1029A00001F016FF0646002EE0D1D9F82400A16DF3
:1029B00020F4E0700843C9F824006078400733D55C
:1029C000D4F8A4004FEA7050042807D8DFE800F0DC
:1029D0000A131B030300F6B1B04625E00126002EC2
:1029E000FAD118E0D9F8000040F40030C9F800002E
:1029F000002EF1D10FE0201D002101F059FE064606
:102A0000002EE9D107E004F12400002101F0E0FEEE
:102A10000646002EE0D1D9F82C00D4F8A41020F4FA
:102A200060000843C9F82C006078000733D5D4F85B
:102A3000A8004FEA3060042807D8DFE800F00A1346
:102A40001B030300F6B1B04625E00126002EFAD1A3
:102A500018E0D9F8000040F40030C9F80000002E5A
:102A6000F1D10FE0201D002101F022FE0646002ECC
:102A7000E9D107E004F12400002101F0A9FE064697
:102A8000002EE0D1D9F82C00D4F8A81020F0E06096
:102A90000843C9F82C00E078800727D5A06C4FEADE
:102AA0003010032806D8DFE800F002091202AEB1A8
:102AB000B0461BE00126002EFAD10FE0D9F8000045
:102AC00040F40030C9F80000002EF1D106E0201DCE
:102AD000022101F0EDFD0646002EE9D1D9F82000D3
:102AE000A16C20F030000843C9F820006078C006CF
:102AF00031D5E06D4FEA3030042807D8DFE800F028
:102B00000A131B030300F6B1B04624E00126002E91
:102B1000FAD118E0D9F8000040F40030C9F80000FC
:102B2000002EF1D10FE0201D002101F0C1FD06466D
:102B3000002EE9D107E004F12400002101F048FE55
:102B40000646002EE0D1D9F82400E16D20F4E040E3
:102B50000843C9F824006078800625D5206E4FEA26
:102B60003040052807D8DFE800F0030A0F0303030D
:102B700096B1B04618E00126002EFAD10CE0201DD7
:102B8000012101F095FD04E004F12400012101F090
:102B90001FFE0646002EECD1D9F82400216E20F449
:102BA000E0200843C9F824006078400627D5D4F80F
:102BB000AC004FEA3070052807D8DFE800F0030AC0
:102BC0000F03030396B1B04619E00126002EFAD197
:102BD0000CE0201D012101F06BFD04E004F1240054
:102BE000012101F0F5FD0646002EECD1D9F82C00AC
:102BF000D4F8AC1020F0E0400843C9F82C0060780D
:102C000000061FD5E06ED0B1B0F1005F12D0B0F178
:102C1000805F24D1D9F8000040F40030C9F80000EA
:102C20007EB9D9F82400E16E20F040500843C9F87D
:102C3000240007E0201D012101F03AFD0646002E88
:102C4000EFD0B046E078C00729D0606C03280AD8DE
:102C5000DFE800F0020D1602CEB1B0461FE00126FB
:102C6000002EEED1DDE70126002EF6D10FE0D9F8D7
:102C7000000040F40030C9F80000002EEDD106E05D
:102C8000201D022101F014FD0646002EE5D1D9F8E1
:102C90002000616C20F003000843C9F82000A078F0
:102CA000400643D5D9F8D40340F48070C9F8D40362
:102CB000FFF71AFD074600BFD9F8D403C00505D4B5
:102CC000FFF712FDC01B6528F6D303266EBBD9F8AB
:102CD0004410D4F8B000414011F4407F11D0D9F82D
:102CE0004410D9F8442042F48032C9F84420D9F87D
:102CF000442021F4407122F48032C9F84420C9F8FC
:102D00004410B0F5807F0FD1FFF7EEFC074641F28B
:102D1000893500BFD9F84400800705D4FFF7E4FCEB
:102D2000C01BA842F6D3032686B1B0462078C00760
:102D300041D0A06F4FEAF000052823D8DFE800F06B
:102D400003262B03030376B3B04634E04FF6CF736C
:102D5000D4F8B00059F81C2CC0F2FF0300F4407105
:102D600022F47C5203EA1013B1F5407F08BF1A43E6
:102D70006FF31F3049F81C2CD9F844100843C9F8E8
:102D80004400D3E70126002EDED10CE0201D0121F6
:102D900001F08EFC04E004F12400012101F018FD93
:102DA0000646002ED0D1D9F82800A16F20F03800B7
:102DB0000843C9F828002078800723D5606F0528CC
:102DC00007D8DFE800F0030A0F03030396B1B0460B
:102DD00018E00126002EFAD10CE0201D012101F09F
:102DE00067FC04E004F12400012101F0F1FC064637
:102DF000002EECD1D9F82800616F20F007000843BD
:102E0000C9F828002078400725D5D4F89000052877
:102E100007D8DFE800F0030A0F03030396B1B046BA
:102E200019E00126002EFAD10CE0201D012101F04D
:102E30003FFC04E004F12400012101F0C9FC064636
:102E4000002EECD1D9F82C00D4F8901020F0070017
:102E50000843C9F82C002078800627D5D4F88C00C8
:102E60004FEA3070052807D8DFE800F0030A0F03A7
:102E7000030396B1B04619E00126002EFAD10CE00A
:102E8000201D002101F014FC04E004F124000221C3
:102E900001F09EFC0646002EECD1D9F82800D4F8AB
:102EA0008C1020F0E0400843C9F828002078400644
:102EB00027D5D4F898004FEAB020052807D8DFE8D6
:102EC00000F0030A0F03030396B1B04619E0012690
:102ED000002EFAD10CE0201D002101F0E9FB04E0F6
:102EE00004F12400022101F073FC0646002EECD10F
:102EF000D9F82C00D4F8981020F4E0500843C9F811
:102F00002C002078000627D5D4F89C004FEA7030BA
:102F1000052807D8DFE800F0030A0F03030396B182
:102F2000B04619E00126002EFAD10CE0201D002148
:102F300001F0BEFB04E004F12400022101F048FC92
:102F40000646002EECD1D9F82C00D4F89C1020F4C1
:102F500060400843C9F82C002078000716D5D4F843
:102F60008000B0F5805F08D104F12400022101F057
:102F70002FFC002818BF4FF00108D9F82800D4F81A
:102F8000801020F440500843C9F828002078C0067B
:102F900016D5D4F89400B0F5807F08D104F1240050
:102FA000022101F015FC002818BF4FF00108D9F8E4
:102FB0002C00D4F8941020F440700843C9F82C0079
:102FC000A078000721D5D4F8A000B0F5003F19D0B3
:102FD000B0F5803F10D0C0BB201D002101F068FB80
:102FE00006468EB9D9F82C00D4F8A01020F4403051
:102FF0000843C9F82C0008E004F12400022101F084
:10300000E7FB0646002EEDD0B046A078400729D554
:10301000D4F88400B0F5401F21D0B0F5001F18D0BF
:10302000B0F5801F40F0B480D9F8000040F40030C3
:10303000C9F80000AEB9D9F82800D4F8841020F4FB
:1030400040100843C9F828000CE00126002EDBD10F
:10305000C8E704F12400012101F0BAFB0646002E66
:10306000E9D0B046A078C0071FD0E06CB0F5803F33
:1030700010D0B0B9D9F8000040F40030C9F8000011
:1030800096B9D9F82000E16C20F480300843C9F8E3
:1030900020000AE0201D022101F00AFB06461EB9AD
:1030A000EFE70126002EECD0B046E078800608D588
:1030B00004F12400022101F08BFB002818BF4FF01F
:1030C00001082068810313D4C10229D4C10031D47E
:1030D00081023AD4410042D4B0F1FF3F4FDDB8F154
:1030E000000F18BF4FF00108404601B0BDE8F08363
:1030F000E16F6FF0010202EB3122022A0AD34FEA9C
:1031000031223AB1012A48D1D9F8002042F40032E4
:10311000C9F80020002E43D04FF00108C102D5D5D8
:10312000D9F82410226F21F000411143C9F824106E
:10313000C100CDD559F81C1CD4F8B42021F480412D
:10314000114349F81C1C8102C4D5D9F82410A26E81
:1031500021F080711143C9F824104100BCD559F801
:103160001C1C21F4004149F81C1CD4F8B81059F873
:103170001C2C114349F81C1CB0F1FF3FAFDCD9F8FF
:103180002000216D20F040500843C9F82000A6E738
:103190000126002E7FF465AF4DE70126002EBBD13E
:1031A000D9F8282022F440721143C9F82810C1022E
:1031B0007FF58CAFB4E700002DE9F04381B0002823
:1031C00000F0F28042F200080446C5F20028894669
:1031D000D8F8000000F00F0088420ED2D8F80000A6
:1031E00020F00F0040EA0900C8F80000D8F80000FD
:1031F00000F00F00484540F0D780206844F218479F
:103200004107C5F602070AD521693A6802F0700243
:10321000914204D93A6822F07002114339600107E3
:103220000AD561697A6802F07002914204D97A681D
:1032300022F0700211437960C1060AD5A1697A684B
:1032400002F4E062914204D97A6822F4E062114308
:10325000796081060AD5E169BA6802F0700291428C
:1032600004D9BA6822F070021143B96081070AD507
:10327000E1683A6802F00F02914204D93A6822F0FC
:103280000F0211433960C0077ED1206881070AD53B
:10329000E1683A6802F00F02914204D23A6822F0E3
:1032A0000F0211433960D8F8001001F00F014945B1
:1032B0000DD9D8F8001021F00F0141EA0901C8F832
:1032C0000010D8F8001001F00F0149456CD14107FA
:1032D0000AD521693A6802F07002914204D23A6834
:1032E00022F070021143396001070AD561697A68DA
:1032F00002F07002914204D27A6822F07002114307
:103300007960C1060AD5A1697A6802F4E062914247
:1033100004D27A6822F4E0621143796080060AD50B
:10332000E069B96801F07001884204D2B96821F0FF
:1033300070010843B86000F067F8396845F23C4214
:10334000C0F60002C1F303213B6803F00F03515C98
:10335000D25C01F01F01C84002F01F0140F20402DC
:1033600020FA01F1C2F20042116040F2000140F285
:103370000C02C2F20041C2F2004208601068FFF77E
:10338000FFF901B0BDE8F083386820F47061D4E93A
:103390000102032841EA0201396009D0022829D13B
:1033A00057F8181C890307D4012001B0BDE8F08349
:1033B00057F8181C8901F7D557F8081C21F00701A8
:1033C000084347F8080CFFF78FF9064641F28835A5
:1033D00057F8080C616800F03800B0EBC10F3FF4FB
:1033E00054AFFFF781F9801BA842F1D9032001B047
:1033F000BDE8F083012857F8181C02D1C905D3D5C0
:10340000DAE74907D0D5D7E744F20041C5F6020113
:103410000869C0F3C20003280FD002282BD078BB64
:103420000868800649F20000C0F2D03058BF7047EB
:103430000968C1F3C101C84070478A6A886AC0F34D
:10344000051CCB6A486B03F00103BCF1000FC0F30D
:10345000CC0003FB00F000EE100AB8EE400A14D0D6
:1034600002F00302022A12D0A2B90868800614D41E
:103470009FED251A1EE047F64000C0F27D10704710
:1034800040F60010C0F23D007047002070479FEDED
:103490001D1A0FE09FED1A1A0CE0086849F20002AD
:1034A000C0F2D032C0F3C10022FA00F001EE100ADF
:1034B000B8EE411A02EE10CA9FED144AB8EE422A45
:1034C000086B6FF35F2003EE100A81EE021AB8EE6C
:1034D000433A086B00EE043AB7EE000AC0F3462008
:1034E000013033EE000A21EE000A01EE100AB8EEB8
:1034F000411A80EE010ABCEEC00A10EE100A7047B5
:103500000024744A20BCBE4B0024744C00000039D7
:103510002DE9F041002800F046810446007844F28D
:103520000046C007C5F602064AD0306900F03801EF
:10353000B06A102905D018290AD100F0030002282A
:1035400006D13068800337D56068A8BB012726E024
:1035500065686DB1B5F5803F06D0B5F5A02F306830
:1035600007D140F480203060306840F4803006E0BD
:10357000306820F480303060306820F48020306083
:10358000FFF7B2F8002D054613D000BF3068800366
:1035900012D4FFF7A9F8401B6428F7D903270020AD
:1035A000002800F016820BE0FFF79EF8401B64280D
:1035B000F4D830688003F7D40120002800F0098295
:1035C0002078800755D5306910F03801B06A18D0DE
:1035D000182908BF5FEA807013D0E068316858B3DB
:1035E00021F0190108433060FFF77EF8054600BF5F
:1035F000306840070AD4FFF777F8401B0228F7D954
:1036000028E03068400701D5E06868B3FFF764F848
:1036100041F20301884208D820697168402821F4EA
:103620007C3119D141F4003018E07068216920F034
:10363000FE4040EA016011E021F001003060FFF738
:1036400053F805463068400709D5FFF74DF8401B91
:103650000328F7D3032708E041EA00307060012017
:10366000002800F0B68104E001270020002800F0C7
:10367000B0812078C0065AD5306900F03801B06AB0
:10368000082905D0182918D100F00300012814D109
:103690003068C00502D5E069802843D1FFF71CF8E7
:1036A00041F2030188421CD8206A7168202821F069
:1036B000F8412FD141F080402EE0E06900283068C9
:1036C00017D040F080003060FFF70EF8054600BFCD
:1036D0003068C005E2D4FFF707F8401B0228F7D98D
:1036E00016E0F068216A20F07C5040EA0160F0604A
:1036F00013E020F080003060FEF7F6FF054600BFC3
:103700003068C00509D5FEF7EFFF401B0328F7D34B
:10371000032708E041EA806070600120002800F083
:10372000588104E001270020002800F05281207811
:1037300000073CD4207880064DD4207840075ED422
:10374000656A65B3306900F03800182840F09E8043
:10375000012DB16A306B26D001F00302A36A9A42B0
:1037600021D1C1F30511E26A91421CD10146226BBD
:103770006FF35F21013A914215D1C0F34621626B8C
:10378000013A91420FD1C0F30641A26B013A914236
:1037900009D1C0F30660E16B0139884203D10027EB
:1037A000F8B2BDE8F0810127F8B2BDE8F0816069A8
:1037B0000028706F39D040F001007067FEF794FF69
:1037C000054600BF706F8007B4D4FEF78DFF401B25
:1037D0000228F7D925E0A0690028306844D040F4D9
:1037E00080503060FEF780FF054600BF30688004DF
:1037F000A3D4FEF779FF401B0228F7D911E0D6F8D1
:10380000000440F48070C6F80004FEF76DFF054622
:10381000D6F80004C00519D4FEF766FF401B6428E3
:10382000F6D90327F8B2BDE8F08120F001007067F7
:10383000FEF75AFF05460327706F80077FF57AAFC2
:10384000FEF752FF401B0228F6D9C2E0A568EDB38F
:10385000012D05D0052D306F39D140F004003067BF
:10386000306F40F0010038E020F480503060FEF707
:103870003BFF0546032700BF306880047FF55DAF3E
:10388000FEF732FF401B0228F6D9A2E0306820F094
:1038900080703060FEF728FF022D05464FF00307C9
:1038A0000AD100BF3068800135D5FEF71DFF401BEF
:1038B0000228F7D98DE000BF306880017FF56FAF37
:1038C000FEF712FF401B0228F6D982E0306F20F08D
:1038D00001003067306F20F004003067FEF704FF0E
:1038E000002D054641F288384FF003070FD000BF86
:1038F000306F80073FF524AFFEF7F6FE401B4045D2
:10390000F6D966E0FEF7F0FE401B404561D8306F07
:103910008007F7D414E704F12807B06A40F2F331C6
:1039200088438ECF0843591E40EA02104FF47E426E
:10393000B06202EB47206FF35F214FF4FE0280B2CA
:10394000E36B0844A16B02EB01414FF0FE4201F42E
:10395000FE0102EB0362084402F0FE4108443063BA
:10396000F06A4FF6F87120F00100F062706BA26C03
:10397000884340EAC2007063F06A216C20F00C00BA
:103980000843F062F06A616C20F002000843F062C4
:10399000F06A40F48030F062F06A40F40030F06287
:1039A000F06A40F48020F062F06A40F00100F062BA
:1039B000306840F080703060FEF796FE04460327C2
:1039C000306880013FF5EBAEFEF78EFE001B02284B
:1039D000F6D9F8B2BDE8F0817047000000000000A1
:1039E0002DE9F047066804463769D6F814A00AEABC
:1039F0000705D6F8089005F0640094F88180042843
:103A000007D1616F20468847216F204688470120F3
:103A100000E0002005F04501012903D1216F204677
:103A20008847012005F02601022903D1616F204655
:103A30008847012008B1BDE8F08728070BD4380774
:103A400063D51AF4006060D02068816941F4006198
:103A50008161BDE8F087206819F4404F816941F029
:103A600008018161816941F010018161816941F43E
:103A700000618161016921F0080101610ED0B8F196
:103A8000040F06D0A16FC96941B1B8F1030F00F06E
:103A9000C080E16FC969002940F0AC80806810F4F3
:103AA000404F1CD0204600F02BFF012084F88100FD
:103AB000D4F88400002800F09D802046FFF78CFF9A
:103AC000BDE8F0872068616E006B08600420616EBD
:103AD00008446066B4F86A000138A4F86A00B4F8D3
:103AE0006A000028DED0E0681028EBD2082805D351
:103AF000308E616E08800220E9E700BF206890F8F0
:103B00003000616E08700120E1E715F4587F92D013
:103B100015F040000AD02068D4F8841041F0040168
:103B2000C4F88410816941F040018161A8050AD57B
:103B30002068D4F8841041F00101C4F88410816930
:103B400041F400718161E80505F020000AD5216883
:103B5000D4F8842042F00802C4F884208A6942F430
:103B600080728A6150B12068D4F8841041F08001DD
:103B7000C4F88410816941F020018161D4F8840087
:103B800000283FF458AF206809F4404240F26B33FC
:103B9000B2F5404F016821F001010160016921EA9D
:103BA000030101613FD1816844F6B91521F4404118
:103BB0008160E06FC0F6000548B10565FDF784F847
:103BC00028B1D4F8840040F04000C4F88400A06F0D
:103BD00000283FF430AF0565FDF776F8002808BFF0
:103BE000BDE8F087D4F8840040F04000C4F88400B9
:103BF000BDE8F087B8F1030F0BD0B8F1040F0DD07A
:103C0000B8F1050F7FF417AF204600F0D5F9BDE8F5
:103C1000F087204600F0C8F9BDE8F087204600F0A4
:103C20000BF9BDE8F087012084F8810045E700002A
:103C30002DE9F041002800F09880044643F6000684
:103C4000C4F2000643F20007256843F60048B54277
:103C5000C4F20107C4F200084FF00000A06203D0D4
:103C6000454518BFBD427CD1204600F0EDFEB5426F
:103C700018BFBD4269D1102877D894F8810028B9BF
:103C8000002084F88000204600F072F8022084F8BA
:103C900081002068A2690168B2F1806F21F0010102
:103CA000016009D16168B1F5800F05D1A16B19B927
:103CB000016841F480510160E169A36A1943E36B33
:103CC0000B43D4E90365D4E9011733438360636B85
:103CD000666A42EA0302A36B42EA060242EA030270
:103CE000636942EA0502266A42EA0302E36C42EA99
:103CF0000602A66C42EA010242EA0302A36D42EA0E
:103D0000070242EA060242EA0302C26049B9826837
:103D1000012363F3CC2282608268022363F34A2288
:103D20008260026D490222F00101016505D5C1687A
:103D3000626D21F000411143C1600020C4F884008D
:103D4000012184F88110BDE8F081454518BF08289D
:103D50000BD8B54218BFBD428DD045453FF48BAF5F
:103D60008BE7E0680F287FF67FAF0120BDE8F08188
:103D700070B586B0002643F60001CDE9046604461E
:103D80000068C4F20001039688420296019601D0B1
:103D900006B070BD44F2E040C5F60200816841F40F
:103DA00080418160816801F480410091009901683F
:103DB00041F002010160006801A900F002000090DA
:103DC00000984FF4144001900220CDE90206032030
:103DD00004900520059040F20040C5F60200FEF771
:103DE0009FFB40F278051020C2F20045C4F20200A9
:103DF0002860282068604020C5E902064FF48060F2
:103E0000C5E90406C5E906664FF44030C5E9080671
:103E10002846FDF785FE08B1FCF752FF242000215B
:103E20000022A567AC63FEF7EBFC2420FEF7E4FC60
:103E300006B070BD000000007047000000000000E8
:103E4000B0B5044690F88000012801D10220B0BD31
:103E5000012084F8800094F8810001283BD10029DA
:103E60003ED01546E2B3032084F881000020C4F858
:103E70008400E165A4F86050A4F862506066C4E96B
:103E80001C00A4F86800A4F86A00A068B0F5C02F70
:103E900004D12068016841F400610160E0681028E5
:103EA00004D3A16F8969B1F5804F19D1082807D3D0
:103EB000A16F8969B1F5005F18BFB1F5804F0FD1CF
:103EC000072812D8A06F8069B0F5804F19D0B0F5DF
:103ED000005F11D01BE0002084F880000220B0BDFC
:103EE000002084F880000120B0BD0F280FD8A06FFB
:103EF0008069B0F5804F0AD1B4F862000130400803
:103F000003E0B4F8620003308008A4F86200A06FF8
:103F100044F6192144F60922C0F60001C0F6000259
:103F2000C0E90F1244F6D9112268C0F60001C1643D
:103F300000210165E16D936823F400439360B4F8B8
:103F400062302032FEF79CF848B1D4F8840040F08B
:103F50001000C4F88400012084F88100B0BDA16F76
:103F60004FF6FF72D4E9000CC9694368B1F5807F50
:103F700023EA020218BF2A44BCF5800F4260816820
:103F800041F400418160016941F4487101610168B7
:103F900041F00101016003D1016841F40071016049
:103FA000002084F88000B0BD7047000000000000D1
:103FB0007047000000000000704700000000000093
:103FC00080B500F051FD80BD70470000000000008A
:103FD0007047000000000000704700000000000073
:103FE000B0B590F83C20012A4FF0020251D00123D5
:103FF00080F83C3080F83D2040F2004C0268C4F26A
:10400000010C42F4806363455368D2F808E002BFB4
:1040100023F470034C68234340F6FF340D68C4F268
:10402000000423F07003A24243EA050353600EDD4F
:104030004FF6FF73C4F200039A4218DC40F60043C7
:10404000C4F200039A4219D041F600030AE0B2F12B
:10405000804F13D040F20043C4F200039A420DD0C7
:1040600040F60003C4F200039A4207D00BE0624519
:1040700004D00023C4F201039A4204D12EF080033D
:104080008968194391600022012180F83D1080F871
:104090003C201046B0BD000060B310B5044690F857
:1040A0003D0028B9002084F83C00204600F024F8A8
:1040B000022084F83D002068211D00F0CDFD012084
:1040C00084F8480084F83E0084F83F0084F84000FB
:1040D00084F8410084F8420084F8430084F84400E6
:1040E00084F8450084F8460084F8470084F83D00D1
:1040F000002010BD0120704780B582B044F6000159
:104100000068C4F20101884213D00021C4F2010109
:10411000884223D144F2F040C5F60200016841F024
:1041200001010160006800F001000190019802B0F7
:1041300080BD44F2F0400022C5F60200016841F45F
:10414000802101600068022100F480200090009826
:104150007620FEF755FB7620FEF74EFB02B080BDC1
:1041600010B5044690F83C0001284FF0020008BF4B
:1041700010BD0B46012184F83C10882284F83D00D4
:10418000CFF6CE72206881681140816019686F296E
:104190000EDC2F2919DD4F2927DC302959D0402981
:1041A00059D15968DA6800F00FFE2068402150E0CC
:1041B000B1F1101F10DB2F22C0F2100291421FDC60
:1041C000B1F1101F45D0202220E0002918BF10298E
:1041D0003FD020293DD03EE070291ED0B1F5005FD0
:1041E00026D0B1F5801F34D035E050292BD060297E
:1041F00031D15968DA6800F0FBFD2068602128E0C1
:104200003022C0F21002914223D04022C0F21002AC
:10421000914208BF00F0CCFD1DE0D3E90121DB682D
:1042200000F0BAFD2068816841F07701816012E0FA
:10423000D3E90121DB6800F0AFFD2068816841F41B
:104240008041816007E05968DA6800F0BDFD2068B0
:10425000502100F0ADFD012084F83D00002084F8DD
:104260003C0010BD0000000070470000000000008E
:1042700010B5044600680169890744BFC1685FEA58
:10428000817140D420680169490744BFC1685FEA71
:10429000417144D420680169090744BFC1685FEADD
:1042A000017149D420680169C90644BFC1685FEA49
:1042B000C1614DD420680169C9071CBFC1685FEAAC
:1042C000C17152D120680169090644BFC1685FEA23
:1042D000016151D420680169C90544BFC1685FEA22
:1042E000016150D420680169490644BFC1685FEA92
:1042F00041614FD420680169890644BFC1685FEA03
:1043000081614ED410BD6FF002010161012121775E
:10431000806980074CD02046FFF7A6FF4EE06FF083
:104320000401016102212177806910F4407F48D0A7
:104330002046FFF799FF4AE06FF008010161042170
:104340002177C069800745D02046FFF78DFF47E001
:104350006FF01001016108212177C06910F4407FDE
:1043600041D02046FFF780FF43E06FF0010101617B
:10437000204600F049F8A5E76FF080010161204672
:10438000FFF726FEA6E76FF4807101612046FFF774
:104390001BFEA7E76FF040010161204600F044F8E2
:1043A000A8E76FF0200101612046FFF715FE10BD60
:1043B000204600F021F8204600F022F80020207767
:1043C00060E7204600F018F8204600F019F80020B9
:1043D00020775FE7204600F00FF8204600F010F845
:1043E000002020775EE7204600F006F8204600F027
:1043F00007F8002020775DE770470000000000000C
:10440000704700000000000040F2C411C2F20041F9
:10441000884208D140F27000C2F2004001680029D1
:104420005CBF013901607047704700000000000068
:10443000FEE700000000000080B500F009FD80BD2F
:1044400080B500F0ADFE80BD80B582B044F2D840AA
:104450000022C5F60200016841F001010160006818
:10446000002100F00100019001980B20FEF7C8F92F
:104470000B20FEF7C1F902B080BD00000000000073
:104480002DE9F04786B044F2E0400027C5F602006F
:104490000597CDE90377CDE90177016840F2004A3D
:1044A00041F0800101600168C5F6020A01F0800157
:1044B00000910099016841F01001016001680AF55E
:1044C000406501F0100100910099016841F002017E
:1044D00001600168012201F0020100910099016868
:1044E00041F00101016000684FF4004100F001005B
:1044F0000090009828464FF400464FF00108FEF760
:10450000E3F84FF40051002250464FF40059FEF7F3
:10451000DBF8CDE9016801AE284631460397032454
:104520000494FDF7FDFF50463146CDE90198CDE9F1
:104530000374FDF7F5FF06B0BDE8F087000000004A
:1045400010B540F2F00443F60000C2F20044C4F299
:1045500000004FF0005120604FF4800060604FF485
:104560000030A0600720E0600020C4E90400C4E936
:104570000611C4E90800C4E90A004FF080406063F6
:1045800004F138002421FBF7FBFE2046FFF750FB27
:10459000002808BF10BDFCF793FB10BD0000000011
:1045A00080B540F2C41044F60001C2F20040C4F2EB
:1045B00001010A2201601321416000218160C0E9EC
:1045C0000321C0E90511FFF767FD002808BF80BD82
:1045D000FCF776FB80BD000080B588B040F2781013
:1045E0000022C2F2004000210791C4F20102CDE98D
:1045F0000511CDE90311CDE90111026042F6DF6238
:10460000C0E901214FF6FF72C2604FF48072C0E929
:1046100004218161FFF740FD08B1FCF751FB4FF425
:104620008050049040F2781004A9C2F20040FFF7D5
:1046300097FD08B1FCF744FB002001A9CDE901007A
:10464000039040F27810C2F20040FFF7C9FC08B1B5
:10465000FCF736FB08B080BDFEE70000000000005C
:10466000704700000000000000F007004FF0FF3C22
:1046700080F00703042B28BF0423033838BF002031
:104680000CFA03F399430CFA00F301FA00F022EA62
:10469000030108437047000080B50C2000F054FE71
:1046A00080BD000000000000704700000000000016
:1046B000F0B581B044F22C47C5F6020757F8042C38
:1046C00002F00302032A02D1012001B0F0BD054629
:1046D00057F82C0C0C4620F0806047F82C0CFEF7A5
:1046E00003F8064657F82C0C000105D5FDF7FCFF32
:1046F000801B0228F6D964E057F8040CEE6895E8B0
:104700000E0020F47C3040EA0130A2F101014FF4A8
:104710007E4247F8040C02EB43224FF0FE436FF356
:104720005F2192B202EB01004FF4FE012A6901EB16
:10473000064101F4FE0103EB0262084402F0FE416F
:104740000844F8603868696920F0C00040EA010058
:1047500038603868A96920F0200040EA010038601C
:1047600038684FF6F87120F0100038603869EA694F
:1047700020EA010040EAC2003861386840F01000C9
:1047800038602CB1012C386806D140F4801005E067
:10479000386840F4002001E040F40010386057F819
:1047A0002C0C40F0806047F82C0CFDF79DFF044670
:1047B00057F82C0C000107D4FDF796FF001B0328C7
:1047C000F6D3032001B0F0BD002001B0F0BD000021
:1047D000F0B581B044F22C47C5F6020757F8042C17
:1047E00002F00302032A02D1012001B0F0BD054608
:1047F00057F82C0C0C4620F0805047F82C0CFDF795
:1048000073FF064657F82C0C800005D5FDF76CFFAA
:10481000801B0228F6D964E057F8040CEE6895E88E
:104820000E0020F07C7040EA0150A2F101014FF42B
:104830007E4247F8040C02EB43224FF0FE436FF335
:104840005F2192B202EB01004FF4FE012A6901EBF5
:10485000064101F4FE0103EB0262084402F0FE414E
:10486000084478613868696920F4406040EA0100D2
:1048700038603868A96920F4007040EA01003860A7
:1048800038684FF6F87120F480703860B869EA69CA
:1048900020EA010040EAC200B861386840F4807044
:1048A00038602CB1012C386806D140F4000005E0D6
:1048B000386840F4800001E040F08070386057F8BC
:1048C0002C0C40F0805047F82C0CFDF70DFF0446EF
:1048D00057F82C0C800007D4FDF706FF001B0328B7
:1048E000F6D3032001B0F0BD002001B0F0BD000000
:1048F00080B540F2F000C2F20040FFF771F880BDD1
:10490000016840F26F32D1F814C08B6943F008039C
:104910008B618B6943F010038B610B6823F00103FB
:104920000B600B6923EA02020A618A6822F44042A2
:104930008A6090F881305FEA8C620BD5042B09D035
:10494000D0F8842042F08002C0F884208A6942F0C6
:1049500020028A6190F881305FEA4C620BD5032B0C
:1049600009D0D0F8842042F00402C0F884208A697B
:1049700042F040028A615FEA8C5209D5D0F8842067
:1049800042F00102C0F884208A6942F400728A6110
:104990005FEACC5209D5D0F8842042F00802C0F872
:1049A00084208A6942F480728A610021A0F8621032
:1049B000A0F86A107047000080B5806B0021A0F855
:1049C0006A10A0F86210012180F88110FFF704F846
:1049D00080BD00000000000010B5846BFCF7CCFA2D
:1049E000022808BF10BD2046FFF78AFFD4F88400D4
:1049F00040F01000C4F88400012084F881002046B3
:104A0000FEF7EAFF10BD000080B5806BFFF7D0FA1B
:104A100080BD00000000000080B5806B90F8811020
:104A2000072908BF80BD816FC969B1F5807F02D1B8
:104A3000FFF7BAFA80BD0068016941F00801016121
:104A400080BD000000000000C16B0122C06808307A
:104A500002EB5111C00848437047000000000000FD
:104A60007047000000000000B0B501380024B4EB2E
:104A7000106F01D00120B0BD4EF210050F21CEF213
:104A8000000568604FF0FF3000F08AFCAC60072042
:104A900028602046B0BD000080B5FDF72DFE80BD2A
:104AA000B0B5CCB044F6180439A84C21C5F60204C0
:104AB000FBF766FC02A8BC210025CDE93755CDE9FE
:104AC0003555CDE93355CDE93155FBF759FC022079
:104AD000FDF7AAFE0195206840F440402060206860
:104AE00000F44040019040F22C40C5F600000168FF
:104AF00041F001010160006800F00100019001989F
:104B000020688004FCD50220399001213C91402589
:104B10003D95429000244394042144913C21CDE9E9
:104B20004510CDE947000C20CDE9490439A84B9444
:104B3000FEF7EEFC3F20319003200421CDE9320442
:104B40000820CDE9340536954FF48060CDE937056E
:104B500031A8FEF731FB4FF48050029002A819945F
:104B6000FDF786FE4CB0B0BD80B54EF6885C42F2D3
:104B7000000ECEF2000CC5F2002EDCF8001041F45D
:104B80007001CCF80010DEF8001001F00F010629CA
:104B900006D8DEF80010072262F30301CEF80010F9
:104BA00044F200414EF67F53C5F60201CEF6F623DD
:104BB0000A6842F001020A6000220A61086818408F
:104BC0000860DEF80000000706D5DEF800000723C5
:104BD00063F30300CEF8000040F200208A61CA614E
:104BE000C0F202200A6288620020C0F2FF10C86290
:104BF00040F28020C0F2011008634A638863CA63F0
:104C000008644A64086820F48020086041F20000CB
:104C10000A66C5F600400068B2EB507F05D148F245
:104C200008100121C5F20010016044F2000043F2B7
:104C3000D201C5F2002001604FF000604CF8800CFA
:104C400080BD00000000000080B540F2C410C2F238
:104C50000040FFF70DFB80BD10B540F6FF32C4F2F7
:104C60000002904202680FDCB0F1804F1DD040F28C
:104C70000043C4F20003984217D040F60003C4F288
:104C80000003984211D014E040F60043C4F2000340
:104C900098420AD040F20043C4F20103984204D083
:104CA0000023C4F20103984203D122F070024B6842
:104CB0001A434FF6FF7343F6FF7CC4F20003C4F2BD
:104CC000010C984210DD60451ADD44F20003C4F285
:104CD000010398422CD044F60003C4F20103984229
:104CE00026D044F2004312E040F2FF73C4F2000306
:104CF000984211DCB0F1804F1AD040F2004313E02B
:104D00000023C4F20103984212D040F20043C4F2DF
:104D1000010398420CD00FE040F60003C4F20003F8
:104D2000984205D040F60043C4F20003984203D1F4
:104D300022F44072CB681A4322F080024C6960452D
:104D4000D1F800E08B6842EA04020260C362C0F856
:104D500028E00EDD44F20002C4F20102904213D0BA
:104D600044F60002C4F2010290420DD044F2004227
:104D700006E00022C4F20102904205D040F2004257
:104D8000C4F20102904201D109690163012141612C
:104D900010BD000000000000D0F808C011432CF442
:104DA0007F4241EA03211143816070470000000007
:104DB0004FF688738268CFF6CF731A40114341F0E3
:104DC0000701816070470000D0F820C0036A23F01B
:104DD00001030362836923F0F00343EA02122CF01B
:104DE0000A0382611943016270470000000000005D
:104DF000036A23F010030362836923F47043D0F83D
:104E000020C043EA02322CF0A003826143EA011180
:104E10000162704700000000FEE700000000000093
:104E200010B540F200444FF40051C5F602040022D0
:104E30002046FDF749FCC820FDF75EFB4FF400510A
:104E400001222046FDF740FC10BD000000000000DC
:104E500010B50446816000F05BF92046FFF7E0FFE3
:104E60000121204600F074F94FF47A70FDF744FBFD
:104E7000CB21204600F06CF93921204600F07CF966
:104E80002C21204600F078F90021204600F074F92A
:104E90003421204600F070F90221204600F06CF920
:104EA000CF21204600F054F90021204600F064F99B
:104EB000C121204600F060F93021204600F05CF965
:104EC000E821204600F044F98521204600F054F9FD
:104ED0000021204600F050F97821204600F04CF9DE
:104EE000EA21204600F034F90021204600F044F980
:104EF0000021204600F040F9ED21204600F028F97D
:104F00006421204600F038F90321204600F034F9EE
:104F10001221204600F030F98121204600F02CF9C2
:104F2000F721204600F014F92021204600F024F952
:104F3000C021204600F00CF92321204600F01CF986
:104F4000C121204600F004F91021204600F014F998
:104F5000C521204600F0FCF83E21204600F00CF967
:104F60002821204600F008F9C721204600F0F0F87B
:104F70008621204600F000F93621204600F0E8F8AE
:104F80004821204600F0F8F83A21204600F0E0F8E9
:104F90005521204600F0F0F8B121204600F0D8F865
:104FA0000021204600F0E8F81821204600F0E4F83F
:104FB000B621204600F0CCF80821204600F0DCF8AD
:104FC0008221204600F0D8F82721204600F0D4F8AE
:104FD000F221204600F0BCF80021204600F0CCF879
:104FE0002621204600F0B4F80121204600F0C4F844
:104FF000E021204600F0ACF80F21204600F0BCF87C
:105000003121204600F0B8F82B21204600F0B4F8FA
:105010000C21204600F0B0F80E21204600F0ACF83C
:105020000821204600F0A8F84E21204600F0A4F800
:10503000F121204600F0A0F83721204600F09CF82E
:105040000721204600F098F81021204600F094F83F
:105050000321204600F090F80E21204600F08CF845
:105060000921204600F088F80021204600F084F84D
:10507000E121204600F06CF80021204600F07CF889
:105080000E21204600F078F81421204600F074F834
:105090000321204600F070F81121204600F06CF842
:1050A0000721204600F068F83121204600F064F81E
:1050B000C121204600F060F84821204600F05CF84D
:1050C0000821204600F058F80F21204600F054F83F
:1050D0000C21204600F050F83121204600F04CF819
:1050E0003621204600F048F80F21204600F044F811
:1050F0001121204600F02CF87820FDF7FDF9292138
:10510000204600F025F80021204600F099F810BD57
:1051100080B540F200404FF40051C5F60200012274
:10512000FDF7D2FA80BD000080B582B080688DF8AE
:10513000071000BF90F881100129FBD10DF1070184
:105140000122FEF77DFE02B080BD000000000000DD
:10515000B0B5054641F200000C46C5F602004FF41A
:1051600000410022FDF7B0FA28462146FFF7DCFF98
:10517000B0BD000000000000B0B5054641F20000DF
:105180000C46C5F602004FF400410122FDF79CFADF
:1051900028462146FFF7C8FFB0BD00000000000010
:1051A000B0B582B00446838800880D4600210022F5
:1051B0000090204600F00CF8D4E9000100FB01F259
:1051C0002046294600F068F802B0B0BD000000009B
:1051D0002DE9F0410F462A211E4615460446DDF80A
:1051E0001880FFF7B5FF390A2046FFF7C5FFF9B26F
:1051F0002046FFF7C1FF310A2046FFF7BDFFF1B29D
:105200002046FFF7B9FF2B212046FFF7A1FF290A0F
:105210002046FFF7B1FFE9B22046FFF7ADFF4FEAA6
:1052200018212046FFF7A8FF5FFA88F12046FFF714
:10523000A3FF2C212046FFF78BFFBDE8F081000083
:10524000F0B581B00D4636210446FFF781FF0120FD
:10525000FDF752F9032D1AD84FF4A076F027482114
:10526000DFE805F01002070CF0264FF4A0772821A4
:1052700008E04FF4A076F027882103E0F0264FF4F1
:10528000A077E8212046FFF777FFC4E9006701B067
:10529000F0BD0000000000002DE9F04F03AF81B029
:1052A000804641F2000092464FEA42090D46C5F69B
:1052B00002004FF400410122B9F5FA7F28BF4FF4F4
:1052C000FA7AFDF701FA0AF1070020F00700ADEBCA
:1052D0000006B546BAF1000F08D0280A002100BF29
:1052E00072187054023151455570F9D3B9FBFAFB6D
:1052F000CA4510D800241FFA8AF500BFD8F8080064
:1053000090F881100129FBD131462A46FEF798FD1D
:1053100001345C45F2D30BFB1A91D8F8080000BFAA
:1053200090F88120012AFBD18AB23146FEF788FD30
:10533000A7F10C04A546BDE8F08F40F27400C2F25C
:10534000004000687047000010B50446002808BF00
:10535000012400BF2046FBF73DF8002818BF10BD10
:10536000FFF7EBFF08B18047F4E7002010BD000015
:10537000002848BF70474EF2001300F01F0140099B
:10538000CEF20003012202FA01F143F82010704727
:105390004EF60C50CEF200000068C0F302207047B9
:1053A0004EF6145300F00F02CEF20003B0F1FF3FAF
:1053B0001A4400F16043C8BF03F56442080110704D
:1053C00070470000000000004EF60C514FF6FF033E
:1053D000CEF200010A681A4060F30A2242F08060AF
:1053E00040F0FD7008607047FDF796F9FFF758FB35
:1053F000FFF746F8FFF728F8FFF7A2F8FFF7ECF8F9
:10540000FFF7CEF8FFF748F940F2F0010446C2F288
:105410000041FFF711F84FF478412046FFF710F8EC
:10542000FEE7F1EE100A4FF6FF71C0F2C03120EA3C
:10543000010040F04070E1EE100A704700000000EB
:10544000010203040102030406070809705400085E
:105450000000002410000000D4020008805400085E
:105460001000002408080000F002000800000000FE
:105470000090D0030090D003010000001000000055
:040000050800029954
:00000001FF
