:020000040800F2
:100000001808002441030008D7400008B93E000842
:10001000D5400008650700080D47000800000000F3
:100020000000000000000000000000002F44000855
:10003000ED0C000800000000E14000083144000819
:100040005B0300085B0300085B0300085B03000818
:100050005B0300085B0300085B0300085B03000808
:100060005B0300085B0300085B03000867070008E8
:100070005B0300085B0300085B0300085B030008E8
:100080005B0300085B0300085B0300085B030008D8
:100090005B0300085B0300085B0300085B030008C8
:1000A0005B0300085B0300085B0300085B030008B8
:1000B0005B0300085B0300085B0300085B030008A8
:1000C0005B0300085B0300085B0300085B03000898
:1000D000FB4200085B0300085B0300085B030008A9
:1000E0005B0300085B030008000000005B030008DE
:1000F0005B0300085B0300085B0300085B03000868
:100100005B0300085B0300085B0300085B03000857
:100110005B0300085B0300085B0300085B03000847
:100120005B0300085B0300085B0300085B03000837
:100130005B0300085B0300085B0300085B03000827
:1001400000000000000000000000000000000000AF
:100150005B0300085B0300085B0300085B03000807
:100160005B0300085B0300085B0300085B030008F7
:100170005B0300085B0300085B030008000000004D
:100180005B0300085B0300085B0300085B030008D7
:100190005B0300085B0300085B0300085B030008C7
:1001A0005B0300085B0300085B0300085B030008B7
:1001B0005B0300085B0300085B0300085B030008A7
:1001C0005B0300085B0300085B0300085B03000897
:1001D0005B0300085B0300085B0300085B03000887
:1001E0005B0300085B0300085B0300085B03000877
:1001F0005B0300085B0300085B0300085B03000867
:100200005B0300085B0300085B0300085B03000856
:100210005B0300085B030008CF4500085B03000890
:100220005B0300085B0300085B030008000000009C
:100230005B0300085B030008000000005B0300088C
:100240005B0300085B0300085B0300085B03000816
:100250005B0300085B0300085B0300085B03000806
:100260005B0300085B0300085B0300085B030008F6
:100270005B0300085B0300085B030008000000004C
:100280005B0300085B0300085B030008000000003C
:10029000000000005B03000800F002F800F040F8E6
:1002A0000AA090E8000C82448344AAF10107DA45D1
:1002B00001D100F035F8AFF2090EBAE80F0013F0E3
:1002C000010F18BFFB1A43F00103184748580000FC
:1002D00068580000103A24BF78C878C1FAD852078D
:1002E00024BF30C830C144BF04680C6070470000B0
:1002F0000023002400250026103A28BF78C1FBD82F
:10030000520728BF30C148BF0B6070471FB505F0CA
:10031000ECFB9DE8030000F04DF91FBD10B510BDCA
:1003200000F083F91146FFF7F1FF05F0A9FB00F09B
:10033000BBF903B4FFF7F2FF03BC00F019F90000AA
:100340000948804709480047FEE7FEE7FEE7FEE769
:10035000FEE7FEE7FEE7FEE7FEE7FEE704480549A5
:10036000054A064B70470000F54400089902000852
:10037000180200241808002418040024180400247B
:10038000032A40F2308010F0030C00F0158011F8C1
:10039000013BBCF1020F624498BF11F801CB00F899
:1003A000013B38BF11F8013BA2F1040298BF00F8ED
:1003B00001CB38BF00F8013B11F0030300F0A5802A
:1003C000083AC0F0088051F8043B083A51F804CBD1
:1003D000A0E80810F5E7121D5CBF51F8043B40F897
:1003E000043BAFF30080D20724BF11F8013B11F8A2
:1003F00001CB48BF11F8012B24BF00F8013B00F8E6
:1004000001CB48BF00F8012B70474FF0000200B548
:10041000134694469646203922BFA0E80C50A0E827
:100420000C50B1F12001BFF4F7AF090728BFA0E8D5
:100430000C5048BF0CC05DF804EB890028BF40F8A1
:10044000042B08BF704748BF20F8022B11F0804FE3
:1004500018BF00F8012B704770477047704770B5A0
:10046000064600F08BF8056806F10B0020F0070443
:10047000B4429CBF002070BD2B466A68BAB11068B8
:10048000A04210D304F1080188423CBF5068586074
:1004900007D35168101941601168091B0160586049
:1004A0001460101D70BD13465268002AE7D1214622
:1004B000284600F06BF80028DED170BD70B5044608
:1004C000051F00F05BF80068002C14BF446870BD85
:1004D000002C18BFAC423CBF20466468F8D30168CA
:1004E0000A18AA4218BF456003D12A68054611447C
:1004F000016028684119A1421CBF6C6070BD616831
:10050000696021680844286070BD10B5203AC0F0C9
:100510000B80B1E81850A0E81850B1E81850A0E8D6
:100520001850203ABFF4F5AF5FEA027C24BFB1E86F
:100530001850A0E8185044BF18C918C0BDE81040B2
:100540005FEA827C24BF51F8043B40F8043B08BFBB
:100550007047D20728BF31F8023B48BF11F8012B82
:1005600028BF20F8023B48BF00F8012B704700006D
:1005700001491820ABBEFEE7260002000048704784
:1005800018000024704770477047704738B504461C
:100590000A4600206946AFF30080002808BF38BD36
:1005A00002460099204600F065F8012038BD012080
:1005B00000F088B8F8B5AFF30080054600200C467F
:1005C000102000BF0646A819A0420DD93246694640
:1005D0000020AFF30080070008BF00F073F8009818
:1005E000A04218BF0546C419FFF7C8FF05600746BB
:1005F000F01D20F007004619284600F00AF8B44222
:1006000008BFF8BDA21B31463868BDE8F84000F0CD
:1006100031B800210160C0E9011070471020704717
:10062000004870471000002470477546FFF7F8FF38
:10063000AE4605006946534620F00700854618B0CF
:1006400020B5FFF78BFEBDE820404FF000064FF0CD
:1006500000074FF000084FF0000BAC46ACE8C009B3
:10066000ACE8C009ACE8C009ACE8C00921F007015A
:100670008D467047034640688C46002818BF884264
:100680003CBF03464068F8D318681844884207D036
:100690000CF1030020F00700001D411A521A014618
:1006A000081D0A60FFF70ABF10B50446AFF30080CB
:1006B0002046BDE81040FFF73CBE002801D0FFF700
:1006C00057BF704710B500F01DF8BDE81040FFF7A8
:1006D000F4BF70B505460C460A2000E06D1C00F022
:1006E00039F835B128780028F8D102E0641C00F010
:1006F00031F814B120780028F8D1BDE870400A2004
:1007000000F028B810B5012805D0002103A0FFF79C
:10071000E0FF012010BD09A1F8E70000534947524E
:10072000544D454D3A204F7574206F6620686561C1
:1007300070206D656D6F7279000000003A20486589
:100740006170206D656D6F727920636F7272757064
:100750007465640008B569468DF800000320ABBEDF
:1007600008BD0000FEE740F27800C2F2004000F051
:100770000DBC000040F20F42D0F800C0C4F20202EB
:10078000944510DC6F22C4F20202944520DC3F2223
:10079000C4F20202944536DC1022C4F202029445EF
:1007A00054D028224EE040F26F42C4F20202944537
:1007B0001ADC40F23F42C4F2020294452ADC40F2C5
:1007C0001042C4F20202944540D040F2284239E07F
:1007D0009F22C4F20202944525DC7022C4F2020278
:1007E000944533D088222DE040F29F42C4F20202A9
:1007F00094451FDC40F27042C4F20202944525D0B9
:1008000040F288421EE04022C4F2020294451DD00C
:10081000582217E040F24042C4F20202944515D03B
:1008200040F258420EE0A022C4F2020294450DD0DC
:10083000B82207E040F2B842C4F20202944505D063
:1008400040F2A042C4F20202944518D16FF00F02A8
:100850004AF6AB2352FA8CF2CAF6AA23A2FB033162
:1008600008A35F2AC1F302115B5C40F2FF312CEA5E
:100870000101C36588BF04318165084670472CF0CB
:10088000FF01F9E70006101600061016B0B545F294
:1008900043410268C5F602018A4245F60001C5F6E9
:1008A00002010EDD45F26B43C5F602039A4217DCE6
:1008B00045F24443C5F602039A421DD045F258431F
:1008C00016E045F20843C5F602039A4214D045F2F9
:1008D0001C43C5F602039A420ED045F2304307E0AE
:1008E00045F28043C5F602039A4205D045F26C43B7
:1008F000C5F602039A4215D1D3B2A3F108024CF611
:10090000CD43CCF6CC43A2FB03231B0901F18002AB
:1009100001EB830103F01F03016601214266994048
:100920008166B0BDA1F55B739A42D3B2E5D0A3F165
:1009300010014AF6AB23CAF6AA230824A1FB031C24
:1009400040F20F41C4F202014FEA1C1E8A4201F13B
:10095000AA05734640F6000188BF04EB1C13C4F2DD
:100960000201AA4228BF7346D0E70179013907295D
:1009700088BF704745F243430268C5F602039A42B6
:100980000EDD45F26B43C5F602039A4217DC45F2D1
:100990004443C5F602039A421DD045F2584316E07F
:1009A00045F20843C5F602039A4214D045F21C43AF
:1009B000C5F602039A420ED045F2304307E045F2F5
:1009C0008043C5F602039A4205D045F26C43C5F652
:1009D00002039A420DD18A0045F60013C5F60203C0
:1009E0001A44C26601224033036702FA01F14167EB
:1009F000704745F29443C5F602039A424FEA8102DA
:100A0000EAD040F60013C4F20203E9E770B540F201
:100A10006F44D0F800C0C4F20204D0F858E0A445F6
:100A200017DC9F25C4F20205AC452DDC5725C4F226
:100A30000205AC4550DC1025C4F20205AC4500F0BF
:100A40008A802825C4F20205AC4500F08480402548
:100A50006BE045F22F45C5F60205AC4527DC40F2B8
:100A6000B745C4F20205AC4542DC40F27045C4F221
:100A70000205AC456FD040F28845C4F20205AC4592
:100A800069D040F2A04550E040F22745C4F202058B
:100A9000AC453CDCA025C4F20205AC455BD0B825D2
:100AA000C4F20205AC4556D040F210453DE045F297
:100AB0006B45C5F60205AC453ADC45F23045C5F656
:100AC0000205AC4547D045F24445C5F60205AC45A4
:100AD00041D045F2584539E05825C4F20205AC45ED
:100AE00039D07025C4F20205AC4534D088251CE00D
:100AF00040F2B845C4F20205AC452CD045F2084599
:100B0000C5F60205AC4526D045F21C451EE040F274
:100B10002845C4F20205AC451DD040F24045C4F260
:100B20000205AC4517D040F25845C4F202050FE06B
:100B300045F26C45C5F60205AC450CD045F294452E
:100B4000C5F60205AC4506D045F28045C5F602055E
:100B5000AC4540F0CA80456EC66E002E866E6E6053
:100B60001CBFD0E91C566E60A44515DC9F24C4F25E
:100B70000204A4452BDC5724C4F20204A4454EDC35
:100B80001024C4F20204A44576D02824C4F202043E
:100B9000A44571D040246BE045F22F44C5F6020411
:100BA000A44527DC40F2B744C4F20204A44542DC69
:100BB00040F27044C4F20204A4455DD040F288447F
:100BC000C4F20204A44557D040F2A04450E040F2E1
:100BD0002744C4F20204A4453CDCA024C4F202046D
:100BE000A44549D0B824C4F20204A44544D040F23C
:100BF00010443DE045F26B44C5F60204A4454CDCCC
:100C000045F23044C5F60204A44558D045F24444A8
:100C1000C5F60204A44552D045F258444BE058248E
:100C2000C4F20204A44527D07024C4F20204A445EF
:100C300022D088241CE040F2B844C4F20204A44547
:100C40001AD045F20844C5F60204A44537D045F24F
:100C50001C4430E040F22844C4F20204A4450BD006
:100C600040F24044C4F20204A44505D040F2584486
:100C7000C4F20204A44538D18468C06D00F01F009E
:100C80003F2505FA00F0CEF80800DCF80000402C03
:100C900020F48020CCF800001BE045F26C44C5F63F
:100CA0000204A4450BD045F28044C5F60204A445D5
:100CB00005D045F29444C5F60204A44515D1C46D8F
:100CC000012504F01F04806805FA04F4CEF80440FE
:100CD0004028CCF8043004D1CCF80820CCF80C1013
:100CE00070BDCCF80810CCF80C2070BD7047704770
:100CF00080B5E8B190F83510022917D140F20F42C3
:100D00000168C4F20202914214DC6F23C4F20203B0
:100D1000994224DC3F23C4F2020399423ADC1023B7
:100D2000C4F20203994258D0282352E08021416541
:100D30000121C0E040F26F43C4F2020399421ADC81
:100D400040F23F43C4F2020399422ADC40F21043CE
:100D5000C4F20203994240D040F2284339E09F2375
:100D6000C4F20203994225DC7023C4F202039942C3
:100D700033D088232DE040F29F43C4F2020399420E
:100D80001FDC40F27043C4F20203994225D040F2C6
:100D900088431EE04023C4F2020399421DD0582329
:100DA00017E040F24043C4F20203994215D040F2EA
:100DB00058430EE0A023C4F2020399420DD0B82399
:100DC00007E040F2B843C4F20203994205D040F272
:100DD000A043C4F2020399426FD191424FF0040242
:100DE00080F8352010DC6F20C4F20200814220DC44
:100DF0003F20C4F20200814236DC1020C4F202001F
:100E0000814253D028204EE040F26F40C4F20200ED
:100E100081421ADC40F23F40C4F2020081422ADCE7
:100E200040F21040C4F2020081423FD040F228401C
:100E300039E09F20C4F20200814225DC7020C4F218
:100E40000200814232D088202DE040F29F40C4F25F
:100E5000020081421FDC40F27040C4F20200814275
:100E600024D040F288401EE04020C4F202008142BB
:100E70001CD0582017E040F24040C4F202008142EA
:100E800014D040F258400EE0A020C4F2020081428B
:100E90000CD0B82007E040F2B840C4F20200814212
:100EA00004D040F2A040C4F202008142086820F061
:100EB000010008600021084680BD0A6822F00E0289
:100EC0000A6045F25742C5F6020291420A6822F0D2
:100ED00001020A600EDC45F22F42C5F60202914281
:100EE00017DC45F20842C5F60202914226D045F2CF
:100EF0001C421FE045F27F42C5F60202914211DC1E
:100F000045F25842C5F60202914217D045F26C42B2
:100F100010E045F23042C5F6020291420ED045F291
:100F2000444207E045F29442C5F60202914205D0E0
:100F300045F28042C5F6020291421AD1D0E9181C4E
:100F4000D0E916E30A6822F480720A6003F01F01F8
:100F5000012202FA01F1CEF80410816ECCF80410DF
:100F6000C16E31B10A6822F480720A60D0E91C12A5
:100F70004A60002180F83410012280F83520026D8B
:100F8000002A98D0904795E7406D70472DE9F047CB
:100F900082B00021019140F200010446C2F20041FA
:100FA00048F2B512C1F64E32A56D096840F26F499C
:100FB0000068C4F20209A1FB021848452E6829689E
:100FC00015DC9F21C4F2020188422BDC5721C4F2B8
:100FD000020188424FDC1021C4F20201884278D01D
:100FE0002821C4F20201884273D040216CE045F20E
:100FF0002F42C5F60202904227DC40F2B742C4F20B
:101000000202904243DC40F27041C4F20201884285
:101010005FD040F28841C4F20201884259D040F2C8
:10102000A04151E040F22741C4F2020188423DDC78
:10103000A021C4F2020188424BD0B821C4F20201BF
:10104000884246D040F210413EE045F26B42C5F680
:101050000202904273DC45F23042C5F60202904231
:1010600000F0808045F24442C5F60202904279D0F9
:1010700045F2584271E05821C4F20201884228D05A
:101080007021C4F20201884223D088211CE040F282
:10109000B842C4F2020290421BD045F20842C5F6A3
:1010A000020290425ED045F21C4256E040F22841D6
:1010B000C4F2020188420CD040F24041C4F2020165
:1010C000884206D040F25841C4F20201884240F002
:1010D0000C83E16D082201F01F0140F20F4A8A40A3
:1010E000C4F2020A324200F0D18050454FF00403AE
:1010F00012DC6F27C4F20207B84261DC3F27C4F25A
:101100000207B84200F392801027C4F20207B842E7
:1011100000F0B0802827A8E048455DDC40F23F475A
:10112000C4F20207B84200F3888040F21047C4F2CC
:101130000207B84200F09E8040F2284795E045F251
:101140006C42C5F6020290420CD045F28042C5F6D0
:101150000202904206D045F29442C5F60202904245
:1011600040F0C3820268E36D570703F01F030ED5FA
:1011700004279F4017EA010609D011046F603AD492
:1011800091063CD4016821F00401016037E0970723
:1011900037D502279F4017EA010632D011046F604D
:1011A00000F1A682910600F1A782016821F00A01F0
:1011B0000160002084F83400012084F835009BE2AF
:1011C0009F27C4F20207B84240DC7027C4F202072E
:1011D000B8424FD0882748E040F29F47C4F2020748
:1011E000B8423ADC40F27047C4F20207B84241D03C
:1011F00040F2884739E0D00301D4A16C72E2216C3F
:1012000070E2120740F1718208229A40114000F00A
:101210006C82016821F00E010160012000FA03F1E7
:1012200069606065002184F8341058E24027C4F2F8
:101230000207B8421ED0582717E040F24047C4F2D8
:101240000207B84216D040F258470EE0A027C4F279
:101250000207B8420ED0B82707E040F2A047C4F218
:101260000207B84206D040F2B847C4F20207B842BB
:1012700018BF082307681F4208D0036823F004033F
:101280000360AA60626D42F00102626501228A4039
:1012900032426AD0504510DC6F23C4F202039842F8
:1012A0001CDC3F23C4F20203984232DC1023C4F258
:1012B0000203984251D028234AE048451ADC40F204
:1012C0003F43C4F2020398422ADC40F21043C4F2C6
:1012D0000203984241D040F2284339E09F23C4F2F0
:1012E0000203984225DC7023C4F20203984234D0F2
:1012F00088232DE040F29F43C4F2020398421FDC92
:1013000040F27043C4F20203984226D040F2884370
:101310001EE04023C4F2020398421ED0582317E077
:1013200040F24043C4F20203984216D040F25843C0
:101330000EE0A023C4F2020398420ED0B82307E0C7
:1013400040F2A043C4F20203984206D040F2B843F0
:10135000C4F20203984240F0D18143691B0604D5D0
:10136000AA60626D42F00202626504228A40324243
:101370006AD0504510DC6F23C4F2020398421CDC93
:101380003F23C4F20203984232DC1023C4F202036A
:10139000984251D028234AE048451ADC40F23F43A6
:1013A000C4F2020398422ADC40F21043C4F2020362
:1013B000984241D040F2284339E09F23C4F202030F
:1013C000984225DC7023C4F20203984234D088236B
:1013D0002DE040F29F43C4F2020398421FDC40F22A
:1013E0007043C4F20203984226D040F288431EE0C4
:1013F0004023C4F2020398421ED0582317E040F263
:101400004043C4F20203984216D040F258430EE023
:10141000A023C4F2020398420ED0B82307E040F2A2
:10142000A043C4F20203984206D040F2B843C4F28B
:101430000203984240F0648103689B0704D5AA60C8
:10144000626D42F004026265102202FA01F131423B
:101450007BD050454FF0080210DC6F23C4F202032A
:1014600098421CDC3F23C4F20203984232DC102372
:10147000C4F20203984251D028234AE048451ADCBE
:1014800040F23F43C4F2020398422ADC40F2104388
:10149000C4F20203984241D040F2284339E09F232E
:1014A000C4F20203984225DC7023C4F2020398427E
:1014B00034D088232DE040F29F43C4F202039842C7
:1014C0001FDC40F27043C4F20203984226D040F27F
:1014D00088431EE04023C4F2020398421ED05823E2
:1014E00017E040F24043C4F20203984216D040F2A3
:1014F00058430EE0A023C4F2020398420ED0B82352
:1015000007E040F2A043C4F20203984206D040F242
:10151000B843C4F20203984218BF0422036813427E
:1015200013D0A96001684903016806D4C90506D42F
:10153000016821F00801016001E0080301D4216C79
:1015400000E0A16C09B120468847E06D00F01F0162
:10155000202000FA01F2324200F0A080206810231F
:10156000504510DC6F27C4F20207B8421CDC3F274D
:10157000C4F20207B84232DC1027C4F20207B842B4
:1015800051D028274AE048451ADC40F23F47C4F2D0
:101590000207B8422ADC40F21047C4F20207B84200
:1015A00041D040F2284739E09F27C4F20207B842F1
:1015B00025DC7027C4F20207B84234D088272DE01A
:1015C00040F29F47C4F20207B8421FDC40F2704766
:1015D000C4F20207B84226D040F288471EE04027F6
:1015E000C4F20207B8421ED0582717E040F2404725
:1015F000C4F20207B84216D040F258470EE0A027C6
:10160000C4F20207B8420ED0B82707E040F2A04764
:10161000C4F20207B84206D040F2B847C4F202074B
:10162000B84218BF022307681F4237D0AA6094F857
:101630003520042A026819D122F01602026042699C
:1016400022F080024261226C0AB9A26C1AB10268CF
:1016500022F0080202603F208840A860002084F841
:101660003400012084F83500216D3BE0510301680E
:101670000CD4C9050ED4016821F0100101600020CE
:1016800084F83400012084F8350003E0080301D415
:10169000616C00E0E16B09B120468847606D20B3C2
:1016A000606DC0071DD0042084F8350020684FEA23
:1016B0009821026822F00102026000BF019A013203
:1016C00001928A4202D80268D207F7D1002184F839
:1016D00034100068C0074FF0030008BF012084F8F1
:1016E0003500E16C09B12046884702B0BDE8F087BB
:1016F000D00301D4616CF5E7E16BF3E7026834E6EF
:101700000268A1E62DE9F041044600F012FD002C2C
:1017100000F0E08040F26F4805462068C4F20208FD
:10172000404515DC9F21C4F2020188422BDC572181
:10173000C4F20201884251DC1021C4F20201884245
:101740007AD02821C4F20201884275D040216EE08F
:1017500045F22F41C5F60201884227DC40F2B7412D
:10176000C4F20201884245DC40F27041C4F2020139
:10177000884261D040F28841C4F2020188425BD0C5
:1017800040F2A04153E040F22741C4F202018842F6
:101790003FDCA021C4F2020188424DD0B821C4F23E
:1017A0000201884248D040F2104140E045F26B41CE
:1017B000C5F60201884200F3908045F23041C5F63B
:1017C0000201884200F09C8045F24441C5F60201C6
:1017D000884200F0958045F258418CE05821C4F2CF
:1017E0000201884228D07021C4F20201884223D02D
:1017F00088211CE040F2B841C4F2020188421BD0AB
:1018000045F20841C5F60201884279D045F21C41F3
:1018100071E040F22841C4F2020188420CD040F24B
:101820004041C4F20201884206D040F25841C4F25D
:101830000201884240F0AA81002184F8341002217C
:1018400084F83510016821F0010101600168C907C1
:1018500006D000F06EFC401B052836D82068F5E75E
:1018600048F23F0204F108060168CFF61062114009
:1018700065694CCE1143A2691943E3693143266A75
:101880000D43616A1543042943EA050343EA06034D
:1018900003D1D4E90B6533432B4341F20006C5F66F
:1018A00000463668B6F1005F71D36568A5F13F0662
:1018B000132E66D80127B74040F20F36C0F20F064C
:1018C00037425ED043F4801361E02020606503203E
:1018D00084F835000120BDE8F08145F26C41C5F681
:1018E000020188420CD045F28041C5F602018842CF
:1018F00006D045F29441C5F60201884240F0468187
:10190000002184F83410022184F835100168A2689F
:10191000A2F18003E768B3FA83F3402A4FEA531336
:101920004FEA83336FF3101108BF1023226941EA95
:10193000D70167691943A36941EAD201E26941EA23
:10194000D701276A41EAD30141EAD20141EA1711DE
:1019500040F808194CF6CD41C0B2CCF6CC41A0FB02
:1019600001016FF0030000EA9100E0652046FEF7F8
:1019700001FFE16D012201F01F0102FA01F1416056
:1019800040E0A5F12906062E38BF43F4801303601A
:101990000429436923F0070341EA030127D1D4E96D
:1019A0000A5341EA050113B3B2F5005F06D08AB9C4
:1019B000022D12D0012D07D07DB118E0032D16D8CD
:1019C000DFE805F00E0B0E02A3F1C072B2FA82F24C
:1019D000520904E0032D03D309D1C3F3006232B1ED
:1019E00040206065012084F83500BDE8F081416148
:1019F0002046FEF7BFFEE16D3F2201F01F0102FA13
:101A000001F181602068404517DC9F21C4F202018A
:101A100088422DDC5721C4F20201884250DC10219B
:101A2000C4F20201884200F089802821C4F2020138
:101A3000884200F0838040216BE045F22F41C5F6DB
:101A40000201884227DC40F2B741C4F20201884219
:101A500042DC40F27041C4F2020188426ED040F292
:101A60008841C4F20201884268D040F2A04150E0AF
:101A700040F22741C4F2020188423CDCA021C4F2BA
:101A8000020188425AD0B821C4F20201884255D0DE
:101A900040F210413DE045F26B41C5F6020188423B
:101AA0003ADC45F23041C5F60201884246D045F2A3
:101AB0004441C5F60201884240D045F2584139E020
:101AC0005821C4F20201884238D07021C4F20201C8
:101AD000884233D088211CE040F2B841C4F20201B0
:101AE00088422BD045F20841C5F60201884225D034
:101AF00045F21C411EE040F22841C4F20201884236
:101B00001CD040F24041C4F20201884216D040F29B
:101B10005841C4F202010FE045F26C41C5F60201E2
:101B200088420BD045F29441C5F60201884205D0A7
:101B300045F28041C5F60201884220D12046FEF7D9
:101B4000A5FEA068802802D10020606000E06068E7
:101B500004F16007C1B201388CCF072811605F60C3
:101B600009D82046FEF701FF04F16C02002307CAE2
:101B700003604A6003E00020C4E91B0060670020A6
:101B80006065012184F83510BDE8F08140209DE6B4
:101B9000B0B5D0B3054690F83400012801D1022039
:101BA000B0BD012085F8340095F83500012826D114
:101BB000022085F83500002068652868046824F054
:101BC000010404602846FEF721FFB7212868C4F20B
:101BD000020188421BDD40F25741C4F202018842F3
:101BE00026DC40F22741C4F2020188423BDCB821E6
:101BF000C4F20201884253D040F210414BE0002071
:101C000085F834004FF4006068650120B0BD5721AD
:101C1000C4F2020188421ADD8721C4F2020188421F
:101C20002ADC5821C4F20201884239D0702132E006
:101C300040F28741C4F20201884224DC40F258415C
:101C4000C4F2020188422BD040F2704123E01021FF
:101C5000C4F20201884223D02821C4F20201884242
:101C60001ED0402117E040F22841C4F20201884210
:101C700016D040F240410EE08821C4F202018842B1
:101C80000ED0A02107E040F2A041C4F20201884238
:101C900006D040F28841C4F20201884240F023811C
:101CA00001680B2262F344010160296C19B10168DB
:101CB00041F00801016040F26F41C4F20201884224
:101CC00017DC9F22C4F2020290422DDC5722C4F29C
:101CD0000202904250DC1022C4F20202904200F054
:101CE00089802822C4F20202904200F083804022C0
:101CF0006BE045F22F42C5F60202904227DC40F22B
:101D0000B742C4F20202904242DC40F27042C4F296
:101D1000020290426ED040F28842C4F20202904227
:101D200068D040F2A04250E040F22742C4F20202E2
:101D300090423CDCA022C4F2020290425AD0B82267
:101D4000C4F20202904255D040F210423DE045F20A
:101D50006B42C5F6020290423ADC45F23042C5F6CB
:101D60000202904246D045F24442C5F60202904239
:101D700040D045F2584239E05822C4F20202904263
:101D800038D07022C4F20202904233D088221CE084
:101D900040F2B842C4F2020290422BD045F208420F
:101DA000C5F60202904225D045F21C421EE040F2E8
:101DB0002842C4F2020290421CD040F24042C4F2D7
:101DC0000202904216D040F25842C4F202020FE0E2
:101DD00045F26C42C5F6020290420BD045F29442A5
:101DE000C5F60202904205D045F28042C5F60202D5
:101DF000904272D12A6E1368DB0303D5136843F453
:101E000080731360EA6E1AB1136843F48073136031
:101E100040F20F42C4F20202904210DC6F21C4F281
:101E2000020188421CDC3F21C4F20201884232DCFC
:101E30001021C4F2020188424FD028214AE0884292
:101E40001ADC40F23F41C4F2020188422ADC40F22F
:101E50001041C4F2020188423FD040F2284139E0EB
:101E60009F21C4F20201884225DC7021C4F20201E4
:101E7000884232D088212DE040F29F41C4F2020115
:101E800088421FDC40F27041C4F20201884224D033
:101E900040F288411EE04021C4F2020188421CD079
:101EA000582117E040F24041C4F20201884214D0A8
:101EB00040F258410EE0A021C4F2020188420CD049
:101EC000B82107E040F2B841C4F20201884204D0D0
:101ED00040F2A041C4F202018842016841F00101D0
:101EE00001600020B0BD40F2B841C4F20201884256
:101EF00001683FF4D6AE052262F343010160296C0C
:101F000000293FF4D8AE016841F00401D2E6000098
:101F1000B0B5044600F00DF940F208010546C2F2E2
:101F20000041621C097818BF0C4400BF00F001F9A1
:101F3000401BA042FAD3B0BD2DE9F04F86B00F6828
:101F40000290002F00F0E68002988C4600F12642B5
:101F50000A2102F1FF7342F20042C5F602024FF07D
:101F6000000990424FEAB32208BF0921092A4FF025
:101F7000010238BF4FEAB32101264FF0000A4FF0AB
:101F800000080091CDF804C0701E02FA00FE17EAA6
:101F90000E0100F0A980DCF804B00491BBF1120F2F
:101FA00000F2B18002FA0BF717F0061F00F0AB80C9
:101FB000029C032101FA0AF2A368DCF80C70934337
:101FC000D14307FA0AF21A43A26062684FEA1B1370
:101FD0004FEA480522EA0E0283401A4362604BF042
:101FE0001003E268122BDCF8083002EA010203FA5F
:101FF00005F3039142EA0302E26014D16FF003019A
:1020000009F01C0701EA50020F212244B940D2F81E
:1020100020E0DCF810302EEA0101BB40029C19439D
:102020001162DCF804B00BF003012268039BA940A5
:102030001A405FEACB0341EA02012160DDF804C0E7
:102040004FF00102049C4FD544F2F44240F2084E96
:10205000C5F60202C5F6000E0F27116841F0020115
:102060001160116801F00201059120F00301059A49
:1020700009F00C024FF0B04051F80E309740BB43CE
:10208000009F07FA02F21A4341F80E2040F2040EB4
:10209000C5F6000EDEF87C10DCF8042041EA0403EB
:1020A000D70358BF21EA04039703CEF87C30DEF84B
:1020B000801041EA040358BF21EA0403D702CEF896
:1020C0008030016841EA040358BF21EA0403920208
:1020D0004FF001020360DEF8001041EA040358BF2C
:1020E00021EA0403CEF80030DCF8007008F10108A2
:1020F00037FA06F10AF1020A06F1010609F10409AC
:102100007FF442AF06E00321554601FA0AF7029C2C
:10211000F94364E706B0BDE8F08F002A08BF090460
:102120008161704741F20000C5F600400068000C74
:10213000704740F21420C2F200400068704740F23D
:10214000080040F21421C2F20040C2F200410078BF
:102150000A6810440860704780B5032000F0A5F8B5
:1021600000F04CFE44F2184145F60433C5F6020176
:10217000C0F600030A68C2F30322096801F00F01E8
:102180009A5C595C02F01F02D04040F20402C2F295
:10219000004201F01F0120FA01F1116040F200013C
:1021A000C2F200410860002000F007F808B10120E9
:1021B00080BD00F02CF8002080BDB0B540F20801D1
:1021C000C2F200410978F9B1044640F20000C2F2BF
:1021D00000404FF47A72B2FBF1F10068B0FBF1F00D
:1021E00001F0CEFB0F2C4FF001050ED868B94FF06F
:1021F000FF3000222146002500F028F840F20C00B4
:10220000C2F20040046000E001252846B0BD81B064
:1022100044F2F440C5F60200016841F00201016099
:10222000006800F002000090009801B0704700289C
:102230000BD44EF2001300F01F014009CEF2000350
:10224000012202FA01F143F82010704770B54EF6F2
:102250000C5C4FF0FF36CEF2000C00F16045DCF86C
:102260000030C3F3022E8EF00703042B28BF042393
:10227000BEF1030406FA03F321EA030100F00F03A1
:1022800038BF0024043BB0F1FF3F634406FA04F07A
:1022900003F10C0301FA04F1C8BF05F5644322EA17
:1022A000000008430001187070BD4EF60C514FF647
:1022B000FF03CEF200010A681A4060F30A2242F0DE
:1022C000806040F0FD70086070470000B0B544F6D3
:1022D0000C05C5F6020529684907296805D401F0EF
:1022E0000701081A18BF0120B0BD21F007010843FB
:1022F0002860FFF71EFF044655F8080C800407D439
:10230000FFF717FF001BB0F57A7FF5D90120B0BDAC
:102310000020B0BD2DE9F0470446C07844F21048D3
:102320000007C5F6020825D5606E4FEA3051032933
:102330000AD8DFE801F0020B1018D8F81C1041F49D
:102340000031C8F81C100EE0012614E0201D022107
:1023500001F0C8FE04E004F12400022101F048FF6E
:10236000064640B9606ED8F8401021F44011084389
:10237000C8F8400000266078C00701D1354629E042
:10238000606D04280DD83546DFE800F0030E131900
:102390001900D8F81C00354640F40030C8F81C007D
:1023A0000DE00125012716E0201D002101F09AFE15
:1023B00004E004F12400002101F01AFF05462F4635
:1023C0004DB9D8F84000616D20F0070000250843A2
:1023D000C8F8400037466078800729D5A06D4FEADD
:1023E000B01004280BD8DFE800F0030D1218180015
:1023F000D8F81C0040F40030C8F81C000DE001259E
:10240000012616E0201D002101F06CFE04E004F11D
:102410002400002101F0ECFE05462E464DB9D8F807
:102420004000A16D20F4E07000250843C8F840008A
:102430003E46607840072CD5D4F8A4004FEA70508F
:1024400004280BD8DFE800F0030E13191900D8F8A0
:102450001C0040F40030C8F81C000EE001254FF0CD
:10246000010917E0201D002101F03CFE04E004F109
:102470002400002101F0BCFE0546A94655B9D8F854
:102480004800D4F8A41020F4600000250843C8F8E0
:102490004800B146607800072BD5D4F8A8004FEA71
:1024A000306004280BD8DFE800F0030D1218180084
:1024B000D8F81C0040F40030C8F81C000DE00125DD
:1024C000012717E0201D002101F00CFE04E004F1BB
:1024D0002400002101F08CFE05462F4655B9D8F89E
:1024E0004800D4F8A81020F0E06000250843C8F8A0
:1024F00048004F46E078800722D5A06C4FEA3010A4
:1025000003280AD8DFE800F011020C11D8F81C00EB
:1025100040F40030C8F81C0007E00125012610E057
:10252000201D022101F0DEFD05462E464DB9D8F8EA
:102530003C00A16C20F0300000250843C8F83C00A6
:102540003E466078C00629D5E06D4FEA3030042859
:102550000BD8DFE800F0030D12181800D8F81C00A3
:1025600040F40030C8F81C000DE00125012716E0FA
:10257000201D002101F0B6FD04E004F1240000213B
:1025800001F036FE05462F464DB9D8F84000E16D02
:1025900020F4E04000250843C8F840003746607842
:1025A000800622D5206E4FEA3040052809D8DFE8A2
:1025B00000F011030B111111201D012101F092FDFA
:1025C00007E00125012611E004F12400012101F0BA
:1025D0000FFE05462E464DB9D8F84000216E20F476
:1025E000E02000250843C8F840003E4660784006D9
:1025F00024D5D4F8AC004FEA3070052809D8DFE8BC
:1026000000F011030B111111201D012101F06AFDD1
:1026100007E00125012712E004F12400012101F067
:10262000E7FD05462F4655B9D8F84800D4F8AC1058
:1026300020F0E04000250843C8F84800374660789D
:1026400000061ED5E06E88B1B0F1005F09D0B0F190
:10265000805F28D1D8F81C0040F40030C8F81C0076
:1026600004E0201D012101F03DFD05462E464DB937
:10267000D8F84000E16E20F0405000250843C8F82B
:1026800040003E46E078C00724D0606C03280DD897
:10269000DFE800F015021015D8F81C0040F40030F7
:1026A000C8F81C000BE001250126EBE701254FF0DF
:1026B000010910E0201D022101F014FD0546A94684
:1026C0004DB9D8F83C00616C20F0030000250843A8
:1026D000C8F83C00B146A078400601D44F4617E048
:1026E000D8F8F00340F48070C8F8F003FFF721FD3C
:1026F000064600BFD8F8F003C00507D4FFF719FD60
:10270000801B6428F6D90325032701E02F468DB1ED
:102710002078C00753D0A06F4FEAF00005283AD8C0
:10272000DFE800F042033C424242201D012101F05B
:10273000D9FC38E0D8F86010D4F8B000414011F46A
:10274000407F11D0D8F86010D8F8602042F4803271
:10275000C8F86020D8F8602021F4407122F480325B
:10276000C8F86020C8F86010B0F5807F40F00382A0
:10277000FFF7DFFC064641F2883A0325032700BF36
:10278000D8F86000800700F1F481FFF7D2FC801BCD
:102790005045F5D9BCE70125012611E004F12400DC
:1027A000012101F025FD05462E464DB9D8F844001B
:1027B000A16F20F0380000250843C8F844003E46C9
:1027C0002078800720D5606F052809D8DFE800F061
:1027D00011030B111111201D012101F083FC07E0F1
:1027E0000125012711E004F12400012101F000FD81
:1027F00005462F464DB9D8F84400616F20F0070018
:1028000000250843C8F8440037462078400722D501
:10281000D4F89000052809D8DFE800F011030B1167
:102820001111201D012101F05DFC07E001260125A9
:1028300012E004F12400012101F0DAFC05462E46E5
:1028400055B9D8F84800D4F8901020F007000025BA
:102850000843C8F848003E462078800624D5D4F8BE
:102860008C004FEA3070052809D8DFE800F011032A
:102870000B111111201D002101F034FC07E001278C
:10288000012512E004F12400022101F0B1FC05460B
:102890002F4655B9D8F84400D4F88C1020F0E04009
:1028A00000250843C8F8440037462078400624D560
:1028B000D4F898004FEAB020052809D8DFE800F0E6
:1028C00011030B111111201D002101F00BFC07E079
:1028D0000126012512E004F12400022101F088FC08
:1028E00005462E4655B9D8F84800D4F8981020F47B
:1028F000E05000250843C8F848003E46207800060E
:1029000024D5D4F89C004FEA7030052809D8DFE8B8
:1029100000F011030B111111201D002101F0E2FB49
:1029200007E00127012512E004F12400022101F053
:102930005FFC05462F4655B9D8F84800D4F89C10DE
:1029400020F4604000250843C8F848003746206856
:10295000010716D5D4F88010B1F5805F0AD104F1D3
:102960002400022101F044FC002818BF0127206840
:10297000D4F88010D8F8442022F440521143C8F80B
:102980004410C10616D5D4F89410B1F5807F0AD151
:1029900004F12400022101F02BFC002818BF0127BC
:1029A0002068D4F89410D8F8482022F440721143DB
:1029B000C8F8481000031FD5D4F8A000B0F5003FB8
:1029C0000ED0B0F5803F05D068BB201D002101F07E
:1029D00089FB04E004F12400022101F009FC054612
:1029E0002E4655B9D8F84800D4F8A01020F440304D
:1029F00000250843C8F848003E46A078400727D580
:102A0000D4F88400B0F5401F16D0B0F5001F0DD0EB
:102A1000B0F5801F40F0AA80D8F81C0040F40030C8
:102A2000C8F81C0008E001260125E6E704F12400AF
:102A3000012101F0DDFB05462F4655B9D8F84400C9
:102A4000D4F8841020F4401000250843C8F844004E
:102A50003746A078C00701D13E461EE0E06CB0F5D5
:102A6000803F07D0B8B9D8F81C0040F40030C8F84F
:102A70001C0004E0201D022101F034FB05462E4617
:102A80005DB9D8F83C00E16C20F4803000250843A3
:102A9000C8F83C00E0E7012601252068810008D540
:102AA00004F12400022101F0A3FB002818BF012635
:102AB000206881031BD5E16F6FF0010202EB312228
:102AC000022A0AD34FEA31223AB1012A06D1D8F8B4
:102AD0001C2042F40032C8F81C200DB1012606E08B
:102AE000D8F8442022F440721143C8F84410C102BF
:102AF00007D5D8F84010226F21F000411143C8F8E3
:102B00004010C10008D5D8F80010D4F8B42021F442
:102B100080411143C8F80010810207D5D8F8401051
:102B2000A26E21F080711143C8F8401041000CD50D
:102B3000D8F8001021F40041C8F80010D4F8B810FB
:102B4000D8F800201143C8F80010B0F1FF3F07DCAF
:102B5000D8F83C00216D20F040500843C8F83C00F4
:102B6000002E18BF01263046BDE8F0870127012559
:102B70006FE7D4F8B0004FF6CF73D8F80020C0F25A
:102B8000FF0300F4407122F47C5203EA1013B1F504
:102B9000407F4FF0000508BF1A436FF31F30C8F89D
:102BA0000020D8F860100843C8F8600096E50000DF
:102BB0002DE9F04381B0002800F01B8142F20008AB
:102BC0000446C5F200288946D8F8000000F00F003E
:102BD00088420ED2D8F8000020F00F0040EA090029
:102BE000C8F80000D8F8000000F00F00484540F099
:102BF0000081206844F200474107C5F602070AD564
:102C00002169BA6902F07002914204D9BA6922F0CE
:102C100070021143B96101070AD56169FA6902F0CE
:102C20007002914204D9FA6922F070021143F961ED
:102C3000C1060AD5A169FA6902F4E062914204D999
:102C4000FA6922F4E0621143F96181060AD5E1696B
:102C50003A6A02F07002914204D93A6A22F0700294
:102C60001143396210F002010AD0E268BB6903F037
:102C70000F039A4204D9BB6923F00F031A43BA61C8
:102C8000C20738D0B86920F47061D4E90102032882
:102C900041EA0201B96105D0022807D139688903E8
:102CA0000DD4A6E03968890109D4A2E00128396869
:102CB00002D1C90503D49CE0490740F19A803969E3
:102CC00021F0070108433861FFF733FA064641F265
:102CD000883500BF3869616800F03800B0EBC10F7B
:102CE00006D0FFF726FA801BA842F3D9032081E023
:102CF000206800F0020151B1E168BA6902F00F02E8
:102D0000914204D2BA6922F00F021143B961D8F896
:102D1000001001F00F0149450DD9D8F8001021F03D
:102D20000F0141EA0901C8F80010D8F8001001F0BD
:102D30000F0149455DD141070AD52169BA6902F001
:102D40007002914204D2BA6922F070021143B96153
:102D500001070AD56169FA6902F07002914204D252
:102D6000FA6922F070021143F961C1060AD5A1691E
:102D7000FA6902F4E062914204D2FA6922F4E06254
:102D80001143F96180060AD5E069396A01F07001E2
:102D9000884204D2396A21F070010843386200F099
:102DA0002DF8B96945F60433C0F60003C1F30321D9
:102DB000BA6902F00F02595C9A5C01F01F0120FA17
:102DC00001F102F01F0040F2040221FA00F0C2F209
:102DD0000042106040F20C0040F20002C2F20040DB
:102DE000C2F200420068116001B0BDE8F043FFF795
:102DF000E4B9012001B0BDE8F083000044F20041D5
:102E0000C5F602010869C0F3C20003280FD00228EA
:102E10002BD078BB0868800649F20000C0F2D030A1
:102E200058BF70470968C1F3C101C84070478A6A3A
:102E3000886AC0F3051CCB6A486B03F00103BCF140
:102E4000000FC0F3CC0003FB00F000EE100AB8EE58
:102E5000400A14D002F00302022A12D0A2B9086874
:102E6000800614D49FED251A1EE047F64000C0F2FC
:102E70007D10704740F60010C0F23D007047002002
:102E800070479FED1D1A0FE09FED1A1A0CE00868BD
:102E900049F20002C0F2D032C0F3C10022FA00F0C1
:102EA00001EE100AB8EE411A02EE10CA9FED144A64
:102EB000B8EE422A086B6FF35F2003EE100A81EE32
:102EC000021AB8EE433A086B00EE043AB7EE000A75
:102ED000C0F34620013033EE000A21EE000A01EE75
:102EE000100AB8EE411A80EE010ABCEEC00A10EEDC
:102EF000100A70470024744A20BCBE4B0024744C56
:102F000000000039F0B581B0002800F025810446AA
:102F1000007844F20046C007C5F6020612D03069B8
:102F200000F03801B06A102905D018292BD100F023
:102F30000300022827D13068800303D56068002889
:102F400000F00A812078800777D5306910F03801C9
:102F5000B06A29D0182908BF5FEA807024D0E068E1
:102F6000316800283DD021F0190108433060FFF797
:102F7000E0F80546306840071DD4FFF7DAF8401B3B
:102F80000228F7D98BE16068E8B3B0F5803F07D03D
:102F9000B0F5A02F306840F06F8140F480203060A1
:102FA000306840F480306DE13068400703D5E06858
:102FB000002800F0D180FFF7B5F841F20301884204
:102FC00008D820697168402821F47C3132D141F45D
:102FD000003031E07068216920F0FE4040EA016075
:102FE0002AE021F001003060FFF7A3F8054600BF9A
:102FF0003068400721D5FFF79CF8401B02284FF0AE
:103000000300F5D94CE1306820F48030306030683E
:1030100020F480203060FFF78CF80546306880038C
:103020007FF590AFFFF785F8401B64284FF0030051
:10303000F4D935E141EA003070602078C00651D5FE
:10304000306900F03801B06A082905D0182918D174
:1030500000F00300012814D13068C00502D5E069F2
:10306000802879D1FFF75EF841F2030188421CD82D
:10307000206A7168202821F0F84130D141F0804069
:103080002FE0E0690028306817D040F08000306001
:10309000FFF74FF8054600BF3068C005E2D4FFF7E0
:1030A00048F8401B0228F7D9F9E0F068216A20F0BF
:1030B0007C5040EA0160F06014E020F08000306055
:1030C000FFF737F8054600BF3068C0050AD5FFF79F
:1030D00030F8401B02284FF00300F5D9E0E041EA48
:1030E000806070602078000738D42078800648D44B
:1030F0002078400759D4656A65B3306900F038001C
:10310000182840F09780012DB16A306B24D001F06F
:103110000302A36A9A421FD1C1F30511E26A9142E8
:103120001AD10146226B6FF35F21013A914213D10C
:10313000C0F34621626B013A91420DD1C0F30641C2
:10314000A26B013A914207D1C0F30660E16B0139ED
:10315000884201D10020A3E00120A1E0606900289D
:10316000706F35D040F001007067FEF7E2FF054652
:10317000706F8007B9D4FEF7DCFF401B0228F7D937
:103180008DE0A0690028306842D040F48050306063
:10319000FEF7CFFF054600BF30688004A8D4FEF7D5
:1031A000C8FF401B0228F7D979E0D6F8000440F4A4
:1031B0008070C6F80004FEF7BCFF0546D6F8000490
:1031C000C00515D4FEF7B5FF401B6428F6D966E0AC
:1031D00020F001007067FEF7ACFF0546706F8007B6
:1031E0007FF583AFFEF7A5FF401B0228F6D956E016
:1031F000A068002856D0012806D00528306F40F07E
:10320000CB8040F004003067306F40F00100C9E02F
:1032100020F480503060FEF78CFF05463068800453
:103220007FF566AFFEF785FF401B02284FF00300D5
:10323000F4D935E0306820F080703060FEF779FF17
:10324000022D05460CD100BF3068800144D5FEF741
:1032500070FF401B02284FF00300F5D920E000BFAB
:10326000306880017FF576AFFEF763FF401B0228D0
:103270004FF00300F4D913E020F480303060306860
:1032800020F480203060FEF754FF0546306880034C
:103290003FF558AEFEF74DFF401B6428F6D90320DA
:1032A00001B0F0BD306F20F001003067306F20F0CA
:1032B00004003067FEF73DFF054641F2883700BF46
:1032C000306F80077FF517AFFEF733FF401BB84222
:1032D0004FF00300F4D9E3E704F12807B06A40F2A5
:1032E000F33188438ECF0843591E40EA02104FF451
:1032F0007E42B06202EB47206FF35F214FF4FE0283
:1033000080B2E36B0844A16B02EB01414FF0FE4237
:1033100001F4FE0102EB0362084402F0FE4108449E
:103320003063F06A4FF6F87120F00100F062706BC4
:10333000A26C884340EAC2007063F06A216C20F0FE
:103340000C000843F062F06A616C20F00200084350
:10335000F062F06A40F48030F062F06A40F40030CD
:10336000F062F06A40F48020F062F06A40F0010000
:10337000F062306840F080703060FEF7DAFE04469C
:10338000306880013FF5E6AEFEF7D3FE001B022851
:103390004FF00300F4D983E720F001003067306F6D
:1033A00020F004003067FEF7C4FE054641F288377E
:1033B000306F80073FF59FAEFEF7BBFE401BB84263
:1033C0004FF00300F4D96BE7704700002DE9F04798
:1033D000066804463769D6F814A00AEA0705D6F845
:1033E000089005F0640094F88180042807D1616F8B
:1033F00020468847216F20468847012000E00020B2
:1034000005F04501012903D1216F2046884701209D
:1034100005F02601022904D1616F2046BDE8F0477E
:10342000084708B1BDE8F08728070BD4380763D5F3
:103430001AF4006060D02068816941F40061816104
:10344000BDE8F087206819F4404F816941F0080118
:103450008161816941F010018161816941F40061FC
:103460008161016921F0080101610ED0B8F1040FFA
:1034700006D0A16FC96941B1B8F1030F00F0BF8058
:10348000E16FC969002940F0AB80806810F4404FBB
:1034900023D11EE0E068102806D32068616E006B1F
:1034A00041F8040B06E000BF082805D3308E616E9A
:1034B00021F8020B616607E0206890F83000616E29
:1034C0000870606E01306066B4F86A000138A4F8D4
:1034D0006A00B4F86A000028DCD1204600F013FF2F
:1034E000012084F88100D4F88400002878D0204698
:1034F000BDE8F047FFF768BF15F4587F92D015F08C
:1035000040000AD02068D4F8841041F00401C4F8C7
:103510008410816941F040018161A8050AD52068C5
:10352000D4F8841041F00101C4F88410816941F499
:1035300000718161E80505F020000AD52168D4F802
:10354000842042F00802C4F884208A6942F4807220
:103550008A6150B12068D4F8841041F08001C4F829
:103560008410816941F020018161D4F88400002831
:103570003FF458AF206809F4404240F26B33B2F593
:10358000404F016821F001010160016921EA030156
:1035900001613ED1816844F2BD3521F44041816032
:1035A000E06FC0F6000548B10565FDF7A1FB28B145
:1035B000D4F8840040F04000C4F88400A06F0028D4
:1035C0003FF430AF0565FDF793FB00283FF42AAFC9
:1035D000D4F8840040F04000C4F88400BDE8F087CF
:1035E000B8F1030F0BD0B8F1040F0DD0B8F1050FEF
:1035F0007FF418AF2046BDE8F04700F0C0B9204680
:10360000BDE8F04700F0B9B92046BDE8F04700F04A
:103610000FB9012084F8810069E7F0B581B0002876
:1036200000F08F8043F6000304460068C4F20003F4
:1036300043F2000E43F6004C9842C4F2010EC4F26D
:10364000000C4FF00001A16203D0604518BF704527
:1036500073D1E16B0125E268984202F1080205EBA3
:1036600051114FEAD20202FB01F118BF70455BD144
:10367000102966D894F8811031B9002084F88000B0
:10368000204600F076F82068022184F88110016855
:1036900021F001010160D4F818C06168BCF1806FAD
:1036A00008BFB1F5800F07D1A16B19B9016841F4CA
:1036B000805101604FF48001E369A56A2B43E56BFB
:1036C0002B43D4E902E2D4E9047642EA03028260A1
:1036D000626BA56B636A42EA0C0242EA0302236A48
:1036E00042EA050242EA0702A76C42EA060242EAFF
:1036F0000302E36C42EA010242EA0302A36D42EADA
:103700000E0242EA070242EA0302C260D9B1026D28
:10371000490222F00101016523D5C168626D21F0E3
:1037200000411143C1601CE0604518BF082908D85A
:10373000704518BF60459BD09CE7E1680F297FF674
:1037400088AF012013E08168012262F3CC218160FF
:103750008168022262F34A218160016D21F001013A
:1037600001650020C4F88400012184F8811001B0B3
:10377000F0BD70B586B0044601A81421FCF745FEE3
:1037800043F600012068C4F2000188424ED144F2A1
:10379000E0400026C5F60200816841F48041816066
:1037A000816801F4804100910099016841F00201B3
:1037B0000160006801A900F00200009000984FF439
:1037C00014400190022002900320049005200590EF
:1037D00040F20040C5F602000396FEF7ADFB40F252
:1037E00078051020C2F20045C4F2020028602820AB
:1037F00068604020C5E902064FF48060C5E9040610
:10380000C5E906664FF44030C5E908062846FDF7CD
:1038100079FF08B1FDF76BFA242000210022A5678B
:10382000AC63FEF713FD2420FEF701FD06B070BD6A
:103830007047B0B5044690F88000012830D00120D0
:1038400084F8800094F88100012826D1A1B31546A0
:1038500092B3032084F881000020C4F88400E1655D
:10386000A4F86050A4F862506066C4E91C00A4F893
:103870006800A4F86A00A068B0F5C02F04D12068E1
:10388000026842F400620260E268102A0AD3A06F64
:103890008269B2F5804F0FD124E0002084F88000C7
:1038A0000220B0BDA06F082A82690AD3B2F5005F7A
:1038B00018D0B2F5804F0AD0002084F88000012093
:1038C000B0BDB2F5804F07D0B2F5005F0AD1B4F8B1
:1038D00062200132520803E0B4F8622003329208F9
:1038E000A4F8622044F2094244F20343C0F6000205
:1038F000C0F60003C0E90F2344F2D3320023C0F620
:103900000002C26422680365936823F40043936055
:10391000B4F862302032FEF73BF948B1D4F88400A5
:1039200040F01000C4F88400012084F88100B0BD8C
:10393000A16F4FF6FF72D4E9000CC9694368B1F575
:10394000807F23EA020218BF2A44BCF5800F426040
:10395000816841F400418160016941F4487101616D
:10396000016841F00101016003D1016841F4007177
:103970000160002084F88000B0BD70477047704738
:10398000411E0020B0EB116F01D0012070474EF2B4
:103990001002F023CEF2000251604EF62351CEF217
:1039A00000010B70072190601160704770477047ED
:1039B0007047B0B590F83C20012A4FF002024FD07A
:1039C000012380F83C3080F83D2040F2004C026832
:1039D000C4F2010C42F4806363455368D2F808E0F6
:1039E00002BF23F470034C68234340F6FF340D6894
:1039F000C4F2000423F07003A24243EA05035360BB
:103A00000EDD4FF6FF73C4F200039A4216DC40F657
:103A10000043C4F200039A4217D041F600030AE0C3
:103A2000B2F1804F11D040F20043C4F200039A4239
:103A30000BD040F60003C4F2000304E0624504D05A
:103A40000023C4F201039A4204D12EF08003896856
:103A5000194391600022012180F83D1080F83C203C
:103A60001046B0BD60B310B5044690F83D0028B9CB
:103A7000002084F83C00204600F024F8022084F85E
:103A80003D002068211D00F0A8FD012084F84800B9
:103A900084F83E0084F83F0084F8400084F8410038
:103AA00084F8420084F8430084F8440084F8450018
:103AB00084F8460084F8470084F83D00002010BDDB
:103AC0000120704780B582B044F600010068C4F25E
:103AD0000101884213D00021C4F2010188420CD1B7
:103AE00044F2F040C5F60200016841F001010160B6
:103AF000006800F001000190019802B080BD44F21E
:103B0000F0400022C5F60200016841F48021016006
:103B10000068022100F48020009000987620FEF7D3
:103B200095FB762002B0BDE88040FEF780BB80B5F3
:103B300090F83C20012A4FF0020200F09A80012305
:103B400080F83C3080F83D208822D0F800C0CFF6C5
:103B5000CE72DCF808301A40CCF808200B686F2BC6
:103B600029DC2F2B34DD4F2B41DC302B6FD0402B49
:103B700079D1D1F804E0C968DCF82030DCF82020E5
:103B800022F00102CCF82020DCF8182022F0F0020C
:103B900042EA011123F00A02CCF8181042EA0E01A1
:103BA000CCF820104FF68872DCF80810CFF6CF72F0
:103BB0001140473155E0B3F1101F0FDB2F21C0F248
:103BC00010018B4239DCB3F1101F40D020213AE0C4
:103BD000EBB3102B3BD0202B39D044E0702B4AD0D4
:103BE000B3F5005F5AD0B3F5801F30D03BE0502BC7
:103BF00067D0602B37D1D1F804E0C968DCF82030F9
:103C000023F01003CCF82030DCF81830DCF820204A
:103C100023F4704322F0A00243EA0131CCF81810DB
:103C200042EA0E11CCF820104FF68872DCF808102A
:103C3000CFF6CF721140673113E03021C0F210018E
:103C40008B4204D04021C0F210018B420BD14FF6C1
:103C50008872DCF80810CFF6CF721140194341F09A
:103C60000701CCF808100022012180F83D1080F8EF
:103C70003C20104680BDD1E901E3C968DCF808208A
:103C800043EA0E0322F47F4243EA01211143CCF8B8
:103C90000810DCF8081041F07701E2E7D1E901E310
:103CA000C968DCF8082043EA0E0322F47F4243EAA5
:103CB00001211143CCF80810DCF8081041F48041D0
:103CC000CFE7D1F804E0C968DCF82030DCF8202028
:103CD00022F00102CCF82020DCF8182022F0F002BB
:103CE00042EA011123F00A02CCF8181042EA0E0150
:103CF000CCF820104FF68872DCF80810CFF6CF729F
:103D000011405731ADE7704710B5044600680169AE
:103D1000890744BFC1685FEA81713FD401694907DF
:103D200044BFC1685FEA417144D40169090744BFD7
:103D3000C1685FEA01714AD40169C90644BFC1681C
:103D40005FEAC1614FD40169C9071CBFC1685FEA5E
:103D5000C17155D10169090644BFC1685FEA0161BB
:103D600056D40169C90544BFC1685FEA016157D4EF
:103D70000169490644BFC1685FEA416158D40169DD
:103D8000890646BFC1685FEA816110BD6FF02001FE
:103D900001612046BDE81040FFF70ABE6FF0020146
:103DA0000161012121778069800749D02046FFF712
:103DB000AAFF4BE06FF004010161022121778069C5
:103DC00010F4407F46D02046FFF79DFF48E06FF09B
:103DD0000801016104212177C069800744D0204691
:103DE000FFF791FF46E06FF0100101610821217794
:103DF000C06910F4407F41D02046FFF784FF43E0C4
:103E00006FF001010161204600F044F82068A1E74D
:103E10006FF0800101612046FFF7C9FD2068A0E72F
:103E20006FF4807101612046FFF7C0FD20689FE7B5
:103E30006FF040010161204600F03DF820689EE7E8
:103E4000204600F025F8204600F023F800202077D7
:103E5000206863E7204600F01BF8204600F019F8C0
:103E600000202077206860E7204600F011F8204607
:103E700000F00FF80020207720685DE7204600F072
:103E800007F8204600F005F80020207720685AE760
:103E90007047704740F2C411C2F20041884209D114
:103EA00040F27000C2F200400168002948BF70472C
:103EB0000139016070477047FEE700F029BC01F04E
:103EC000D1BA01F0B1BD01F0F7BC01F0C7BB01F000
:103ED00009BD80B582B044F2D8400022C5F6020088
:103EE000016841F0010101600068002100F001005B
:103EF000019001980B20FEF7A9F90B2002B0BDE854
:103F00008040FEF794B92DE9F04786B044F2E040D6
:103F10004FF00008C5F60200CDF8148040F20044CE
:103F200001220168C5F6020441F0800101600168C8
:103F300004F5406501F0800100910099016841F0AD
:103F40001001016001684FF4004601F0100100917A
:103F50000099016841F00201016001684FF0010A17
:103F600001F0020100910099016841F00101016036
:103F700000684FF4004100F00100009000982846CE
:103F8000FEF7CBF84FF40051002220464FF40059C1
:103F9000FEF7C3F8CDE9016A01AE28463146CDF8F7
:103FA0000C8003270497FDF7C7FF20463146CDE973
:103FB000019ACDE90387FDF7BFFF06B0BDE8F087A2
:103FC00010B540F2F00443F60000C2F20044C4F21F
:103FD00000004FF0005120604FF4800060604FF40B
:103FE0000030A0600720E0600020C4E90400C4E9BC
:103FF0000611C4E90800C4E90A004FF0804060637C
:1040000004F138002421FCF700FA2046FFF705FBF5
:1040100018B1BDE81040FCF76ABE10BD80B540F293
:10402000C41044F60001C2F20040C4F201010A22A9
:1040300001601321416000218160C0E90321C0E9D2
:104040000511FFF70FFD18B1BDE88040FCF74FBE2A
:1040500080BD80B588B040F278100022C2F20040E6
:1040600000210791C4F20102CDE90511CDE9031148
:10407000CDE90111026042F6DF62C0E901214FF68D
:10408000FF72C2604FF48072C0E904218161FFF7C2
:10409000E9FC08B1FCF72BFE4FF48050049040F28D
:1040A000781004A9C2F20040FFF741FD08B1FCF707
:1040B0001EFE002001A9CDE90100039040F2781016
:1040C000C2F20040FFF775FC08B1FCF710FE08B023
:1040D00080BD0000FEE770474FF6944001F0BCBC85
:1040E00070470000F0B581B044F20047C5F6020702
:1040F000BA6A02F00302032A01D1012075E00546E5
:1041000038680C4620F080603860FEF712F80646EA
:104110003868000105D5FEF70CF8801B0228F7D996
:1041200060E0B86AEE6895E80E0020F47C3040EA62
:104130000130A2F101014FF47E42B86202EB43224A
:104140004FF0FE436FF35F2192B202EB01004FF498
:10415000FE012A6901EB064101F4FE0103EB026254
:10416000084402F0FE410844B863F86A696920F027
:10417000C00040EA0100F862F86AA96920F0200056
:1041800040EA0100F862F86A4FF6F87120F010007A
:10419000F862F86BEA6920EA010040EAC200F863BD
:1041A000F86A40F01000F8622CB1012CF86A06D1D0
:1041B00040F4801005E0F86A40F4002001E040F48B
:1041C0000010F862386840F080603860FDF7B1FF99
:1041D000044600BF3868000106D4FDF7AAFF001BA3
:1041E0000328F7D3032000E0002001B0F0BD000059
:1041F000F0B581B044F20047C5F60207BA6A02F092
:104200000302032A01D1012075E0054638680C46F7
:1042100020F080503860FDF78CFF0646386880003B
:1042200005D5FDF786FF801B0228F7D960E0B86A44
:10423000EE6895E80E0020F07C7040EA0150A2F193
:1042400001014FF47E42B86202EB43224FF0FE437D
:104250006FF35F2192B202EB01004FF4FE012A6975
:1042600001EB064101F4FE0103EB0262084402F097
:10427000FE4108443864F86A696920F4406040EA05
:104280000100F862F86AA96920F4007040EA0100B0
:10429000F862F86A4FF6F87120F48070F862786C72
:1042A000EA6920EA010040EAC2007864F86A40F452
:1042B0008070F8622CB1012CF86A06D140F400003D
:1042C00005E0F86A40F4800001E040F08070F86298
:1042D000386840F080503860FDF72BFF044600BF7F
:1042E0003868800006D4FDF724FF001B0328F7D3AD
:1042F000032000E0002001B0F0BD40F2F000C2F267
:104300000040FFF763B8016840F26F32D1F814C083
:104310008B6943F008038B618B6943F010038B6159
:104320000B6823F001030B600B6923EA02020A61A8
:104330008A6822F440428A6090F881305FEA8C6299
:104340000BD5042B09D0D0F8842042F08002C0F8AD
:1043500084208A6942F020028A6190F881305FEA05
:104360004C620BD5032B09D0D0F8842042F0040214
:10437000C0F884208A6942F040028A615FEA8C5268
:1043800009D5D0F8842042F00102C0F884208A695F
:1043900042F400728A615FEACC5209D5D0F88420D9
:1043A00042F00802C0F884208A6942F480728A616F
:1043B0000021A0F86210A0F86A107047806B0021FD
:1043C000A0F86A10A0F86210012180F88110FEF7B1
:1043D000FBBF10B5846BFCF7D7FD022808BF10BDEA
:1043E0002046FFF790FFD4F8840040F01000C4F896
:1043F0008400012084F881002046BDE81040FEF7CB
:10440000E3BF806BFFF7BABA806B90F88110072981
:1044100008BF7047816FC969B1F5807F01D1FFF78F
:10442000ACBA0068016941F008010161704770474A
:10443000FDF785BEB0B5CCB044F6180439A84C21C0
:10444000C5F60204FBF7E1FF31A82021FBF7DDFFF1
:1044500002A8BC21FBF7D9FF0220FDF737FF00209F
:104460000190206840F440402060206800F4404003
:10447000019040F22C40C5F60000016841F00101B6
:104480000160006800F0010001900198206880043C
:10449000FCD50220399001213C9140253D95429068
:1044A00000244394042144913C21CDE94510CDE9F9
:1044B00047000C20CDE9490439A84B94FEF722FDB2
:1044C0003F20319003200421CDE932040820CDE9BA
:1044D000340536954FF48060CDE9370531A8FEF7F5
:1044E00067FB4FF48050029002A81994FDF712FF69
:1044F0004CB0B0BD80B54EF6085C42F2000ECEF274
:10450000000CC5F2002EDCF8801041F47001CCF8EC
:104510008010DEF8001001F00F01062906D8DEF841
:104520000010072262F30301CEF8001044F20041AC
:104530004EF67F53C5F60201CEF6F6230A6842F026
:1045400001020A6000220A61086818400860DEF86B
:104550000000000706D5DEF80000072363F3030020
:10456000CEF8000040F200208A61CA61C0F2022049
:104570000A6288620020C0F2FF10C86240F2802008
:10458000C0F2011008634A638863CA6308644A641E
:10459000086820F48020086041F200000A66C5F631
:1045A00000400068B2EB507F05D148F208100121AD
:1045B000C5F20010016044F2000043F2D201C5F2DE
:1045C000002001604FF00060CCF8000080BD40F298
:1045D000C410C2F20040FFF797BB10B540F6FF329F
:1045E000C4F20002904202680DDCB0F1804F1BD093
:1045F00040F20043C4F20003984215D040F6000395
:10460000C4F200030EE040F60043C4F200039842F7
:104610000AD040F20043C4F20103984204D00023C0
:10462000C4F20103984203D122F070024B681A438E
:104630004FF6FF7343F6FF7CC4F20003C4F2010C93
:10464000984210DD60451ADD44F20003C4F2010314
:1046500098422AD044F60003C4F20103984224D0C1
:1046600044F2004312E040F2FF73C4F200039842A8
:104670000FDCB0F1804F18D040F2004311E000236E
:10468000C4F20103984210D040F20043C4F2010387
:1046900009E040F60003C4F20003984205D040F65A
:1046A0000043C4F20003984203D122F44072CB6865
:1046B0001A4322F080024C696045D1F800E08B6813
:1046C00042EA04020260C362C0F828E00EDD44F250
:1046D0000002C4F20102904213D044F60002C4F278
:1046E000010290420DD044F2004206E00022C4F2E2
:1046F0000102904205D040F20042C4F20102904211
:1047000001D1096901630121416110BDFEE700008B
:104710002DE9F04182B041F200050746C5F60205D9
:104720008046A5F5406647F8081F4FF40051012266
:1047300030460124FDF7F1FC4FF4005100223046D1
:10474000FDF7EBFCC820FDF7E3FB4FF4005101221D
:104750003046FDF7E2FC4FF4004100222846FDF709
:10476000DCFC38688DF8074090F881100129FBD1F6
:104770000DF107010122FFF75CF84FF47A70FDF7A5
:10478000C7FB4FF4004100222846FDF7C6FCCB20B2
:104790008DF80700386800BF90F881100129FBD11F
:1047A0000DF107010122FFF744F84FF40041012207
:1047B0002846FDF7B2FC39208DF80700386800BFA5
:1047C00090F881100129FBD10DF107010122FFF7BB
:1047D00030F84FF4004101222846FDF79EFC2C20C2
:1047E0008DF80700386800BF90F881100129FBD1CF
:1047F0000DF107010122FFF71CF84FF400410122DF
:104800002846FDF78AFC00208DF80700386800BFB5
:1048100090F881100129FBD10DF107010122FFF76A
:1048200008F84FF4004101222846FDF776FC3420B9
:104830008DF80700386800BF90F881100129FBD17E
:104840000DF107010122FEF7F4FF4FF400410122B0
:104850002846FDF762FC02208DF80700386800BF8B
:1048600090F881100129FBD10DF107010122FEF71B
:10487000E0FF4FF4004100222846FDF74EFCCF2018
:104880008DF80700386800BF90F881100129FBD12E
:104890000DF107010122FEF7CCFF4FF40041012288
:1048A0002846FDF73AFC00208DF80700386800BF65
:1048B00090F881100129FBD10DF107010122FEF7CB
:1048C000B8FF4FF4004101222846FDF726FCC12025
:1048D0008DF80700386800BF90F881100129FBD1DE
:1048E0000DF107010122FEF7A4FF4FF40041012260
:1048F0002846FDF712FC30208DF80700386800BF0D
:1049000090F881100129FBD10DF107010122FEF77A
:1049100090FF4FF4004100222846FDF7FEFBE820FF
:104920008DF80700386800BF90F881100129FBD18D
:104930000DF107010122FEF77CFF4FF40041012237
:104940002846FDF7EAFB85208DF80700386800BF90
:1049500090F881100129FBD10DF107010122FEF72A
:1049600068FF4FF4004101222846FDF7D6FB0020E6
:104970008DF80700386800BF90F881100129FBD13D
:104980000DF107010122FEF754FF4FF4004101220F
:104990002846FDF7C2FB78208DF80700386800BF75
:1049A00090F881100129FBD10DF107010122FEF7DA
:1049B00040FF4FF4004100222846FDF7AEFBEA20FD
:1049C0008DF80700386800BF90F881100129FBD1ED
:1049D0000DF107010122FEF72CFF4FF400410122E7
:1049E0002846FDF79AFB00208DF80700386800BFC5
:1049F00090F881100129FBD10DF107010122FEF78A
:104A000018FF4FF4004101222846FDF786FB0020E5
:104A10008DF80700386800BF90F881100129FBD19C
:104A20000DF107010122FEF704FF4FF400410022BF
:104A30002846FDF772FBED208DF80700386800BFAF
:104A400090F881100129FBD10DF107010122FEF739
:104A5000F0FE4FF4004101222846FDF75EFB642082
:104A60008DF80700386800BF90F881100129FBD14C
:104A70000DF107010122FEF7DCFE4FF40041012297
:104A80002846FDF74AFB03208DF80700386800BF71
:104A900090F881100129FBD10DF107010122FEF7E9
:104AA000C8FE4FF4004101222846FDF736FB1220D4
:104AB0008DF80700386800BF90F881100129FBD1FC
:104AC0000DF107010122FEF7B4FE4FF4004101226F
:104AD0002846FDF722FB81208DF80700386800BFCB
:104AE00090F881100129FBD10DF107010122FEF799
:104AF000A0FE4FF4004100222846FDF70EFBF720F0
:104B00008DF80700386800BF90F881100129FBD1AB
:104B10000DF107010122FEF78CFE4FF40041012246
:104B20002846FDF7FAFA20208DF80700386800BF04
:104B300090F881100129FBD10DF107010122FEF748
:104B400078FE4FF4004100222846FDF7E6FAC02027
:104B50008DF80700386800BF90F881100129FBD15B
:104B60000DF107010122FEF764FE4FF4004101221E
:104B70002846FDF7D2FA23208DF80700386800BFD9
:104B800090F881100129FBD10DF107010122FEF7F8
:104B900050FE4FF4004100222846FDF7BEFAC12026
:104BA0008DF80700386800BF90F881100129FBD10B
:104BB0000DF107010122FEF73CFE4FF400410122F6
:104BC0002846FDF7AAFA10208DF80700386800BFC4
:104BD00090F881100129FBD10DF107010122FEF7A8
:104BE00028FE4FF4004100222846FDF796FAC52022
:104BF0008DF80700386800BF90F881100129FBD1BB
:104C00000DF107010122FEF714FE4FF400410122CD
:104C10002846FDF782FA3E208DF80700386800BF6D
:104C200090F881100129FBD10DF107010122FEF757
:104C300000FE4FF4004101222846FDF76EFA2820BD
:104C40008DF80700386800BF90F881100129FBD16A
:104C50000DF107010122FEF7ECFD4FF400410022A7
:104C60002846FDF75AFAC7208DF80700386800BFBC
:104C700090F881100129FBD10DF107010122FEF707
:104C8000D8FD4FF4004101222846FDF746FA862060
:104C90008DF80700386800BF90F881100129FBD11A
:104CA0000DF107010122FEF7C4FD4FF4004100227F
:104CB0002846FDF732FA36208DF80700386800BF25
:104CC00090F881100129FBD10DF107010122FEF7B7
:104CD000B0FD4FF4004101222846FDF71EFA48209E
:104CE0008DF80700386800BF90F881100129FBD1CA
:104CF0000DF107010122FEF79CFD4FF40041002257
:104D00002846FDF70AFA3A208DF80700386800BFF8
:104D100090F881100129FBD10DF107010122FEF766
:104D200088FD4FF4004101222846FDF7F6F9552091
:104D30008DF80700386800BF90F881100129FBD179
:104D40000DF107010122FEF774FD4FF4004100222E
:104D50002846FDF7E2F9B1208DF80700386800BF5A
:104D600090F881100129FBD10DF107010122FEF716
:104D700060FD4FF4004101222846FDF7CEF90020E6
:104D80008DF80700386800BF90F881100129FBD129
:104D90000DF107010122FEF74CFD4FF40041012205
:104DA0002846FDF7BAF918208DF80700386800BFCB
:104DB00090F881100129FBD10DF107010122FEF7C6
:104DC00038FD4FF4004100222846FDF7A6F9B62031
:104DD0008DF80700386800BF90F881100129FBD1D9
:104DE0000DF107010122FEF724FD4FF400410122DD
:104DF0002846FDF792F908208DF80700386800BFB3
:104E000090F881100129FBD10DF107010122FEF775
:104E100010FD4FF4004101222846FDF77EF9822063
:104E20008DF80700386800BF90F881100129FBD188
:104E30000DF107010122FEF7FCFC4FF400410122B5
:104E40002846FDF76AF927208DF80700386800BF6B
:104E500090F881100129FBD10DF107010122FEF725
:104E6000E8FC4FF4004100222846FDF756F9F220F5
:104E70008DF80700386800BF90F881100129FBD138
:104E80000DF107010122FEF7D4FC4FF4004101228D
:104E90002846FDF742F900208DF80700386800BF6A
:104EA00090F881100129FBD10DF107010122FEF7D5
:104EB000C0FC4FF4004100222846FDF72EF92620C1
:104EC0008DF80700386800BF90F881100129FBD1E8
:104ED0000DF1070101220124FEF7ABFC4FF4004164
:104EE00001222846FDF719F938688DF8074000BF00
:104EF00090F881100129FBD10DF107010122FEF785
:104F000098FC4FF4004100222846FDF706F9E02006
:104F10008DF80700386800BF90F881100129FBD197
:104F20000DF107010122FEF784FC4FF4004101223C
:104F30002846FDF7F2F80F208DF80700386800BF0B
:104F400090F881100129FBD10DF107010122FEF734
:104F500070FC4FF4004101222846FDF7DEF83120B5
:104F60008DF80700386800BF90F881100129FBD147
:104F70000DF107010122FEF75CFC4FF40041012214
:104F80002846FDF7CAF82B208DF80700386800BFC7
:104F900090F881100129FBD10DF107010122FEF7E4
:104FA00048FC4FF4004101222846FDF7B6F80C20DA
:104FB0008DF80700386800BF90F881100129FBD1F7
:104FC0000DF107010122FEF734FC4FF400410122EC
:104FD0002846FDF7A2F80E208DF80700386800BFBC
:104FE00090F881100129FBD10DF107010122FEF794
:104FF00020FC4FF4004101222846FDF78EF80820DE
:105000008DF80700386800BF90F881100129FBD1A6
:105010000DF107010122FEF70CFC4FF400410122C3
:105020002846FDF77AF84E208DF80700386800BF53
:1050300090F881100129FBD10DF107010122FEF743
:10504000F8FB4FF4004101222846FDF766F8F120F5
:105050008DF80700386800BF90F881100129FBD156
:105060000DF107010122FEF7E4FB4FF4004101229C
:105070002846FDF752F837208DF80700386800BF42
:1050800090F881100129FBD10DF107010122FEF7F3
:10509000D0FB4FF4004101222846FDF73EF80720DF
:1050A0008DF80700386800BF90F881100129FBD106
:1050B0000DF107010122FEF7BCFB4FF40041012274
:1050C0002846FDF72AF810208DF80700386800BF41
:1050D00090F881100129FBD10DF107010122FEF7A3
:1050E000A8FB4FF4004101222846FDF716F80320E3
:1050F0008DF80700386800BF90F881100129FBD1B6
:105100000DF107010122FEF794FB4FF4004101224B
:105110002846FDF702F80E208DF80700386800BF1A
:1051200090F881100129FBD10DF107010122FEF752
:1051300080FB4FF4004101222846FCF7EEFF0920D6
:105140008DF80700386800BF90F881100129FBD165
:105150000DF107010122FEF76CFB4FF40041012223
:105160002846FCF7DAFF00208DF80700386800BFFA
:1051700090F881100129FBD10DF107010122FEF702
:1051800058FB4FF4004100222846FCF7C6FFE120FF
:105190008DF80700386800BF90F881100129FBD115
:1051A0000DF107010122FEF744FB4FF400410122FB
:1051B0002846FCF7B2FF00208DF80700386800BFD2
:1051C00090F881100129FBD10DF107010122FEF7B2
:1051D00030FB4FF4004101222846FCF79EFF0E20D1
:1051E0008DF80700386800BF90F881100129FBD1C5
:1051F0000DF107010122FEF71CFB4FF400410122D3
:105200002846FCF78AFF14208DF80700386800BF95
:1052100090F881100129FBD10DF107010122FEF761
:1052200008FB4FF4004101222846FCF776FF0320DB
:105230008DF80700386800BF90F881100129FBD174
:105240000DF107010122FEF7F4FA4FF400410122AB
:105250002846FCF762FF11208DF80700386800BF70
:1052600090F881100129FBD10DF107010122FEF711
:10527000E0FA4FF4004101222846FCF74EFF0720D8
:105280008DF80700386800BF90F881100129FBD124
:105290000DF107010122FEF7CCFA4FF40041012283
:1052A0002846FCF73AFF31208DF80700386800BF28
:1052B00090F881100129FBD10DF107010122FEF7C1
:1052C000B8FA4FF4004101222846FCF726FFC1201E
:1052D0008DF80700386800BF90F881100129FBD1D4
:1052E0000DF107010122FEF7A4FA4FF4004101225B
:1052F0002846FCF712FF48208DF80700386800BFE9
:1053000090F881100129FBD10DF107010122FEF770
:1053100090FA4FF4004101222846FCF7FEFE0820D7
:105320008DF80700386800BF90F881100129FBD183
:105330000DF107010122FEF77CFA4FF40041012232
:105340002846FCF7EAFE0F208DF80700386800BFFA
:1053500090F881100129FBD10DF107010122FEF720
:1053600068FA4FF4004101222846FCF7D6FE0C20D3
:105370008DF80700386800BF90F881100129FBD133
:105380000DF107010122FEF754FA4FF4004101220A
:105390002846FCF7C2FE31208DF80700386800BFB0
:1053A00090F881100129FBD10DF107010122FEF7D0
:1053B00040FA4FF4004101222846FCF7AEFE3620A9
:1053C0008DF80700386800BF90F881100129FBD1E3
:1053D0000DF107010122FEF72CFA4FF400410122E2
:1053E0002846FCF79AFE0F208DF80700386800BFAA
:1053F00090F881100129FBD10DF107010122FEF780
:1054000018FA4FF4004100222846FCF786FE1120CE
:105410008DF80700386800BF90F881100129FBD192
:105420000DF107010122FEF704FA7820FCF770FD68
:105430004FF4004100222846FCF76FFE29208DF82A
:105440000700386890F881100129FBD10DF10701A0
:105450000122FEF7EEF90021404600F0FFF802B00D
:10546000BDE8F081B0B582B00446838800880D465F
:10547000002100220090204600F00CF8D4E9000141
:1054800000FB01F22046294602B0BDE8B04000F022
:10549000C1B900002DE9F04784B041F20005904603
:1054A000C5F602050E4604464FF400410022284688
:1054B0009A46DDF83090FCF730FE2A208DF8050082
:1054C000A06800BF90F881100129FBD10DF1050102
:1054D0000122FEF7AEF94FF4004101222846370AB7
:1054E000FCF71BFEA0688DF8067000BF90F88110D5
:1054F0000129FBD10DF106010122FEF79AF94FF4C3
:10550000004101222846FCF708FEA0688DF80760DC
:1055100090F881100129FBD10DF107010122FEF75E
:1055200088F94FF40041012228464FEA1A26FCF779
:10553000F4FDA0688DF8086090F881100129FBD176
:1055400002A90122FEF775F94FF400410122284615
:10555000FCF7E3FDA0688DF809A000BF90F881106A
:105560000129FBD10DF109010122FEF762F94FF487
:10557000004100222846FCF7D0FD2B208DF80A00C0
:10558000A06800BF90F881100129FBD10DF10A013C
:105590000122FEF74EF94FF40041012228464FEA5E
:1055A0001826FCF7BAFDA0688DF80B6090F8811002
:1055B0000129FBD10DF10B010122FEF73AF94FF45D
:1055C000004101222846FCF7A8FDA0688DF80C8058
:1055D00090F881100129FBD103A90122FEF729F9D6
:1055E0004FF40041012228464FEA1926FCF795FDA9
:1055F000A0688DF80D6000BF90F881100129FBD1E3
:105600000DF10D010122FEF714F94FF400410122C2
:105610002846FCF782FDA0688DF80E9090F8811066
:105620000129FBD10DF10E010122FEF702F94FF421
:10563000004100222846FCF770FD2C208DF80F0059
:10564000A06800BF90F881100129FBD10DF10F0176
:105650000122FEF7EEF804B0BDE8F08770B582B025
:1056600041F200050E46C5F6020504464FF400411E
:1056700000222846FCF751FD36208DF80300A06873
:1056800090F881100129FBD10DF103010122FEF7F1
:10569000D0F80120FCF73CFC032E55D8DFE806F0DB
:1056A0000212233B4FF4004101222846FCF735FD4E
:1056B00048208DF80400A06890F881100129FBD1E2
:1056C00001A921E04FF4004101222846FCF725FD05
:1056D00028208DF80500A06890F881100129FBD1E1
:1056E0000DF1050128E04FF4004101222846FCF7A6
:1056F00014FD88208DF80600A06800BF90F8811086
:105700000129FBD10DF106010122FEF792F84FF4B9
:10571000A070F02116E04FF4004101222846FCF76A
:10572000FCFCE8208DF80700A06800BF90F881100D
:105730000129FBD10DF107010122FEF77AF8F020D3
:105740004FF4A071C4E9000102B070BD2DE9F04F23
:10575000099F5B1AA7EB020798464FF0FF3CBB4638
:1057600048BFC3F10008B3F1FF3F4FF0FF33C8BF9C
:105770004FF0010C002F01D5C7F1000BB7F1FF3F2F
:105780004FEA4809C8BF0123D8454FF6FF7E4FEACC
:105790004B0A1EDDAAEB0805C9F100094FF0FF34E2
:1057A0008FB2B5F1FF3F4FEA8707554417FA81F7EB
:1057B00004F1010496B2614400EBC71707EB4606FB
:1057C000C8BF1A44C8BF4D444445A6F814E0E7DBFF
:1057D0001EE0A9EB0B04CAF100084FF0FF3600BF32
:1057E0008DB2B4F1FF3F4FEA85054C4415FA81F5BF
:1057F00006F1010697B21A4400EBC51505EB470503
:10580000C8BF6144C8BF44445E45A5F814E0E7DB67
:10581000BDE8F08F2DE9F04F03AF81B0804641F233
:10582000000092464FEA42090D46C5F602004FF4C9
:1058300000410122B9F5FA7F28BF4FF4FA7AFCF74C
:105840006CFC0AF1070020F00700ADEB0006B5463E
:10585000BAF1000F08D0280A002100BF7218705456
:10586000023151455570F9D3B9FBFAFBCA4510D83E
:1058700000241FFA8AF500BFD8F8080090F88110BC
:105880000129FBD131462A46FDF7D3FF01345C459F
:10589000F2D30BFB1A91D8F8080000BF90F88120D2
:1058A000012AFBD18AB23146FDF7C3FFA7F10C04F0
:1058B000A546BDE8F08F000010B50446C0E903120C
:1058C00014304FF47A41FAF7A0FD4FF6142000216E
:1058D00020440A2220F811200131B1F5A07FF9D12E
:1058E00010BD0000F0B5ADF5FE7D0446143000217A
:1058F0008DF8FB114FF47A41FAF787FD204600F04E
:105900003BF8A388208800218C2200902046FFF7D6
:10591000C1FD41F200004FF40041C5F60200012232
:10592000FCF7FBFBA06800BF90F881100129FBD1B8
:105930000DF2FB114FF4FA724FF4FA76FDF779FF8E
:10594000002701AD07FB06404FF4FA7200F1140185
:105950002846FAF715FDA06890F881100129FBD1BF
:105960004FF4FA722946FDF764FF0137802FE9D121
:105970000DF5FE7DF0BD00002DE9F0472DED048B07
:1059800082B00446C0689FED269B216940F2102832
:10599000401A4FF6142180B240F2122900EE100A8C
:1059A0004FF61620251866180020C2F20048B8EEFF
:1059B000C08BC2F2004940F23F1A00BF36F8101007
:1059C000471C00EE101AB8EE400B80EE080B20EEDC
:1059D000090BBCEEC00B10EE101AA8F8001035F839
:1059E000102000EE102A82B2B8B2B8EE400B80EE62
:1059F000080B20EE090BBCEEC00B0090204610EE09
:105A0000103AA9F80030FFF7A1FE57453846D5D126
:105A100002B0BDEC048BBDE8F08700BF00BF00BF43
:105A200000000000000059404FF6162240F23F13DC
:105A3000024400BFB2F800C0013B22F802CC02F1E0
:105A40000202F7D14FF692428152704740F2740041
:105A5000C2F200400068704710B50446002808BF35
:105A6000012400BF2046FAF7FAFC002818BF10BD39
:105A7000FFF7ECFF08B18047F4E7002010BD0000FD
:105A8000FCF76AFBFEF7D6FCFEF73DFAFEF721FABB
:105A9000FEF796FAFEF7DDFAFEF7C0FAFEF71CFBFA
:105AA00040F2F0010446C2F20041FEF706FA03217B
:105AB0002046FEF70AFA4FF6FF712046FEF7FFF97F
:105AC0004FF4A07100222046FEF7FDF9002500BF2B
:105AD00005F1D10081B22046FEF7F3F92046FEF72A
