:020000040802F0
:100000007008002441030208A94A0208494802086E
:10001000A14A020869070208915202080000000084
:10002000000000000000000000000000D94E02089F
:10003000810D020800000000F14A0208114F020879
:100040005B0302085B0302085B0302085B03020810
:100050005B0302085B0302085B0302085B03020800
:100060005B0302085B0302085B03020871070208D6
:100070005B0302085B0302085B0302085B030208E0
:100080005B0302085B0302085B0302085B030208D0
:100090005B0302085B0302085B0302085B030208C0
:1000A0005B0302085B0302085B0302085B030208B0
:1000B0005B0302085B0302085B0302085B030208A0
:1000C0005B0302085B0302085B0302085B03020890
:1000D000394D02085B0302085B0302085B03020858
:1000E0005B0302085B030208000000005B030208D8
:1000F0005B0302085B0302085B0302085B03020860
:100100005B0302085B0302085B0302085B0302084F
:100110005B0302085B0302085B0302085B0302083F
:100120005B0302085B0302085B0302085B0302082F
:100130005B0302085B0302085B0302085B0302081F
:1001400000000000000000000000000000000000AF
:100150005B0302085B0302085B0302085B030208FF
:100160005B0302085B0302085B0302085B030208EF
:100170005B0302085B0302085B0302080000000047
:100180005B0302085B0302085B0302085B030208CF
:100190005B0302085B0302085B0302085B030208BF
:1001A0005B0302085B0302085B0302085B030208AF
:1001B0005B0302085B0302085B0302085B0302089F
:1001C0005B0302085B0302085B0302085B0302088F
:1001D0005B0302085B0302085B0302085B0302087F
:1001E0005B0302085B0302085B0302085B0302086F
:1001F0005B0302085B0302085B0302085B0302085F
:100200005B0302085B0302085B0302085B0302084E
:100210005B0302085B030208C15002085B0302088B
:100220005B0302085B0302085B0302080000000096
:100230005B0302085B030208000000005B03020886
:100240005B0302085B0302085B0302085B0302080E
:100250005B0302085B0302085B0302085B030208FE
:100260005B0302085B0302085B0302085B030208EE
:100270005B0302085B0302085B0302080000000046
:100280005B0302085B0302085B0302080000000036
:10029000000000005B03020800F002F800F040F8E4
:1002A0000AA090E8000C82448344AAF10107DA45D1
:1002B00001D100F035F8AFF2090EBAE80F0013F0E3
:1002C000010F18BFFB1A43F001031847545E0000EA
:1002D000745E0000103A24BF78C878C1FAD852077B
:1002E00024BF30C830C144BF04680C6070470000B0
:1002F0000023002400250026103A28BF78C1FBD82F
:10030000520728BF30C148BF0B6070471FB505F0CA
:10031000D1FD9DE8030000F04DF91FBD10B510BDE3
:1003200000F083F91146FFF7F1FF05F075FD00F0CD
:10033000BBF903B4FFF7F2FF03BC00F019F90000AA
:100340000948804709480047FEE7FEE7FEE7FEE769
:10035000FEE7FEE7FEE7FEE7FEE7FEE704480549A5
:10036000054A064B70470000E14F02089902020857
:10037000700200247008002470040024700400241B
:10038000032A40F2308010F0030C00F0158011F8C1
:10039000013BBCF1020F624498BF11F801CB00F899
:1003A000013B38BF11F8013BA2F1040298BF00F8ED
:1003B00001CB38BF00F8013B11F0030300F0A5802A
:1003C000083AC0F0088051F8043B083A51F804CBD1
:1003D000A0E80810F5E7121D5CBF51F8043B40F897
:1003E000043BAFF30080D20724BF11F8013B11F8A2
:1003F00001CB48BF11F8012B24BF00F8013B00F8E6
:1004000001CB48BF00F8012B70474FF0000200B548
:10041000134694469646203922BFA0E80C50A0E827
:100420000C50B1F12001BFF4F7AF090728BFA0E8D5
:100430000C5048BF0CC05DF804EB890028BF40F8A1
:10044000042B08BF704748BF20F8022B11F0804FE3
:1004500018BF00F8012B704770477047704770B5A0
:10046000064600F08BF8056806F10B0020F0070443
:10047000B4429CBF002070BD2B466A68BAB11068B8
:10048000A04210D304F1080188423CBF5068586074
:1004900007D35168101941601168091B0160586049
:1004A0001460101D70BD13465268002AE7D1214622
:1004B000284600F06BF80028DED170BD70B5044608
:1004C000051F00F05BF80068002C14BF446870BD85
:1004D000002C18BFAC423CBF20466468F8D30168CA
:1004E0000A18AA4218BF456003D12A68054611447C
:1004F000016028684119A1421CBF6C6070BD616831
:10050000696021680844286070BD10B5203AC0F0C9
:100510000B80B1E81850A0E81850B1E81850A0E8D6
:100520001850203ABFF4F5AF5FEA027C24BFB1E86F
:100530001850A0E8185044BF18C918C0BDE81040B2
:100540005FEA827C24BF51F8043B40F8043B08BFBB
:100550007047D20728BF31F8023B48BF11F8012B82
:1005600028BF20F8023B48BF00F8012B704700006D
:1005700001491820ABBEFEE7260002000048704784
:1005800028000024704770477047704738B504460C
:100590000A4600206946AFF30080002808BF38BD36
:1005A00002460099204600F065F8012038BD012080
:1005B00000F088B8F8B5AFF30080054600200C467F
:1005C000102000BF0646A819A0420DD93246694640
:1005D0000020AFF30080070008BF00F073F8009818
:1005E000A04218BF0546C419FFF7C8FF05600746BB
:1005F000F01D20F007004619284600F00AF8B44222
:1006000008BFF8BDA21B31463868BDE8F84000F0CD
:1006100031B800210160C0E9011070471020704717
:10062000004870472000002470477546FFF7F8FF28
:10063000AE4605006946534620F00700854618B0CF
:1006400020B5FFF78BFEBDE820404FF000064FF0CD
:1006500000074FF000084FF0000BAC46ACE8C009B3
:10066000ACE8C009ACE8C009ACE8C00921F007015A
:100670008D467047034640688C46002818BF884264
:100680003CBF03464068F8D318681844884207D036
:100690000CF1030020F00700001D411A521A014618
:1006A000081D0A60FFF70ABF10B50446AFF30080CB
:1006B0002046BDE81040FFF73CBE002801D0FFF700
:1006C00057BF704710B500F01DF8BDE81040FFF7A8
:1006D000F4BF70B505460C460A2000E06D1C00F022
:1006E00039F835B128780028F8D102E0641C00F010
:1006F00031F814B120780028F8D1BDE870400A2004
:1007000000F028B810B5012805D0002103A0FFF79C
:10071000E0FF012010BD09A1F8E70000534947524E
:10072000544D454D3A204F7574206F6620686561C1
:1007300070206D656D6F7279000000003A20486589
:100740006170206D656D6F727920636F7272757064
:100750007465640008B569468DF800000320ABBEDF
:1007600008BD000000000000FEE7000000000000DF
:1007700080B540F2CC00C2F2004000F065FC80BDC4
:1007800040F20F420168C4F20202914210DC6F2273
:10079000C4F20202914220DC3F22C4F202029142E2
:1007A00036DC1022C4F20202914254D028224EE0DC
:1007B00040F26F42C4F2020291421ADC40F23F4220
:1007C000C4F2020291422ADC40F21042C4F2020258
:1007D000914240D040F2284239E09F22C4F2020206
:1007E000914225DC7022C4F20202914233D0882269
:1007F0002DE040F29F42C4F2020291421FDC40F21F
:100800007042C4F20202914225D040F288421EE0BA
:100810004022C4F2020291421DD0582217E040F259
:100820004042C4F20202914215D040F258420EE01A
:10083000A022C4F2020291420DD0B82207E040F299
:10084000B842C4F20202914205D040F2A042C4F282
:10085000020291421AD1D0F800C06FF00F024AF69E
:10086000AB2352FA8CF2CAF6AA23A2FB033109A3E6
:100870005F2AC1F302115B5C40F2FF312CEA0101F7
:10088000C36588BF0431816508467047016821F05F
:10089000FF01F8E700061016000610160000000021
:1008A00010B545F257420168C5F6020291420EDCCE
:1008B00045F22F42C5F60202914217DC45F208428A
:1008C000C5F60202914226D045F21C421FE045F2D5
:1008D0007F42C5F60202914211DC45F25842C5F64C
:1008E0000202914217D045F26C4210E045F23042CC
:1008F000C5F6020291420ED045F2444207E045F2AD
:100900009442C5F60202914205D045F28042C5F6F6
:100910000202914219D101784CF6CD42CCF6CC427C
:1009200045F600030839C5F60203A1FB021203F1E4
:100930008001120903EB820302F01F020366012308
:10094000416603FA02F1816610BD02784AF6AB23D4
:10095000CAF6AA234FF0080E103AA2FB032340F276
:100960000F42C4F202024FEA131C914202F1AA04A0
:10097000624688BF0EEB131240F60003A142C4F298
:10098000020303F1800128BF6246D3E700000000A4
:1009900010B50279511E072988BF10BD45F2574C8A
:1009A00045F6FC0E0368C5F6020CC5F6020E63455B
:1009B0000EF1440C0EDC45F22F44C5F60204A342AE
:1009C00017DC45F20844C5F60204A34226D045F2DE
:1009D0001C441FE045F27F44C5F60204A34211DC2B
:1009E00045F25844C5F60204A34217D045F26C44C0
:1009F00010E045F23044C5F60204A3420ED045F2A1
:100A0000444407E045F28044C5F60204A34205D001
:100A100045F29444C5F60204A34209D10EEB8202CA
:100A2000C2660122C0F870C002FA01F1416710BD30
:100A300040F6FC0EC4F2020E0EF1440CEEE700008C
:100A40008169B1F5005F07D079B9816A022912D0B6
:100A5000012916D079B112E0816A03290FD8DFE8A5
:100A600001F0020A021001207047816A03293CBF8D
:100A70000120704703D1C06AC0F3006070470020B6
:100A80007047C06AA0F1C070B0FA80F040097047AA
:100A900070B540F26F44D0F800E0C4F20204D0F820
:100AA00058C0A64519DC9F25C4F20205AE4531DCCD
:100AB0005725C4F20205AE4556DC1025C4F20205E6
:100AC000AE4500F092802825C4F20205AE4500F044
:100AD0008C804025C4F2020584E045F22F45C5F61E
:100AE0000205AE452BDC40F2B745C4F20205AE4527
:100AF00048DC40F27045C4F20205AE4575D040F2C4
:100B00008845C4F20205AE456FD040F2A045C4F25C
:100B1000020567E040F22745C4F20205AE4540DC1D
:100B2000A025C4F20205AE455FD0B825C4F2020587
:100B3000AE455AD040F21045C4F2020552E045F2EB
:100B40006B45C5F60205AE453CDC45F23045C5F6C1
:100B50000205AE4549D045F24445C5F60205AE450D
:100B600043D045F258453BE05825C4F20205AE4556
:100B70003BD07025C4F20205AE4536D08825C4F2BC
:100B800002052FE040F2B845C4F20205AE452CD074
:100B900045F20845C5F60205AE4526D045F21C458E
:100BA0001EE040F22845C4F20205AE451DD040F2D9
:100BB0004045C4F20205AE4517D040F25845C4F294
:100BC00002050FE045F26C45C5F60205AE450CD0B6
:100BD00045F29445C5F60205AE4506D045F280457E
:100BE000C5F60205AE4540F0C980456EC66E002EC2
:100BF000866E6E601CBFD0E91C566E60A64515DC83
:100C00009F24C4F20204A6452BDC5724C4F202043C
:100C1000A6454EDC1024C4F20204A64576D0282452
:100C2000C4F20204A64571D040246BE045F22F4483
:100C3000C5F60204A64527DC40F2B744C4F202041C
:100C4000A64542DC40F27044C4F20204A6455DD0E1
:100C500040F28844C4F20204A64557D040F2A044B2
:100C600050E040F22744C4F20204A6453CDCA02434
:100C7000C4F20204A64549D0B824C4F20204A64531
:100C800044D040F210443DE045F26B44C5F6020406
:100C9000A6454FDC45F23044C5F60204A6455BD0BC
:100CA00045F24444C5F60204A64555D045F25844E1
:100CB0004EE05824C4F20204A64527D07024C4F2A2
:100CC0000204A64522D088241CE040F2B844C4F2B5
:100CD0000204A6451AD045F20844C5F60204A6450A
:100CE0003AD045F21C4433E040F22844C4F20204F6
:100CF000A6450BD040F24044C4F20204A64505D0FC
:100D000040F25844C4F20204A64537D104683F2596
:100D10008668C06D00F01F00402E05FA00F0CCF888
:100D20000800206820F480202060636021D0A1604A
:100D3000E26070BD45F26C44C5F60204A6450BD0D6
:100D400045F28044C5F60204A64505D045F2944418
:100D5000C5F60204A64511D10468C66D806806F088
:100D60001F060125402805FA06F6CCF804606360EA
:100D700002D1A260E16070BDA160E26070BD0000C0
:100D800070470000000000007047000000000000F5
:100D900080B5D8B190F83510022919D140F20F4230
:100DA0000168C4F20202914216DC6F23C4F202030E
:100DB000994226DC3F23C4F2020399423CDC102313
:100DC000C4F2020399425AD0282354E0012080BD86
:100DD00080214165012080BD40F26F43C4F20203CF
:100DE00099421ADC40F23F43C4F2020399422ADCE2
:100DF00040F21043C4F20203994240D040F228432B
:100E000039E09F23C4F20203994225DC7023C4F227
:100E10000203994233D088232DE040F29F43C4F26D
:100E2000020399421FDC40F27043C4F2020399426C
:100E300025D040F288431EE04023C4F202039942C9
:100E40001DD0582317E040F24043C4F202039942F8
:100E500015D040F258430EE0A023C4F20203994299
:100E60000DD0B82307E040F2B843C4F20203994220
:100E700005D040F2A043C4F20203994270D19142DE
:100E80004FF0040280F8352010DC6F22C4F2020219
:100E9000914220DC3F22C4F20202914236DC102251
:100EA000C4F20202914254D028224EE040F26F4236
:100EB000C4F2020291421ADC40F23F42C4F2020242
:100EC00091422ADC40F21042C4F20202914240D028
:100ED00040F2284239E09F22C4F20202914225DC0E
:100EE0007022C4F20202914233D088222DE040F2F7
:100EF0009F42C4F2020291421FDC40F27042C4F2EF
:100F00000202914225D040F288421EE04022C4F203
:100F1000020291421DD0582217E040F24042C4F232
:100F20000202914215D040F258420EE0A022C4F2D3
:100F3000020291420DD0B82207E040F2B842C4F25A
:100F40000202914205D040F2A042C4F20202914254
:100F500024D10068016821F001010160002080BDFA
:100F60000268136823F00E03136045F25742C5F67A
:100F7000020291420A6822F001020A6014DC45F282
:100F80002F42C5F6020291421DDC45F20842C5F629
:100F9000020291422CD045F21C4225E0086820F064
:100FA00001000860002080BD45F27F42C5F60202C4
:100FB000914211DC45F25842C5F60202914217D027
:100FC00045F26C4210E045F23042C5F60202914211
:100FD0000ED045F2444207E045F29442C5F60202C3
:100FE000914205D045F28042C5F6020291421AD1E3
:100FF000D0E9181CD0E916E30A6822F480720A606E
:1010000003F01F01012202FA01F1CEF80410816EF3
:10101000CCF80410C16E31B10A6822F480720A6003
:10102000D0E91C124A60002180F83410012280F8B7
:101030003520026D0AB190470021084680BD0000AE
:10104000406D7047000000002DE9F04381B00021A1
:10105000009140F200010446C2F2004140F26F49A3
:10106000A56DC4F20209086848F2B511C1F64E3107
:101070002668A0FB01084E452F682A6815DC9F20D2
:10108000C4F2020086422BDC5720C4F202008642E2
:101090004FDC1020C4F20200864278D02820C4F22F
:1010A0000200864273D040206CE045F22F40C5F626
:1010B0000200864227DC40F2B740C4F202008642BA
:1010C00043DC40F27040C4F2020086425FD040F23E
:1010D0008840C4F20200864259D040F2A04051E05C
:1010E00040F22740C4F2020086423DDCA020C4F258
:1010F000020086424BD0B820C4F20200864246D09D
:1011000040F210403EE045F26B40C5F602008642D8
:1011100074DC45F23040C5F60200864200F0818062
:1011200045F24440C5F6020086427AD045F2584066
:1011300072E05820C4F20200864228D07020C4F227
:101140000200864223D088201CE040F2B840C4F25E
:10115000020086421BD045F20840C5F602008642D6
:101160005FD045F21C4057E040F22840C4F2020034
:1011700086420CD040F24040C4F20200864206D0C3
:1011800040F25840C4F20200864240F0ED84E06D27
:1011900000F01F01082000FA01F23A4200F0148129
:1011A00040F20F40C4F20200864213DC6F20C4F20A
:1011B0000200864200F38E803F20C4F20200864285
:1011C00000F3CF801020C4F20200864200F0ED80D0
:1011D0002820E5E04E4500F3898040F23F40C4F20C
:1011E0000200864200F3C48040F21040C4F20200C4
:1011F000864200F0DA8040F22840D1E045F26C40AF
:10120000C5F6020086420CD045F28040C5F60200C9
:10121000864206D045F29440C5F60200864240F070
:10122000A3842068E16D01F01F010368580727D5EA
:101230000420884010EA020722D01904686000F1F7
:101240008780980600F18C8440F20F40C4F20200BF
:10125000864200F3AB836F20C4F20200864200F3A3
:10126000E6833F20C4F20200864200F3508410203F
:10127000C4F20200864200F06D84282000F066BCB3
:10128000980742D50220884010EA02073DD0190491
:10129000686000F10E83980600F1988440F20F40D8
:1012A000C4F20200864200F3AF836F20C4F2020052
:1012B000864200F311843F20C4F20200864200F30C
:1012C00056841020C4F20200864200F07384282065
:1012D00000F06CBC9F20C4F20200864251DC7020FA
:1012E000C4F20200864260D0882059E040F29F405C
:1012F000C4F2020086424BDC40F27040C4F20200AD
:10130000864252D040F288404AE0180740F12C84CF
:1013100008208840104000F0278440F20F40C4F2BB
:101320000200864200F32C836F20C4F20200864242
:1013300000F34F833F20C4F20200864200F3938300
:101340001020C4F20200864200F0B1832820A9E3F5
:10135000D80300F1B482A16C002940F00C8300F0A6
:1013600003BC4020C4F2020086421ED0582017E081
:1013700040F24040C4F20200864216D040F258408B
:101380000EE0A020C4F2020086420ED0B82007E092
:1013900040F2B840C4F20200864206D040F2A040BB
:1013A000C4F20200864240F08E8220680423006866
:1013B000184209D02068036823F004030360AA6080
:1013C000606D40F001006065012000FA01F23A42D0
:1013D00070D040F20F40C4F20200864210DC6F2051
:1013E000C4F2020086421CDC3F20C4F202008642A6
:1013F00032DC1020C4F20200864251D028204AE09C
:101400004E451ADC40F23F40C4F2020086422ADC1C
:1014100040F21040C4F20200864241D040F228401F
:1014200039E09F20C4F20200864225DC7020C4F21D
:101430000200864234D088202DE040F29F40C4F262
:10144000020086421FDC40F27040C4F20200864275
:1014500026D040F288401EE04020C4F202008642BE
:101460001ED0582017E040F24040C4F202008642ED
:1014700016D040F258400EE0A020C4F2020086428E
:101480000ED0B82007E040F2B840C4F20200864215
:1014900006D040F2A040C4F20200864240F016821C
:1014A0002068406900F0800020B1AA60606D40F0C3
:1014B00002006065042000FA01F23A4270D040F266
:1014C0000F40C4F20200864210DC6F20C4F202001A
:1014D00086421CDC3F20C4F20200864232DC10202F
:1014E000C4F20200864251D028204AE04E451ADC60
:1014F00040F23F40C4F2020086422ADC40F2104033
:10150000C4F20200864241D040F2284039E09F20D8
:10151000C4F20200864225DC7020C4F2020086423A
:1015200034D088202DE040F29F40C4F20200864271
:101530001FDC40F27040C4F20200864226D040F226
:1015400088401EE04020C4F2020086421ED058208F
:1015500017E040F24040C4F20200864216D040F24A
:1015600058400EE0A020C4F2020086420ED0B820FF
:1015700007E040F2B840C4F20200864206D040F2D2
:10158000A040C4F20200864240F0A68120680068B4
:1015900000F0020020B1AA60606D40F004006065B8
:1015A000102000FA01F139427ED040F20F40C4F21F
:1015B0000200864210DC6F20C4F2020086421CDC6E
:1015C0003F20C4F20200864232DC1020C4F2020046
:1015D000864251D028204AE04E451ADC40F23F4076
:1015E000C4F2020086422ADC40F21040C4F202003B
:1015F000864241D040F2284039E09F20C4F20200E8
:10160000864225DC7020C4F20200864234D0882055
:101610002DE040F29F40C4F2020086421FDC40F2FF
:101620007040C4F20200864226D040F288401EE09C
:101630004020C4F2020086421ED0582017E040F23B
:101640004040C4F20200864216D040F258400EE0FC
:10165000A020C4F2020086420ED0B82007E040F27B
:10166000B840C4F20200864206D040F2A040C4F264
:101670000200864240F03681266808223068104217
:1016800012D0A960206801684903016806D4C90521
:1016900006D4016821F00801016001E008034FD47D
:1016A000216C09B120468847E06D202100F01F0021
:1016B0008140394200F0AE8040F20F432268C4F20C
:1016C00002039A4210DC6F23C4F202039A421CDC2C
:1016D0003F23C4F202039A4236DC1023C4F2020311
:1016E0009A4255D028234EE04A451ADC40F23F4347
:1016F000C4F202039A422EDC40F21043C4F2020309
:101700009A4245D040F228433DE09F23C4F20203B1
:101710009A4229DC7023C4F202039A4238D088230B
:1017200031E040F29F43C4F202039A4223DC40F2CC
:101730007043C4F202039A422AD040F2884322E066
:10174000A16C0029AED1AFE74023C4F202039A4254
:101750001ED0582317E040F24043C4F202039A42DD
:1017600016D040F258430EE0A023C4F202039A427E
:101770000ED0B82307E040F2B843C4F202039A4205
:1017800006D040F2A043C4F202039A4240F0AC807B
:101790002268102312681A423CD0A96094F83520C0
:1017A0002168042A0A681DD122F016020A604A69DB
:1017B00022F080024A61226C0AB9A26C1AB10A684E
:1017C00022F008020A603F2101FA00F0A860002020
:1017D00084F83400012084F83500216D002940F0A0
:1017E000CA80C1E1500308680CD4C0050ED4086853
:1017F00020F010000860002084F83400012084F8F4
:10180000350003E0000301D4616C00E0E16B09B135
:1018100020468847606D002800F0A681606DC007F3
:1018200000F0A580042084F8350040F20F412068C4
:10183000C4F20201884210DC6F21C4F20201884226
:101840001CDC3F21C4F2020188424FDC1021C4F2AB
:10185000020188426FD0282167E048451ADC40F237
:101860003F41C4F20201884247DC40F21041C4F219
:10187000020188425FD040F2284156E09F21C4F225
:101880000201884242DC7021C4F20201884252D037
:1018900088214AE040F29F41C4F2020188423CDCC8
:1018A00040F27041C4F20201884244D040F28841C3
:1018B0003BE0D80376D4616C00295CD154E1216C03
:1018C000002958D150E10823304670E530680020E7
:1018D00000287FF4EAADEDE53068002000287FF4B1
:1018E0005AAE5DE60422C9E6022353E74021C4F262
:1018F000020188421FD0582117E040F24041C4F253
:101900000201884217D040F258410EE0A021C4F2F3
:10191000020188420FD0B82107E040F2B841C4F27A
:101920000201884207D040F2A041C4F2020188427D
:1019300008BF206800E020684FEA9821026822F082
:1019400001020260009801300090884203D82068AC
:101950000068C007F6D12068002184F834100068C0
:10196000C0074FF0030008BF012084F83500E16C88
:10197000002900F0F9802046884701B0BDE8F083D7
:101980004E4532DC40F23F40C4F20200864271DC38
:1019900040F21040C4F20200864200F0888040F21B
:1019A00028407FE0E16B0029E5D1DDE04E454BDCCE
:1019B00040F23F40C4F20200864200F3AF8040F2A2
:1019C0001040C4F20200864200F0C48040F2284079
:1019D000BCE09F20C4F20200864254DC7020C4F2B6
:1019E0000200864263D088205CE040F29F40C4F24F
:1019F000020086424EDC40F27040C4F20200864291
:101A000055D040F288404DE04E4571DC40F23F40F9
:101A1000C4F20200864200F3B18040F21040C4F2EA
:101A20000200864200F0C68040F22840BEE09F20BF
:101A3000C4F2020086427ADC7020C4F202008642C0
:101A400000F08880882081E040F29F40C4F20200CC
:101A5000864273DC40F27040C4F20200864279D0C4
:101A600040F2884072E04020C4F2020086421ED05C
:101A7000582017E040F24040C4F20200864216D0DF
:101A800040F258400EE0A020C4F2020086420ED080
:101A9000B82007E040F2B840C4F20200864206D007
:101AA00040F2A040C4F20200864240F094802668D2
:101AB0006FF01C02306810403060012000FA01F124
:101AC00069606065002184F8341084F83500E16CA9
:101AD00000297FF450AF47E09F20C4F20200864205
:101AE00055DC7020C4F20200864263D088205DE09D
:101AF00040F29F40C4F2020086424FDC40F2704048
:101B0000C4F20200864255D040F288404EE04020A8
:101B1000C4F2020086421DD0582017E040F2404037
:101B2000C4F20200864215D040F258400EE0A020D8
:101B3000C4F2020086420DD0B82007E040F2B8405F
:101B4000C4F20200864205D040F2A040C4F2020076
:101B5000864243D126686FF0080130680840306043
:101B6000216C00297FF407AF01B0BDE8F08340206D
:101B7000C4F2020086421DD0582017E040F24040D7
:101B8000C4F20200864215D040F258400EE0A02078
:101B9000C4F2020086420DD0B82007E040F2B840FF
:101BA000C4F20200864205D040F2A040C4F2020016
:101BB000864216D126686FF0140130680840306004
:101BC000002084F83400012084F83500E16B0029FE
:101BD0007FF4D1AEC8E76FF00E026BE76FF004013F
:101BE000BBE76FF00A01E8E72DE9F04381B0044656
:101BF00000F0D2FD002C00F0758140F26F480546E0
:101C00002068C4F20208404515DC9F21C4F202019D
:101C100088422BDC5721C4F20201884251DC10219A
:101C2000C4F2020188427AD02821C4F2020188421B
:101C300075D040216EE045F22F41C5F60201884281
:101C400027DC40F2B741C4F20201884245DC40F291
:101C50007041C4F20201884261D040F28841C4F26E
:101C6000020188425BD040F2A04153E040F227419C
:101C7000C4F2020188423FDCA021C4F20201884282
:101C80004DD0B821C4F20201884248D040F2104140
:101C900040E045F26B41C5F60201884200F39080B6
:101CA00045F23041C5F60201884200F09C8045F2C1
:101CB0004441C5F60201884200F0958045F2584142
:101CC0008CE05821C4F20201884228D07021C4F26D
:101CD0000201884223D088211CE040F2B841C4F2BE
:101CE000020188421BD045F20841C5F60201884234
:101CF00079D045F21C4171E040F22841C4F2020162
:101D000088420CD040F24041C4F20201884206D021
:101D100040F25841C4F20201884240F0138240F27E
:101D20000F420021C4F2020284F8341090424FF0B6
:101D3000020184F8351012DC6F21C4F202018842DE
:101D400020DC3F21C4F20201884200F3928010217E
:101D5000C4F20201884200F0B1802821A8E0404589
:101D60001EDC40F23F41C4F20201884200F3888049
:101D700040F21041C4F20201884200F09F8040F21C
:101D8000284195E09F21C4F20201884200F381803E
:101D90007021C4F20201884200F09080882187E01F
:101DA00040F29F41C4F20201884279DC40F2704166
:101DB000C4F20201884200F0818040F2884177E05D
:101DC00045F26C41C5F6020188420CD045F28041D3
:101DD000C5F60201884206D045F29441C5F60201DB
:101DE000884240F0AF8104F1080E002084F83400EE
:101DF000022084F835009EE80640A1F180032068A7
:101E0000B3FA83F340294FEA5313D4E90579D4E9AF
:101E1000076C05684FEA83336FF3101508BF102372
:101E200045EAD2014AF6F8321943CAF2FD7241EA94
:101E3000DE014CF6CD4341EAD701024441EAD90123
:101E4000CCF6CC4341EAD601A2FB032341EA1C11A4
:101E500001606FF0030000EA9300E0652046FEF7A2
:101E60008FFCE16D012201F01F0102FA01F14160D6
:101E70009CE04021C4F2020188421FD0582117E0A3
:101E800040F24041C4F20201884217D040F258416A
:101E90000EE0A021C4F2020188420FD0B82107E071
:101EA00040F2B841C4F20201884207D040F2A0419A
:101EB000C4F20201884208BF206800E0206801687F
:101EC00021F00101016000BF27683868C0070DD00C
:101ED00000F062FC401B0628F6D32020606503203A
:101EE00084F83500012001B0BDE8F08348F23F01DD
:101EF00004F108053868CFF6106108402ECD08437C
:101F0000A1691043E2691843236A0543606A2943C3
:101F1000042841EA020141EA030103D1D4E90B2379
:101F20001143194341F20002C5F600421268B2F1B2
:101F3000005F17D36268A2F12903202B06D23F2548
:101F4000CCF2C03525FA03F3DB0706D1A2F14F032B
:101F50000022042B38BF012200E00122002A18BF12
:101F600041F4801139600428796921F0070141EAC0
:101F7000000510D1D4E90A1045EA010558B1204600
:101F8000FEF75EFD38B140206065012084F8350021
:101F900001B0BDE8F08320467D61FEF7F1FBE16D05
:101FA0003F2201F01F0102FA01F1816020684045E3
:101FB00019DC9F21C4F20201884231DC5721C4F2AE
:101FC0000201884256DC1021C4F20201884200F06E
:101FD00091802821C4F20201884200F08B804021C8
:101FE000C4F2020184E045F22F41C5F602018842A5
:101FF0002BDC40F2B741C4F20201884248DC40F2D7
:102000007041C4F20201884274D040F28841C4F2A7
:10201000020188426ED040F2A041C4F2020167E0A2
:1020200040F22741C4F20201884240DCA021C4F200
:10203000020188425ED0B821C4F20201884259D020
:1020400040F21041C4F2020152E045F26B41C5F684
:10205000020188423CDC45F23041C5F6020188426B
:1020600048D045F24441C5F60201884242D045F2CB
:1020700058413BE05821C4F2020188423AD0702115
:10208000C4F20201884235D08821C4F202012FE057
:1020900040F2B841C4F2020188422BD045F2084117
:1020A000C5F60201884225D045F21C411EE040F2EF
:1020B0002841C4F2020188421CD040F24041C4F2DF
:1020C0000201884216D040F25841C4F202010FE0EA
:1020D00045F26C41C5F6020188420BD045F29441AD
:1020E000C5F60201884205D045F28041C5F60201DD
:1020F00088421FD12046FEF7D3FBA068802801D17B
:102100000020606004F160036068C7B201380ECB44
:1021100007280F60536009D82046FEF739FC04F108
:102120006C02002307CA03604A6003E00020C4E990
:102130001B00606700206065012184F8351001B044
:10214000BDE8F0834020C9E6F0B581B0A8B30446ED
:1021500090F83400012802D1022001B0F0BD012026
:1021600084F8340094F83500012820D1022084F846
:1021700035000020606540F20F462068C4F2020678
:1021800040F26F47B042C4F2020719DC6F25C4F277
:102190000205A84225DC3F25C4F20205A8423BDC2B
:1021A0001025C4F20205A8425BD0282553E0002088
:1021B00084F834004FF400606065012001B0F0BD88
:1021C000B8421ADC40F23F45C4F20205A8422ADCBC
:1021D00040F21045C4F20205A84242D040F2284520
:1021E00039E09F25C4F20205A84225DC7025C4F21F
:1021F0000205A84235D088252DE040F29F45C4F263
:102200000205A8421FDC40F27045C4F20205A84254
:1022100027D040F288451EE04025C4F20205A842BE
:102220001FD0582517E040F24045C4F20205A842ED
:1022300017D040F258450EE0A025C4F20205A8428E
:102240000FD0B82507E040F2B845C4F20205A84215
:1022500007D040F2A045C4F20205A84208BF20689A
:1022600000E02068056825F0010505602046FEF7BE
:102270000FFC2068B04210DC6F21C4F202018842DA
:102280001CDC3F21C4F20201884232DC1021C4F27E
:102290000201884251D028214AE0B8421ADC40F2BB
:1022A0003F41C4F2020188422ADC40F21041C4F2EC
:1022B0000201884241D040F2284139E09F21C4F216
:1022C0000201884225DC7021C4F20201884234D028
:1022D00088212DE040F29F41C4F2020188421FDCB8
:1022E00040F27041C4F20201884226D040F2884197
:1022F0001EE04021C4F2020188421ED0582117E09E
:1023000040F24041C4F20201884216D040F25841E6
:102310000EE0A021C4F2020188420ED0B82107E0ED
:1023200040F2B841C4F20201884206D040F2A04116
:10233000C4F20201884240F0298121680B25226CF9
:102340000B6865F344030B601AB10A6842F0080297
:102350000A60B84219DC9F21C4F20201884231DCD4
:102360005721C4F20201884256DC1021C4F2020156
:10237000884200F091802821C4F20201884200F0D6
:102380008B804021C4F2020184E045F22F41C5F662
:10239000020188422BDC40F2B741C4F202018842BC
:1023A00048DC40F27041C4F20201884274D040F22D
:1023B0008841C4F2020188426ED040F2A041C4F2CA
:1023C000020167E040F22741C4F20201884240DC8A
:1023D000A021C4F2020188425ED0B821C4F20201F9
:1023E000884259D040F21041C4F2020152E045F255
:1023F0006B41C5F6020188423CDC45F23041C5F62E
:102400000201884248D045F24441C5F602018842A3
:1024100042D045F258413BE05821C4F202018842C3
:102420003AD07021C4F20201884235D08821C4F22A
:1024300002012FE040F2B841C4F2020188422BD0E1
:1024400045F20841C5F60201884225D045F21C41FB
:102450001EE040F22841C4F2020188421CD040F242
:102460004041C4F20201884216D040F25841C4F201
:1024700002010FE045F26C41C5F6020188420BD023
:1024800045F29441C5F60201884205D045F28041EB
:10249000C5F60201884272D1216E0A68D20303D5C3
:1024A0000A6842F480720A60E16E19B10A6842F467
:1024B00080720A60B04210DC6F21C4F202018842CF
:1024C0001CDC3F21C4F20201884232DC1021C4F23C
:1024D0000201884252D028214AE0B8421ADC40F278
:1024E0003F41C4F2020188422ADC40F21041C4F2AA
:1024F0000201884242D040F2284139E09F21C4F2D3
:102500000201884225DC7021C4F20201884235D0E4
:1025100088212DE040F29F41C4F2020188421FDC75
:1025200040F27041C4F20201884227D040F2884153
:102530001EE04021C4F2020188421FD0582117E05A
:1025400040F24041C4F20201884217D040F25841A3
:102550000EE0A021C4F2020188420FD0B82107E0AA
:1025600040F2B841C4F20201884207D040F2A041D3
:10257000C4F20201884208BF206800E020680168B8
:1025800041F001010160002001B0F0BD2168052586
:10259000226C0B68002A65F343030B603FF4D9AE4D
:1025A0000A6842F00402D3E6B0B5044600F0F4F83D
:1025B00040F214010546C2F20041621C097818BFBE
:1025C0000C4400BF00F0E8F8401BA042FAD3B0BDB5
:1025D0002DE9F04F83B00E68002E00F0C98000F1A5
:1025E00026420A2302F1FF7240F2040C4FEAB222A3
:1025F000019242F20042C5F6000CC5F602024FF00D
:10260000010B90424FF0000508BF092300274FF04F
:10261000010800930AE000BF0E68043736FA08F29A
:1026200008F1010805F1020500F0A280A8F1010AF5
:102630000BFA0AF216EA0209EED04E68122E17D8EB
:102640000BFA06F414F0061F12D00323D0F808E0AA
:10265000AB40CC682EEA0303AC4023438360C6F34F
:102660000014436823EA020204FA0AF31A434260A0
:102670000323C268AB4046F010046FEA030E9A438E
:102680008B68122C03FA05F342EA0302C26012D1EE
:102690006FF0030207F01C0402EA5A020F260244FC
:1026A000A640136AD1F810B0B3430BFA04F44FF00C
:1026B000010B2343136202684B6803F0030402EA30
:1026C0000E02AC40DB0042EA04020260A4D544F2F0
:1026D000F443C5F602031A6842F002021A601A684F
:1026E00007F00C0302F002020292029A2AF003029F
:1026F00040F2084A019C009EC5F6000A092C38BF2A
:1027000026460F2452F80AE09C402EEA040406FAFA
:1027100003F3234342F80A30DCF87C204B6842EA9A
:102720000906DC0358BF22EA09069C034FF0B04EAD
:10273000CCF87C60DCF8802042EA090658BF22EA27
:102740000906DC02CCF88060DEF8002042EA0906C7
:1027500058BF22EA09069B02CEF80060DCF8002090
:1027600042EA090658BF22EA0906CCF8006053E79E
:1027700003B0BDE8F08F0000002A08BF09048161A2
:10278000704700000000000041F20000C5F6004064
:102790000068000C7047000040F26820C2F2004060
:1027A000006870470000000040F2140040F2682109
:1027B000C2F20040C2F2004100780A68104408608A
:1027C000704700000000000080B5032000F080F892
:1027D00000F076FE44F2184145F6CE63C5F60201DC
:1027E000C0F602030A68096801F00F01C2F3032270
:1027F000595C9A5C01F01F0102F01F02D04040F2C8
:102800000402C2F2004220FA01F1116040F200011C
:10281000C2F200410860002000F00AF800281CBF46
:10282000012080BD00F030F8002080BD00000000D5
:10283000B0B540F21401C2F20041097801B3044678
:1028400040F20000C2F200404FF47A72B2FBF1F1A4
:102850000068B0FBF1F001F0CBFD0F2C4FF001054B
:102860000CD858B94FF0FF3000222146002500F067
:102870001FF840F21800C2F2004004602846B0BDC4
:102880000120B0BD0000000081B044F2F440C5F664
:102890000200016841F002010160006800F00200DE
:1028A0000090009801B0704780B503F079FA80BDC0
:1028B00070B514460D46064603F082FA29462246B4
:1028C00002F0F6F80146304603F082FA70BD0000CF
:1028D00080B503F091FA80BDB0B544F60C05C5F69D
:1028E000020529684907296805D401F00701081A7B
:1028F00018BF0120B0BD21F0070108432860FFF791
:102900004BFF044655F8080C800407D4FFF744FF3A
:10291000001BB0F57A7FF5D90120B0BD0020B0BD15
:102920002DE9F04381B00446C07844F22C490007F9
:10293000C5F6020901D400262DE0606E4FEA305042
:1029400003280DD80026DFE800F0020E1613D9F890
:102950000000002640F40030C9F800004EB912E033
:10296000012636B90FE0201D022102F0C5F8064607
:102970004EB1B04611E004F12400022102F04CF9FE
:102980000646002EF5D1D9F82400616E20F44010DF
:102990000843C9F824004FF000086078C0072FD022
:1029A000606D042807D8DFE800F00A131B0303005A
:1029B000F6B1B04624E00126002EFAD118E0D9F88D
:1029C000000040F40030C9F80000002EF1D10FE003
:1029D000201D002102F090F80646002EE9D107E004
:1029E00004F12400002102F017F90646002EE0D180
:1029F000D9F82400616D20F007000843C9F82400CD
:102A00006078800731D5A06D4FEAB010042807D850
:102A1000DFE800F00A131B030300F6B1B04624E020
:102A20000126002EFAD118E0D9F8000040F4003059
:102A3000C9F80000002EF1D10FE0201D002102F0A6
:102A40005BF80646002EE9D107E004F124000021DE
:102A500002F0E2F80646002EE0D1D9F82400A16D7C
:102A600020F4E0700843C9F824006078400733D5AB
:102A7000D4F8A4004FEA7050042807D8DFE800F02B
:102A80000A131B030300F6B1B04625E00126002E11
:102A9000FAD118E0D9F8000040F40030C9F800007D
:102AA000002EF1D10FE0201D002102F025F806468E
:102AB000002EE9D107E004F12400002102F0ACF877
:102AC0000646002EE0D1D9F82C00D4F8A41020F44A
:102AD00060000843C9F82C006078000733D5D4F8AB
:102AE000A8004FEA3060042807D8DFE800F00A1396
:102AF0001B030300F6B1B04625E00126002EFAD1F3
:102B000018E0D9F8000040F40030C9F80000002EA9
:102B1000F1D10FE0201D002101F0EEFF0646002E4E
:102B2000E9D107E004F12400002102F075F806461F
:102B3000002EE0D1D9F82C00D4F8A81020F0E060E5
:102B40000843C9F82C00E078800727D5A06C4FEA2D
:102B50003010032806D8DFE800F002091202AEB1F7
:102B6000B0461BE00126002EFAD10FE0D9F8000094
:102B700040F40030C9F80000002EF1D106E0201D1D
:102B8000022101F0B9FF0646002EE9D1D9F8200054
:102B9000A16C20F030000843C9F820006078C0061E
:102BA00031D5E06D4FEA3030042807D8DFE800F077
:102BB0000A131B030300F6B1B04624E00126002EE1
:102BC000FAD118E0D9F8000040F40030C9F800004C
:102BD000002EF1D10FE0201D002101F08DFF0646EF
:102BE000002EE9D107E004F12400002102F014F8DE
:102BF0000646002EE0D1D9F82400E16D20F4E04033
:102C00000843C9F824006078800625D5206E4FEA75
:102C10003040052807D8DFE800F0030A0F0303035C
:102C200096B1B04618E00126002EFAD10CE0201D26
:102C3000012101F061FF04E004F12400012101F011
:102C4000EBFF0646002EECD1D9F82400216E20F4CB
:102C5000E0200843C9F824006078400627D5D4F85E
:102C6000AC004FEA3070052807D8DFE800F0030A0F
:102C70000F03030396B1B04619E00126002EFAD1E6
:102C80000CE0201D012101F037FF04E004F12400D5
:102C9000012101F0C1FF0646002EECD1D9F82C002D
:102CA000D4F8AC1020F0E0400843C9F82C0060785C
:102CB00000061FD5E06ED0B1B0F1005F12D0B0F1C8
:102CC000805F24D1D9F8000040F40030C9F800003A
:102CD0007EB9D9F82400E16E20F040500843C9F8CD
:102CE000240007E0201D012101F006FF0646002E0A
:102CF000EFD0B046E078C00729D0606C03280AD82E
:102D0000DFE800F0020D1602CEB1B0461FE001264A
:102D1000002EEED1DDE70126002EF6D10FE0D9F826
:102D2000000040F40030C9F80000002EEDD106E0AC
:102D3000201D022101F0E0FE0646002EE5D1D9F863
:102D40002000616C20F003000843C9F82000A0783F
:102D5000400643D5D9F8D40340F48070C9F8D403B1
:102D6000FFF71AFD074600BFD9F8D403C00505D404
:102D7000FFF712FDC01B6528F6D303266EBBD9F8FA
:102D80004410D4F8B000414011F4407F11D0D9F87C
:102D90004410D9F8442042F48032C9F84420D9F8CC
:102DA000442021F4407122F48032C9F84420C9F84B
:102DB0004410B0F5807F0FD1FFF7EEFC074641F2DB
:102DC000893500BFD9F84400800705D4FFF7E4FC3B
:102DD000C01BA842F6D3032686B1B0462078C007B0
:102DE00041D0A06F4FEAF000052823D8DFE800F0BB
:102DF00003262B03030376B3B04634E04FF6CF73BC
:102E0000D4F8B00059F81C2CC0F2FF0300F4407154
:102E100022F47C5203EA1013B1F5407F08BF1A4335
:102E20006FF31F3049F81C2CD9F844100843C9F837
:102E30004400D3E70126002EDED10CE0201D012145
:102E400001F05AFE04E004F12400012101F0E4FE47
:102E50000646002ED0D1D9F82800A16F20F0380006
:102E60000843C9F828002078800723D5606F05281B
:102E700007D8DFE800F0030A0F03030396B1B0465A
:102E800018E00126002EFAD10CE0201D012101F0EE
:102E900033FE04E004F12400012101F0BDFE0646EA
:102EA000002EECD1D9F82800616F20F0070008430C
:102EB000C9F828002078400725D5D4F890000528C7
:102EC00007D8DFE800F0030A0F03030396B1B0460A
:102ED00019E00126002EFAD10CE0201D012101F09D
:102EE0000BFE04E004F12400012101F095FE0646EA
:102EF000002EECD1D9F82C00D4F8901020F0070067
:102F00000843C9F82C002078800627D5D4F88C0017
:102F10004FEA3070052807D8DFE800F0030A0F03F6
:102F2000030396B1B04619E00126002EFAD10CE059
:102F3000201D002101F0E0FD04E004F12400022145
:102F400001F06AFE0646002EECD1D9F82800D4F82C
:102F50008C1020F0E0400843C9F828002078400693
:102F600027D5D4F898004FEAB020052807D8DFE825
:102F700000F0030A0F03030396B1B04619E00126DF
:102F8000002EFAD10CE0201D002101F0B5FD04E077
:102F900004F12400022101F03FFE0646002EECD190
:102FA000D9F82C00D4F8981020F4E0500843C9F860
:102FB0002C002078000627D5D4F89C004FEA70300A
:102FC000052807D8DFE800F0030A0F03030396B1D2
:102FD000B04619E00126002EFAD10CE0201D002198
:102FE00001F08AFD04E004F12400022101F014FE46
:102FF0000646002EECD1D9F82C00D4F89C1020F411
:1030000060400843C9F82C002078000716D5D4F892
:103010008000B0F5805F08D104F12400022101F0A6
:10302000FBFD002818BF4FF00108D9F82800D4F89C
:10303000801020F440500843C9F828002078C006CA
:1030400016D5D4F89400B0F5807F08D104F124009F
:10305000022101F0E1FD002818BF4FF00108D9F866
:103060002C00D4F8941020F440700843C9F82C00C8
:10307000A078000721D5D4F8A000B0F5003F19D002
:10308000B0F5803F10D0C0BB201D002101F034FD01
:1030900006468EB9D9F82C00D4F8A01020F44030A0
:1030A0000843C9F82C0008E004F12400022101F0D3
:1030B000B3FD0646002EEDD0B046A078400729D5D6
:1030C000D4F88400B0F5401F21D0B0F5001F18D00F
:1030D000B0F5801F40F0B480D9F8000040F4003013
:1030E000C9F80000AEB9D9F82800D4F8841020F44B
:1030F00040100843C9F828000CE00126002EDBD15F
:10310000C8E704F12400012101F086FD0646002EE7
:10311000E9D0B046A078C0071FD0E06CB0F5803F82
:1031200010D0B0B9D9F8000040F40030C9F8000060
:1031300096B9D9F82000E16C20F480300843C9F832
:1031400020000AE0201D022101F0D6FC06461EB92F
:10315000EFE70126002EECD0B046E078800608D5D7
:1031600004F12400022101F057FD002818BF4FF0A0
:1031700001082068810313D4C10229D4C10031D4CD
:1031800081023AD4410042D4B0F1FF3F4FDDB8F1A3
:10319000000F18BF4FF00108404601B0BDE8F083B2
:1031A000E16F6FF0010202EB3122022A0AD34FEAEB
:1031B00031223AB1012A48D1D9F8002042F4003234
:1031C000C9F80020002E43D04FF00108C102D5D528
:1031D000D9F82410226F21F000411143C9F82410BE
:1031E000C100CDD559F81C1CD4F8B42021F480417D
:1031F000114349F81C1C8102C4D5D9F82410A26ED1
:1032000021F080711143C9F824104100BCD559F850
:103210001C1C21F4004149F81C1CD4F8B81059F8C2
:103220001C2C114349F81C1CB0F1FF3FAFDCD9F84E
:103230002000216D20F040500843C9F82000A6E787
:103240000126002E7FF465AF4DE70126002EBBD18D
:10325000D9F8282022F440721143C9F82810C1027D
:103260007FF58CAFB4E700002DE9F04381B0002872
:1032700000F0F48042F200080446C5F200288946B6
:10328000D8F8000000F00F0088420ED2D8F80000F5
:1032900020F00F0040EA0900C8F80000D8F800004C
:1032A00000F00F00484540F0D980206844F21847EC
:1032B0004107C5F602070AD521693A6802F0700293
:1032C000914204D93A6822F0700211433960010733
:1032D0000AD561697A6802F07002914204D97A686D
:1032E00022F0700211437960C1060AD5A1697A689B
:1032F00002F4E062914204D97A6822F4E062114358
:10330000796081060AD5E169BA6802F070029142DB
:1033100004D9BA6822F070021143B96081070AD556
:10332000E1683A6802F00F02914204D93A6822F04B
:103330000F0211433960C0077ED1206881070AD58A
:10334000E1683A6802F00F02914204D23A6822F032
:103350000F0211433960D8F8001001F00F01494500
:103360000DD9D8F8001021F00F0141EA0901C8F881
:103370000010D8F8001001F00F0149456ED1410747
:103380000AD521693A6802F07002914204D23A6883
:1033900022F070021143396001070AD561697A6829
:1033A00002F07002914204D27A6822F07002114356
:1033B0007960C1060AD5A1697A6802F4E062914297
:1033C00004D27A6822F4E0621143796080060AD55B
:1033D000E069B96801F07001884204D2B96821F04F
:1033E00070010843B86000F06BF8396845F6CE62AA
:1033F000C0F602023B68C1F3032103F00F03515CE6
:10340000D25C01F01F01C84002F01F0140F204022B
:1034100020FA01F1C2F20042116040F2000140F2D4
:103420001802C2F20041C2F2004208601068FFF7C1
:10343000FFF901B0BDE8F083386820F47061D4E989
:103440000102012841EA020139600BD003282BD088
:1034500002282ED157F8181C890307D4012001B087
:10346000BDE8F08357F8181CC905F7D557F8081CB4
:1034700021F00701084347F8080CFFF78DF90646CD
:1034800041F2883557F8080C616800F03800B0EB5D
:10349000C10F3FF452AFFFF77FF9801BA842F1D96B
:1034A000032001B0BDE8F08357F8181C8901D5D579
:1034B000DCE757F8181C4907D0D5D7E70000000013
:1034C00044F20041C5F602010869C0F3C2000328B6
:1034D0000FD002282AD070BB0868800649F200008D
:1034E000C0F2D03058BF70470968C1F3C101C8406D
:1034F00070478A6A886AC0F3051CC86ABCF1000F6D
:103500004B6B1DD0C3F3CC0300F00100584302F015
:103510000302022A00EE100AB8EE400A12D0A2B945
:103520000868800614D49FED261A1EE047F6400076
:10353000C0F27D10704740F60010C0F23D007047A9
:10354000002070479FED1D1A0FE09FED1B1A0CE045
:10355000086849F20002C0F2D032C0F3C10022FA7A
:1035600000F001EE100AB8EE411A086B9FED153A13
:103570006FF35F2002EE100A086BC0F34620B8EE2E
:10358000422A013000EE032A00EE10CAB7EE003ADC
:10359000B8EE400A81EE000A32EE031A20EE010A6C
:1035A00001EE100AB8EE411A80EE010ABCEEC00A24
:1035B00010EE100A704700BF0024744A20BCBE4BB6
:1035C0000024744C000000392DE9F04381B0F8B1BB
:1035D0008046007844F20049C007C5F602095AD077
:1035E000D9F8100000F03801D9F82800102905D0CA
:1035F00018290FD100F0030002280BD1D9F80000E0
:10360000800344D5D8F80400002840D101272FE0DA
:1036100001271BE2D8F804402CB1B4F5A02F0DD03F
:10362000B4F5803F10D0D9F8000020F48030C9F8FC
:103630000000D9F8000020F4802009E0D9F800004B
:1036400040F48020C9F80000D9F8000040F4803030
:10365000C9F80000FFF7A0F80546A4B1D9F80000AA
:10366000800314D4FFF798F8401B6428F6D9032789
:103670000020002800F0EA810DE000BFFFF78CF881
:10368000401B6428F3D8D9F800008003F6D4012049
:10369000002800F0DB8198F8000080076BD5D9F88E
:1036A000100010F03801D9F828001CD0182908BFE4
:1036B0005FEA807017D0D8F80C00D9F8001098B3E2
:1036C00021F019010843C9F80000FFF765F8054625
:1036D000D9F8000040070DD4FFF75EF8401B022820
:1036E000F6D9032743E0D9F80000400702D5D8F8FF
:1036F0000C00D8B3FFF748F841F2030188420AD81A
:10370000D8F81000D9F80410402821F47C3124D1D5
:1037100041F4003023E0D9F80400D8F8101020F06C
:10372000FE4040EA01601AE021F00100C9F8000003
:10373000FFF732F805460126D9F8000010F0040022
:1037400086EA90040ED0FFF727F8401B0328F3D336
:103750000327002C00F07A810DE041EA0030C9F81F
:1037600004000124002C00F0718104E001270024F2
:10377000002C00F06B8198F80000C00675D5D9F8D0
:10378000100000F03801D9F82800082905D01829C0
:103790001CD100F00300012818D1D9F80000C005A1
:1037A00003D5D8F81C0080285AD1FEF7EDFF41F26E
:1037B0000301884223D8D8F82000D9F80410202823
:1037C00021F0F84143D141F0804042E0D8F81C009C
:1037D0000028D9F8000021D040F08000C9F800008E
:1037E000FEF7DAFF054600BFD9F80000C005DCD4BB
:1037F000FEF7D2FF401B0228F6D9032731E0D9F8A3
:103800000C00D8F8201020F07C50012440EA016020
:10381000C9F80C00002C00F0198126E020F080008F
:10382000C9F80000FEF7B8FF05460126D9F80000E8
:1038300010F4807086EA10240ED0FEF7ADFF401B16
:103840000328F3D30327002C00F000810DE041EAA8
:103850008060C9F804000124002C00F0F78004E027
:1038600001270024002C00F0F18098F800000007E8
:103870001CD498F80000800631D498F80000400766
:1038800045D4D8F82440002C00F0DF80D9F810008F
:1038900000F03800182840F08880012CD9F8281052
:1038A000D9F8300040F0A2800127CFE0D8F814000A
:1038B0000028D9F874003ED040F00100C9F8740027
:1038C000FEF76AFF054600BFD9F874008007D0D420
:1038D000FEF762FF401B0228F6D90327B6E0D8F8AE
:1038E00018000028D9F800004BD040F48050C9F8E7
:1038F0000000FEF751FF0546D9F800008004BCD453
:10390000FEF74AFF401B0228F6D903279EE0D9F8AC
:10391000000440F48070C9F80004FEF73DFF05463E
:10392000D9F80004C0051AD4FEF736FF401B6428FE
:10393000F6D903278AE020F00100C9F87400FEF7E9
:103940002BFF0546032700BFD9F8740080077FF5D9
:1039500090AFFEF721FF401B0228F5D976E0D8F89A
:1039600008401CB1052C75D0012C79D0D9F8700015
:1039700020F00100C9F87000D9F8700020F00400B0
:1039800072E020F48050C9F80000FEF705FF0546FC
:10399000032700BFD9F8000080047FF56EAFFEF763
:1039A000FBFE401B0228F5D950E0D9F8000020F0BA
:1039B0008070C9F80000FEF7EFFE022C05464FF0BC
:1039C000030709D1D9F8000080016FD5FEF7E4FEA6
:1039D000401B0228F6D939E0D9F80000800134D51F
:1039E000FEF7DAFE401B0228F6D92FE001F00302B1
:1039F000D8F828309A4240F0D380C1F30511D8F8A6
:103A00002C20914240F0CE800146D8F830206FF350
:103A10005F21013A914240F0C780C0F34622D8F8B6
:103A2000341001398A4240F0C180C0F30642D8F810
:103A3000381001398A4240F0BB80C0F30660D8F8E4
:103A40003C100139884240F0B5800027F8B201B03F
:103A5000BDE8F083D9F8700040F00400C9F87000A8
:103A6000D9F8700040F00100C9F87000FEF794FE2C
:103A7000002C054641F288344FF0030711D000BFF7
:103A8000D9F8700080073FF5FCAEFEF785FE401BBD
:103A9000A042F5D9DAE700BFFEF77EFE401BA04248
:103AA000D4D8D9F870008007F6D4EAE608F12807E0
:103AB000D9F8280040F2F33188438ECF0843591ECD
:103AC00040EA02104FF47E426FF35F21C9F82800EC
:103AD00002EB47204FF4FE0280B2D8F83C30084495
:103AE000D8F8381002EB01414FF0FE4201F4FE011C
:103AF00002EB0362084402F0FE410844C9F83000BA
:103B0000D9F82C004FF6F87120F00100C9F82C000C
:103B1000D9F83400D8F84820884340EAC200C9F8F0
:103B20003400D9F82C00D8F8401020F00C000843DD
:103B3000C9F82C00D9F82C00D8F8441020F0020065
:103B40000843C9F82C00D9F82C0040F48030C9F89B
:103B50002C00D9F82C0040F40030C9F82C00D9F81A
:103B60002C0040F48020C9F82C00D9F82C0040F03B
:103B70000100C9F82C00D9F8000040F08070C9F8A5
:103B80000000FEF709FE04460327D9F80000800173
:103B90003FF55BAFFEF700FE001B0228F5D955E7A5
:103BA000012753E7012751E701274FE701274DE799
:103BB00001274BE7012749E770470000000000009C
:103BC0002DE9F047066804463769D6F814A00AEADA
:103BD0000705D6F8089005F0640094F88180042861
:103BE00007D1616F20468847216F20468847012012
:103BF00000E0002005F04501012903D1216F204696
:103C00008847012005F02601022903D1616F204673
:103C10008847012008B1BDE8F08728070BD4380792
:103C200063D51AF4006060D02068816941F40061B6
:103C30008161BDE8F087206819F4404F816941F047
:103C400008018161816941F010018161816941F45C
:103C500000618161016921F0080101610ED0B8F1B4
:103C6000040F06D0A16FC96941B1B8F1030F00F08C
:103C7000C080E16FC969002940F0AC80806810F411
:103C8000404F1CD0204601F05FF8012084F88100ED
:103C9000D4F88400002800F09D802046FFF78CFFB8
:103CA000BDE8F0872068616E006B08600420616EDB
:103CB00008446066B4F86A000138A4F86A00B4F8F1
:103CC0006A000028DED0E0681028EBD2082805D36F
:103CD000308E616E08800220E9E700BF206890F80E
:103CE0003000616E08700120E1E715F4587F92D032
:103CF00015F040000AD02068D4F8841041F0040187
:103D0000C4F88410816941F040018161A8050AD599
:103D10002068D4F8841041F00101C4F8841081694E
:103D200041F400718161E80505F020000AD52168A1
:103D3000D4F8842042F00802C4F884208A6942F44E
:103D400080728A6150B12068D4F8841041F08001FB
:103D5000C4F88410816941F020018161D4F88400A5
:103D600000283FF458AF206809F4404240F26B331A
:103D7000B2F5404F016821F001010160016921EABB
:103D8000030101613FD1816844F6016521F440419E
:103D90008160E06FC0F6020548B10565FCF7F8FFE9
:103DA00028B1D4F8840040F04000C4F88400A06F2B
:103DB00000283FF430AF0565FCF7EAFF002808BF94
:103DC000BDE8F087D4F8840040F04000C4F88400D7
:103DD000BDE8F087B8F1030F0BD0B8F1040F0DD098
:103DE000B8F1050F7FF417AF204600F0FDFABDE8EB
:103DF000F087204600F0F0FABDE8F087204600F09A
:103E00000BF9BDE8F087012084F8810045E7000048
:103E10002DE9F041002800F09880044643F60006A2
:103E2000C4F2000643F20007256843F60048B54295
:103E3000C4F20107C4F200084FF00000A06203D0F2
:103E4000454518BFBD427CD1204601F021F8B5425E
:103E500018BFBD4269D1102877D894F8810028B9DD
:103E6000002084F88000204600F072F8022084F8D8
:103E700081002068A2690168B2F1806F21F0010120
:103E8000016009D16168B1F5800F05D1A16B19B945
:103E9000016841F480510160E169A36A1943E36B51
:103EA0000B43D4E90365D4E9011733438360636BA3
:103EB000666A42EA0302A36B42EA060242EA03028E
:103EC000636942EA0502266A42EA0302E36C42EAB7
:103ED0000602A66C42EA010242EA0302A36D42EA2C
:103EE000070242EA060242EA0302C26049B9826856
:103EF000012363F3CC2282608268022363F34A22A7
:103F00008260026D490222F00101016505D5C16898
:103F1000626D21F000411143C1600020C4F88400AB
:103F2000012184F88110BDE8F081454518BF0828BB
:103F30000BD8B54218BFBD428DD045453FF48BAF7D
:103F40008BE7E0680F287FF67FAF0120BDE8F081A6
:103F500070B586B0002643F60001CDE9046604463C
:103F60000068C4F20001039688420296019601D0CF
:103F700006B070BD44F2E040C5F60200816841F42D
:103F800080418160816801F480410091009901685D
:103F900041F002010160006801A900F002000090F8
:103FA00000984FF4144001900220CDE9020603204E
:103FB00004900520059040F20040C5F60200FEF78F
:103FC00007FB40F2CC051020C2F20045C4F202000B
:103FD0002860282068604020C5E902064FF4806010
:103FE000C5E90406C5E906664FF44030C5E9080690
:103FF0002846FDF7F9FD08B1FCF7C6FE2420002194
:104000000022A567AC63FEF753FC2420FEF74CFCAE
:1040100006B070BD00000000704700000000000006
:104020002DE9F047044690F88000012802D10220D3
:10403000BDE8F0871D4617460E46D4F800900120D3
:1040400084F88000FEF7A8FB94F88110012909D1BB
:10405000002E18BF002F0BD1002084F88000012013
:10406000BDE8F087002084F880000220BDE8F087DA
:104070008046032084F881000020C4F88400E665AF
:10408000A4F86070A4F862706066A4F86800A4F8F0
:104090006A00A1682067B1F5C02F606704D120686D
:1040A000016841F400610160D4E900014FF6FF733B
:1040B000B1F5800F426822EA03023A444260026886
:1040C00042F00101016003D1016841F40071016017
:1040D000E168102932D3B4F86200002800F0A9800A
:1040E0006E1C0EE0E16D51F8042B0262E165B4F83C
:1040F00062000138A4F86200B4F86200002800F001
:104100009880206841698907ECD4FEF745FB002EB2
:10411000F2D0A0EB0800A842EED3204600F014FE37
:10412000002084F88000D4F8840040F48070C4F843
:104130008400012084F88100BDE8F087B4F86200B3
:10414000072933D9002874D04FF6FE706E1C471C27
:1041500011E0E06D39460088A9F820000220E26DE8
:104160001044E065B4F862000844A4F86200B4F8B2
:10417000620000285DD020684169890708D4FEF7F5
:104180000BFB002EF3D0A0EB0800A842EFD3C4E74E
:10419000B4F862100229DCD3E16B0029D9D0E16DBB
:1041A0000968016204204FF6FE71D8E7002840D06C
:1041B0004FF6FE706E1CA0F1020A471C10E0E16D84
:1041C000097880F8201001203946E26D1044E0653E
:1041D000B4F862000844A4F86200B4F8620040B386
:1041E00020684169890708D4FEF7D6FA002EF4D07A
:1041F000A0EB0800A842F0D38FE7B4F862100429BE
:1042000008D3E16B412905D3E16D096801620420FF
:104210005146DAE7B4F862100229D0D3E16B0029E5
:10422000CDD0E06D4FF6FE710088A9F82000022085
:10423000CBE7204641462A4600F036FE28B1D4F8A6
:10424000840040F02000C4F88400204600F07CFD8B
:10425000002084F88000012084F88100D4F88400D4
:10426000002818BF0120BDE8F08700000000000012
:10427000B0B5044690F88000012801D10220B0BDFD
:10428000012084F8800094F8810001283BD10029A6
:104290003ED01546E2B3032084F881000020C4F824
:1042A0008400E165A4F86050A4F862506066C4E937
:1042B0001C00A4F86800A4F86A00A068B0F5C02F3C
:1042C00004D12068016841F400610160E0681028B1
:1042D00004D3A16F8969B1F5804F19D1082807D39C
:1042E000A16F8969B1F5005F18BFB1F5804F0FD19B
:1042F000072812D8A06F8069B0F5804F19D0B0F5AB
:10430000005F11D01BE0002084F880000220B0BDC7
:10431000002084F880000120B0BD0F280FD8A06FC6
:104320008069B0F5804F0AD1B4F8620001304008CE
:1043300003E0B4F8620003308008A4F86200A06FC4
:1043400044F6616144F65162C0F60201C0F6020211
:10435000C0E90F1244F621612268C0F60201C1646F
:1043600000210165E16D936823F400439360B4F884
:1043700062302032FDF7E8FE48B1D4F8840040F006
:104380001000C4F88400012084F88100B0BDA16F42
:104390004FF6FF72D4E9000CC9694368B1F5807F1C
:1043A00023EA020218BF2A44BCF5800F42608168EC
:1043B00041F400418160016941F448710161016883
:1043C00041F00101016003D1016841F40071016015
:1043D000002084F88000B0BD70470000000000009D
:1043E000704700000000000070470000000000005F
:1043F00080B500F075FD80BD704700000000000032
:10440000704700000000000070470000000000003E
:10441000B0B590F83C20012A4FF0020251D00123A0
:1044200080F83C3080F83D2040F2004C0268C4F235
:10443000010C42F4806363455368D2F808E002BF80
:1044400023F470034C68234340F6FF340D68C4F234
:10445000000423F07003A24243EA050353600EDD1B
:104460004FF6FF73C4F200039A4218DC40F6004393
:10447000C4F200039A4219D041F600030AE0B2F1F7
:10448000804F13D040F20043C4F200039A420DD093
:1044900040F60003C4F200039A4207D00BE06245E5
:1044A00004D00023C4F201039A4204D12EF0800309
:1044B0008968194391600022012180F83D1080F83D
:1044C0003C201046B0BD000060B310B5044690F823
:1044D0003D0028B9002084F83C00204600F024F874
:1044E000022084F83D002068211D00F0F1FD01202C
:1044F00084F8480084F83E0084F83F0084F84000C7
:1045000084F8410084F8420084F8430084F84400B1
:1045100084F8450084F8460084F8470084F83D009C
:10452000002010BD0120704780B582B044F6000124
:104530000068C4F20101884213D00021C4F20101D5
:10454000884223D144F2F040C5F60200016841F0F0
:1045500001010160006800F001000190019802B0C3
:1045600080BD44F2F0400022C5F60200016841F42B
:10457000802101600068022100F4802000900098F2
:104580007620FEF795F97620FEF78EF902B080BD11
:1045900010B5044690F83C0001284FF0020008BF17
:1045A00010BD0B46012184F83C10882284F83D00A0
:1045B000CFF6CE72206881681140816019686F293A
:1045C0000EDC2F2919DD4F2927DC302959D040294D
:1045D00059D15968DA6800F033FE2068402150E074
:1045E000B1F1101F10DB2F22C0F2100291421FDC2C
:1045F000B1F1101F45D0202220E0002918BF10295A
:104600003FD020293DD03EE070291ED0B1F5005F9B
:1046100026D0B1F5801F34D035E050292BD0602949
:1046200031D15968DA6800F01FFE2068602128E067
:104630003022C0F21002914223D04022C0F2100278
:10464000914208BF00F0F0FD1DE0D3E90121DB68D5
:1046500000F0DEFD2068816841F07701816012E0A2
:10466000D3E90121DB6800F0D3FD2068816841F4C3
:104670008041816007E05968DA6800F0E1FD206858
:10468000502100F0D1FD012084F83D00002084F885
:104690003C0010BD0000000070470000000000005A
:1046A00010B5044600680169890744BFC1685FEA24
:1046B000817140D420680169490744BFC1685FEA3D
:1046C000417144D420680169090744BFC1685FEAA9
:1046D000017149D420680169C90644BFC1685FEA15
:1046E000C1614DD420680169C9071CBFC1685FEA78
:1046F000C17152D120680169090644BFC1685FEAEF
:10470000016151D420680169C90544BFC1685FEAED
:10471000016150D420680169490644BFC1685FEA5D
:1047200041614FD420680169890644BFC1685FEACE
:1047300081614ED410BD6FF002010161012121772A
:10474000806980074CD02046FFF7A6FF4EE06FF04F
:104750000401016102212177806910F4407F48D073
:104760002046FFF799FF4AE06FF00801016104213C
:104770002177C069800745D02046FFF78DFF47E0CD
:104780006FF01001016108212177C06910F4407FAA
:1047900041D02046FFF780FF43E06FF00101016147
:1047A000204600F049F8A5E76FF08001016120463E
:1047B000FFF726FEA6E76FF4807101612046FFF740
:1047C0001BFEA7E76FF040010161204600F038F8BA
:1047D000A8E76FF0200101612046FFF715FE10BD2C
:1047E000204600F021F8204600F022F80020207733
:1047F00060E7204600F018F8204600F019F8002085
:1048000020775FE7204600F00FF8204600F010F810
:10481000002020775EE7204600F006F8204600F0F2
:1048200007F8002020775DE77047000000000000D7
:10483000704700000000000070470000000000000A
:104840007047000000000000FEE7000000000000CC
:1048500080B500F039FD80BD80B501F039F880BD2C
:1048600080B501F071FA80BD80B500F0D9FF80BD40
:1048700080B501F0B9F980BD80B501F079F880BD4F
:1048800080B501F0C9F980BD80B582B044F2D8404E
:104890000022C5F60200016841F0010101600068D4
:1048A000002100F00100019001980B20FEF700F8B4
:1048B0000B20FDF7F9FF02B080BD000000000000F2
:1048C0002DE9F04786B044F2E0400027C5F602002B
:1048D0000597CDE90377CDE90177016840F2004AF9
:1048E00041F0800101600168C5F6020A01F0800113
:1048F00000910099016841F01001016001680AF51A
:10490000406501F0100100910099016841F0020139
:1049100001600168012201F0020100910099016823
:1049200041F00101016000684FF4004100F0010016
:104930000090009828464FF400464FF00108FDF71C
:104940001BFF4FF40051002250464FF40059FDF771
:1049500013FFCDE9016801AE2846314603970324D1
:104960000494FDF735FE50463146CDE90198CDE976
:104970000374FDF72DFE06B0BDE8F08700000000CF
:1049800010B540F2441443F60000C2F20044C4F2F1
:1049900000004FF0005120604FF4800060604FF441
:1049A0000030A0600720E0600020C4E90400C4E9F2
:1049B0000611C4E90800C4E90A004FF080406063B2
:1049C00004F138002421FBF720FD2046FFF720FAF0
:1049D000002808BF10BDFCF7D7F910BD000000008B
:1049E00080B540F2182044F60001C2F20040C4F243
:1049F00001014FF47A720160EF2141600021816072
:104A0000C0E90321416180218161FFF75DFD00283C
:104A100008BF80BDFCF7B8F980BD000000000000B1
:104A200080B588B040F2CC100022C2F200400021D4
:104A30000791C4F20102CDE90511CDE90311CDE9D9
:104A40000111026042F6DF62C0E901214FF6FF72F8
:104A5000C2604FF48072C0E904218161FFF734FD28
:104A600008B1FCF791F94FF48050049040F2CC105B
:104A700004A9C2F20040FFF78BFD08B1FCF784F9EE
:104A8000002001A9CDE90100039040F2CC10C2F250
:104A90000040FFF7BDFC08B1FCF776F908B080BD17
:104AA000FEE700000000000070470000000000006A
:104AB00000F007004FF0FF3C80F00703042B28BFF5
:104AC0000423033838BF00200CFA03F399430CFA8F
:104AD00000F301FA00F022EA0301084370470000E6
:104AE00080B54FF6944001F045F980BD000000000C
:104AF0007047000000000000F0B581B044F22C4780
:104B0000C5F6020757F8042C02F00302032A02D16B
:104B1000012001B0F0BD054657F82C0C0C4620F0E2
:104B2000806047F82C0CFDF737FE064657F82C0C32
:104B3000000105D5FDF730FE801B0228F6D964E0A0
:104B400057F8040CEE6895E80E0020F47C30012C38
:104B500040EA0130A2F101016FF35F214FF47E4280
:104B600002EB432247F8040C92B24FF0FE4302EBF3
:104B700001004FF4FE012A6901EB064101F4FE0138
:104B800003EB0262084402F0FE410844F860386812
:104B9000696920F0C00040EA010038603868A969FE
:104BA00020F0200040EA0100386038684FF6F871C4
:104BB00020F0100038603869EA6920EA01004FF4FB
:104BC000001140EAC2003861386808BF4FF4801114
:104BD00040F01000002C386008BF4FF40021386806
:104BE0000843386057F82C0C40F0806047F82C0CD4
:104BF000FDF7D2FD044600BF57F82C0C000107D486
:104C0000FDF7CAFD001B0328F6D3032001B0F0BD59
:104C1000002001B0F0BD0000F0B581B044F22C4797
:104C2000C5F6020757F8042C02F00302032A02D14A
:104C3000012001B0F0BD054657F82C0C0C4620F0C1
:104C4000805047F82C0CFDF7A7FD064657F82C0CB2
:104C5000800005D5FDF7A0FD801B0228F6D964E091
:104C600057F8040CEE6895E80E0020F07C70012CDB
:104C700040EA0150A2F101016FF35F214FF47E423F
:104C800002EB432247F8040C92B24FF0FE4302EBD2
:104C900001004FF4FE012A6901EB064101F4FE0117
:104CA00003EB0262084402F0FE4108447861386870
:104CB000696920F4406040EA010038603868A969F9
:104CC00020F4007040EA0100386038684FF6F8714F
:104CD00020F480703860B869EA6920EA01004FF07A
:104CE000807140EAC200B861386808BF4FF4000123
:104CF00040F48070002C386008BF4FF480013868A1
:104D00000843386057F82C0C40F0805047F82C0CC2
:104D1000FDF742FD044600BF57F82C0C800007D475
:104D2000FDF73AFD001B0328F6D3032001B0F0BDC8
:104D3000002001B0F0BD000080B540F24410C2F286
:104D40000040FEF73DFF80BD016840F26F32D1F8B0
:104D500014C08B6943F008038B618B6943F0100327
:104D60008B610B6823F001030B600B6923EA0202DD
:104D70000A618A6822F440428A6090F881305FEAD2
:104D80008C620BD5042B09D0D0F8842042F080022D
:104D9000C0F884208A6942F020028A6190F881304C
:104DA0005FEA4C620BD5032B09D0D0F8842042F087
:104DB0000402C0F884208A6942F040028A615FEAF6
:104DC0008C5209D5D0F8842042F00102C0F884202A
:104DD0008A6942F400728A615FEACC5209D5D0F840
:104DE000842042F00802C0F884208A6942F480726C
:104DF0008A610021A0F86210A0F86A1070470000D4
:104E000080B5806B0021A0F86A10A0F86210012123
:104E100080F88110FEF7D0FE80BD00000000000089
:104E200010B5846BFCF70CF9022808BF10BD2046B2
:104E3000FFF78AFFD4F8840040F01000C4F8840023
:104E4000012084F881002046FEF7B6FE10BD000068
:104E500080B5806BFFF7C4FA80BD00000000000041
:104E600080B5806B90F88110072908BF80BD816FE5
:104E7000C969B1F5807F02D1FFF7AEFA80BD006845
:104E8000016941F00801016180BD000000000000DF
:104E9000C16B0122C068083002EB5111C0084843C1
:104EA0007047000000000000F0B581B014460D46C8
:104EB0000646571C30684069000709D4FDF76CFCB2
:104EC000002FF7D0401BA042F4D3032001B0F0BD67
:104ED000002001B0F0BD000070470000000000009D
:104EE000B0B501380024B4EB106F01D00120B0BD83
:104EF0004EF210050F21CEF2000568604FF0FF3032
:104F000000F066FFAC60072028602046B0BD0000BE
:104F100080B5FDF749FC80BDB0B5CCB044F61804AF
:104F200039A84C21C5F60204FBF76FFA02A8BC2190
:104F30000025CDE93755CDE93555CDE93355CDE9D6
:104F40003155FBF762FA0220FDF7C6FC0195206897
:104F500040F440402060206800F44040019040F25E
:104F60002C40C5F60000016841F0010101600068B5
:104F700000F001000190019820688004FCD5022017
:104F8000399001213C9140253D9542900024439465
:104F9000042144913C21CDE94510CDE947000C2086
:104FA000CDE9490439A84B94FEF70EFB3F20319020
:104FB00003200421CDE932040820CDE934053695DB
:104FC0004FF48060CDE9370531A8FEF74DF94FF475
:104FD0008050029002A81994FDF7A2FC4CB0B0BD1D
:104FE00080B54EF6885C42F2000ECEF2000CC5F29F
:104FF000002EDCF8001041F47001CCF80010DEF84F
:10500000001001F00F01062906D8DEF80010072273
:1050100062F30301CEF8001044F200414EF67F53D4
:10502000C5F60201CEF6F6230A6842F001020A60D4
:1050300000220A61086818400860DEF800000007D6
:1050400006D5DEF80000072363F30300CEF8000066
:1050500040F200208A61CA61C0F202200A628862BE
:105060000020C0F2FF10C86240F28020C0F20110A0
:1050700008634A638863CA6308644A64086820F462
:105080008020086041F200000A66C5F60040006812
:10509000B2EB507F05D148F208100121C5F2001093
:1050A000016044F2000043F2D201C5F20020016029
:1050B0004FF000604CF8800C80BD00000000000044
:1050C00080B540F21820C2F20040FFF7E9FA80BD37
:1050D00010B540F6FF32C4F20002904202680FDCC5
:1050E000B0F1804F1DD040F20043C4F2000398425B
:1050F00017D040F60003C4F20003984211D014E028
:1051000040F60043C4F2000398420AD040F2004344
:10511000C4F20103984204D00023C4F20103984270
:1051200003D122F070024B681A434FF6FF7343F627
:10513000FF7CC4F20003C4F2010C984210DD60450C
:105140001ADD44F20003C4F2010398422CD044F665
:105150000003C4F20103984226D044F2004312E057
:1051600040F2FF73C4F20003984211DCB0F1804FAB
:105170001AD040F2004313E00023C4F20103984226
:1051800012D040F20043C4F2010398420CD00FE069
:1051900040F60003C4F20003984205D040F60043F5
:1051A000C4F20003984203D122F44072CB681A4340
:1051B00022F080024C696045D1F800E08B6842EA39
:1051C00004020260C362C0F828E00EDD44F200026F
:1051D000C4F20102904213D044F60002C4F201026C
:1051E00090420DD044F2004206E00022C4F20102D7
:1051F000904205D040F20042C4F20102904201D137
:10520000096901630121416110BD00000000000037
:10521000D0F808C011432CF47F4241EA0321114326
:1052200081607047000000004FF688738268CFF6F7
:10523000CF731A40114341F00701816070470000AD
:10524000D0F820C0036A23F001030362836923F0CE
:10525000F00343EA02122CF00A038261194301624F
:105260007047000000000000036A23F0100303628F
:10527000836923F47043D0F820C043EA02322CF053
:10528000A003826143EA011101627047000000003F
:10529000FEE700000000000010B540F200444FF4AB
:1052A0000051C5F6020400222046FDF765FAC82029
:1052B000FDF77AF94FF4005101222046FDF75CFA20
:1052C00010BD00000000000010B50446816000F031
:1052D0005BF92046FFF7E0FF0121204600F0FCF9D2
:1052E0004FF47A70FDF760F9CB21204600F0F4F915
:1052F0003921204600F080FA2C21204600F07CFA6B
:105300000021204600F078FA3421204600F074FA9B
:105310000221204600F070FACF21204600F0DCF98F
:105320000021204600F068FAC121204600F064FA0E
:105330003021204600F060FAE821204600F0CCF948
:105340008521204600F058FA0021204600F054FA4A
:105350007821204600F050FAEA21204600F0BCF9FE
:105360000021204600F048FA0021204600F044FACF
:10537000ED21204600F0B0F96421204600F03CFA0F
:105380000321204600F038FA1221204600F034FABA
:105390008121204600F030FAF721204600F09CF9E8
:1053A0002021204600F028FAC021204600F094F980
:1053B0002321204600F020FAC121204600F08CF97C
:1053C0001021204600F018FAC521204600F084F98B
:1053D0003E21204600F010FA2821204600F00CFA69
:1053E000C721204600F078F98621204600F004FA13
:1053F0003621204600F070F94821204600F0FCF9E3
:105400003A21204600F068F95521204600F0F4F9D1
:10541000B121204600F060F90021204600F0ECF9AF
:105420001821204600F0E8F9B621204600F054F992
:105430000821204600F0E0F98221204600F0DCF946
:105440002721204600F0D8F9F221204600F044F947
:105450000021204600F0D0F92621204600F03CF93A
:105460000121204600F0C8F9E021204600F034F97F
:105470000F21204600F0C0F93121204600F0BCF990
:105480002B21204600F0B8F90C21204600F0B4F999
:105490000E21204600F0B0F90821204600F0ACF9BA
:1054A0004E21204600F0A8F9F121204600F0A4F991
:1054B0003721204600F0A0F90721204600F09CF992
:1054C0001021204600F098F90321204600F094F9BD
:1054D0000E21204600F090F90921204600F08CF9B9
:1054E0000021204600F088F9E121204600F0F4F880
:1054F0000021204600F080F90E21204600F07CF9C2
:105500001421204600F078F90321204600F074F9B8
:105510001121204600F070F90721204600F06CF9B7
:105520003121204600F068F9C121204600F064F9DD
:105530004821204600F060F90821204600F05CF97F
:105540000F21204600F058F90C21204600F054F9B4
:105550003121204600F050F93621204600F04CF968
:105560000F21204600F048F91121204600F0B4F840
:105570007820FDF719F82921204600F0ADF8002128
:10558000204600F0F5F910BD80B540F200404FF420
:105590000051C5F602000122FDF7EEF880BD0000C3
:1055A0002DE9F04F87B0B1F12005064638BF0D4612
:1055B000114645F6DE62E8B2C0F6020240001C4623
:1055C00050FA85F0119F129D019502EB400352F8AD
:1055D0001000059007EB47009A88400083B2ADF8B1
:1055E0001820FA00304692B200922246039100F051
:1055F0004FFA002104E000BF0499013106292FD0A1
:1056000005A84FF000094FF0000B0491455C03988A
:1056100001FB070A01EB000812E000BF1FFA8AF144
:1056200004EB090082B21098019030463B46009787
:1056300000F02EFA0BF1010BB944BBF1080FDBD0DF
:1056400025FA0BF0C007F5D0012FE7D11FFA88F13A
:1056500004EB0B0082B23046109B00F051F8E9E7F2
:1056600007B0BDE8F08F00002DE9F04F83B00F7850
:10567000DFB1DDE90C9A06469B460AEB4A00154667
:105680004400A1F1010800BFCDE9009AF9B20E98DB
:10569000EAB2029030465B46FFF782FF98F802704C
:1056A000254408F10108002FEED103B0BDE8F08FCA
:1056B00080B582B080688DF8071000BF90F8811027
:1056C0000129FBD10DF107010122FEF7D1FD02B046
:1056D00080BD000000000000B0B5054641F20000AA
:1056E0000C46C5F602004FF400410022FDF744F8D5
:1056F00028462146FFF7DCFFB0BD00000000000097
:105700002DE9F04184B00446406888426FDD20688E
:10571000174690426BDD41F200080E46C5F60208BE
:105720004FF40041002240461D46FDF725F82A218E
:105730002046FFF7BDFF4FF4004101224046FDF730
:105740001BF8300A8DF80C00701C8DF80F00010A50
:10575000A0688DF80D608DF80E1000BF90F88110D4
:105760000129FBD103A90422FEF782FD4FF4004179
:1057700000224046FDF700F82B212046FFF798FF56
:105780004FF4004101224046FCF7F6FF380A8DF83D
:105790000800781C8DF80B00010AA0688DF80970CC
:1057A0008DF80A1090F881100129FBD102A904227A
:1057B000FEF75EFD4FF4004100224046FCF7DCFF9F
:1057C0002C212046FFF774FF4FF400410122404690
:1057D000FCF7D2FF68BAADF80600A06890F8811017
:1057E0000129FBD10DF106010222FEF741FD04B0B3
:1057F000BDE8F08100000000B0B5054641F20000B0
:105800000C46C5F602004FF400410122FCF7B4FF3C
:1058100028462146FFF74CFFB0BD00000000000005
:105820002DE9F04784B040F288060D46C2F20046EA
:1058300004464FF6FF7832680F2A18DA100100216B
:10584000C3B2009102210191002220462946CDF8E1
:105850000880FFF709FF306840F28C01C2F2004176
:1058600041F820500130306004B0BDE8F08740F2CC
:105870008C006FF00301C2F2004000BF42180431F7
:10588000342993685360F9D1071F10264FF000099F
:105890004FF0020A856300BFA6F110050021F02336
:1058A00020462A46009600F01FF9EBB257F8041F75
:1058B00000222046CDE9009ACDF80880FFF7D4FEFB
:1058C0001036B6F5807FE7D104B0BDE8F087000060
:1058D000B0B582B00446838800880D4600210022BE
:1058E0000090204600F00CF8D4E9000100FB01F222
:1058F0002046294600F024F902B0B0BD00000000A7
:105900002DE9F0410F462A211E4615460446DDF8D2
:105910001880FFF7E1FE390A2046FFF76DFFF9B264
:105920002046FFF769FF310A2046FFF765FFF1B215
:105930002046FFF761FF2B212046FFF7CDFE290A05
:105940002046FFF759FFE9B22046FFF755FF4FEA1F
:1059500018212046FFF750FF5FFA88F12046FFF735
:105960004BFF2C212046FFF7B7FEBDE8F081000079
:10597000F0B581B00D4636210446FFF7ADFE01209B
:10598000FCF712FE032D1AD84FF4A076F027482119
:10599000DFE805F01002070CF0264FF4A07728216D
:1059A00008E04FF4A076F027882103E0F0264FF4BA
:1059B000A077E8212046FFF71FFFC4E9006701B088
:1059C000F0BD0000000000002DE9F04F83B00C4650
:1059D0000C991B1BA1EB020115461E464FF0FF3B25
:1059E0000A4648BF5E42B3F1FF3F4FF0FF3AC8BFDF
:1059F0004FF0010B00294FF0010748BF4A42B1F1B7
:105A0000FF3F4FEA46014FEA42038946C8BF4FF0C5
:105A1000010A9642CDE901B09B461ADDA3EB0608C8
:105A2000002EC8BF771C00BFA1B2AAB200F07CF85C
:105A3000B8F1FF3FD84459460298C8BF5544C8BF83
:105A4000A8EB09080199013F0C444B465246EBD1A3
:105A500018E08E1A002AC8BF571C00BFA1B2AAB214
:105A600000F062F8B6F1FF3F01994E440298C8BFBA
:105A70000C44C8BFA6EB0B06013F55445A464B46A3
:105A8000D446EBD103B0BDE8F08F00000000000069
:105A90002DE9F04182B004464068884220DD256847
:105AA00095421DDD089E5F18874206EB0207C8BFBE
:105AB000431AAF42DDF82480C8BFAE1A9DB2C818A1
:105AC00093190138B6B2013B9FB2009783B22046CA
:105AD000FFF716FF06FB05F22046414600F030F8BE
